{
  "fileName": "counter.sol",
  "contractName": "Counter",
  "source": "pragma solidity ^0.5.0;\n\nimport \"./GSN/UpdatableGSNRecipientSignature.sol\";\nimport \"./contracts-package/Initializable.sol\";\n\ncontract Counter is Initializable, UpdatableGSNRecipientSignature {\n  //it keeps a count to demonstrate stage changes\n  uint private count;\n  address private _owner;\n\n  function initialize (uint num, address trustedSigner) public initializer {\n    UpdatableGSNRecipientSignature.initialize(trustedSigner);\n    _owner = _msgSender();\n    count = num;\n  }\n\n  function _preRelayedCall(bytes memory context) internal returns (bytes32) {\n  }\n\n  function _postRelayedCall(bytes memory context, bool, uint256 actualCharge, bytes32) internal {\n  }\n\n  function owner() public view returns (address) {\n    return _owner;\n  }\n\n  // getter\n  function getCounter() public view returns (uint) {\n    return count;\n  }\n\n  //and it can add to a count\n  function increaseCounter(uint256 amount) public {\n    count = count + amount;\n  }\n\n  //We'll upgrade the contract with this function after deploying it\n  //Function to decrease the counter\n  function decreaseCounter(uint256 amount) public returns (bool) {\n    require(count > amount, \"Cannot be lower than 0\");\n    count = count - amount;\n    return true;\n  }\n\n  function setRelayHubAddress() public {\n    if(getHubAddr() == address(0)) {\n      _upgradeRelayHub(0xD216153c06E857cD7f72665E0aF1d7D82172F494);\n    }\n  }\n\n  function getRecipientBalance() public view returns (uint) {\n    return IRelayHub(getHubAddr()).balanceOf(address(this));\n  }\n\n}\n",
  "sourcePath": "contracts/counter.sol",
  "abi": [
    {
      "anonymous": false,
      "inputs": [
        {
          "indexed": true,
          "internalType": "address",
          "name": "oldRelayHub",
          "type": "address"
        },
        {
          "indexed": true,
          "internalType": "address",
          "name": "newRelayHub",
          "type": "address"
        }
      ],
      "name": "RelayHubChanged",
      "type": "event"
    },
    {
      "anonymous": false,
      "inputs": [
        {
          "indexed": false,
          "internalType": "address",
          "name": "signer",
          "type": "address"
        }
      ],
      "name": "SignerUpdated",
      "type": "event"
    },
    {
      "constant": true,
      "inputs": [
        {
          "internalType": "address",
          "name": "relay",
          "type": "address"
        },
        {
          "internalType": "address",
          "name": "from",
          "type": "address"
        },
        {
          "internalType": "bytes",
          "name": "encodedFunction",
          "type": "bytes"
        },
        {
          "internalType": "uint256",
          "name": "transactionFee",
          "type": "uint256"
        },
        {
          "internalType": "uint256",
          "name": "gasPrice",
          "type": "uint256"
        },
        {
          "internalType": "uint256",
          "name": "gasLimit",
          "type": "uint256"
        },
        {
          "internalType": "uint256",
          "name": "nonce",
          "type": "uint256"
        },
        {
          "internalType": "bytes",
          "name": "approvalData",
          "type": "bytes"
        },
        {
          "internalType": "uint256",
          "name": "",
          "type": "uint256"
        }
      ],
      "name": "acceptRelayedCall",
      "outputs": [
        {
          "internalType": "uint256",
          "name": "",
          "type": "uint256"
        },
        {
          "internalType": "bytes",
          "name": "",
          "type": "bytes"
        }
      ],
      "payable": false,
      "stateMutability": "view",
      "type": "function"
    },
    {
      "constant": false,
      "inputs": [
        {
          "internalType": "uint256",
          "name": "amount",
          "type": "uint256"
        }
      ],
      "name": "decreaseCounter",
      "outputs": [
        {
          "internalType": "bool",
          "name": "",
          "type": "bool"
        }
      ],
      "payable": false,
      "stateMutability": "nonpayable",
      "type": "function"
    },
    {
      "constant": true,
      "inputs": [],
      "name": "getCounter",
      "outputs": [
        {
          "internalType": "uint256",
          "name": "",
          "type": "uint256"
        }
      ],
      "payable": false,
      "stateMutability": "view",
      "type": "function"
    },
    {
      "constant": true,
      "inputs": [],
      "name": "getHubAddr",
      "outputs": [
        {
          "internalType": "address",
          "name": "",
          "type": "address"
        }
      ],
      "payable": false,
      "stateMutability": "view",
      "type": "function"
    },
    {
      "constant": true,
      "inputs": [],
      "name": "getRecipientBalance",
      "outputs": [
        {
          "internalType": "uint256",
          "name": "",
          "type": "uint256"
        }
      ],
      "payable": false,
      "stateMutability": "view",
      "type": "function"
    },
    {
      "constant": false,
      "inputs": [
        {
          "internalType": "uint256",
          "name": "amount",
          "type": "uint256"
        }
      ],
      "name": "increaseCounter",
      "outputs": [],
      "payable": false,
      "stateMutability": "nonpayable",
      "type": "function"
    },
    {
      "constant": false,
      "inputs": [],
      "name": "initialize",
      "outputs": [],
      "payable": false,
      "stateMutability": "nonpayable",
      "type": "function"
    },
    {
      "constant": false,
      "inputs": [
        {
          "internalType": "address",
          "name": "trustedSigner",
          "type": "address"
        }
      ],
      "name": "initialize",
      "outputs": [],
      "payable": false,
      "stateMutability": "nonpayable",
      "type": "function"
    },
    {
      "constant": false,
      "inputs": [
        {
          "internalType": "uint256",
          "name": "num",
          "type": "uint256"
        },
        {
          "internalType": "address",
          "name": "trustedSigner",
          "type": "address"
        }
      ],
      "name": "initialize",
      "outputs": [],
      "payable": false,
      "stateMutability": "nonpayable",
      "type": "function"
    },
    {
      "constant": true,
      "inputs": [],
      "name": "owner",
      "outputs": [
        {
          "internalType": "address",
          "name": "",
          "type": "address"
        }
      ],
      "payable": false,
      "stateMutability": "view",
      "type": "function"
    },
    {
      "constant": false,
      "inputs": [
        {
          "internalType": "bytes",
          "name": "context",
          "type": "bytes"
        },
        {
          "internalType": "bool",
          "name": "success",
          "type": "bool"
        },
        {
          "internalType": "uint256",
          "name": "actualCharge",
          "type": "uint256"
        },
        {
          "internalType": "bytes32",
          "name": "preRetVal",
          "type": "bytes32"
        }
      ],
      "name": "postRelayedCall",
      "outputs": [],
      "payable": false,
      "stateMutability": "nonpayable",
      "type": "function"
    },
    {
      "constant": false,
      "inputs": [
        {
          "internalType": "bytes",
          "name": "context",
          "type": "bytes"
        }
      ],
      "name": "preRelayedCall",
      "outputs": [
        {
          "internalType": "bytes32",
          "name": "",
          "type": "bytes32"
        }
      ],
      "payable": false,
      "stateMutability": "nonpayable",
      "type": "function"
    },
    {
      "constant": true,
      "inputs": [],
      "name": "relayHubVersion",
      "outputs": [
        {
          "internalType": "string",
          "name": "",
          "type": "string"
        }
      ],
      "payable": false,
      "stateMutability": "view",
      "type": "function"
    },
    {
      "constant": false,
      "inputs": [],
      "name": "setDefaultRelayHub",
      "outputs": [],
      "payable": false,
      "stateMutability": "nonpayable",
      "type": "function"
    },
    {
      "constant": false,
      "inputs": [],
      "name": "setRelayHubAddress",
      "outputs": [],
      "payable": false,
      "stateMutability": "nonpayable",
      "type": "function"
    }
  ],
  "bytecode": "0x608060405261173d806100136000396000f3fe608060405234801561001057600080fd5b50600436106100f55760003560e01c80639e80c07411610097578063c4d66de811610066578063c4d66de814610523578063d3c7fb8414610567578063da35a26f14610571578063e06e0e22146105bf576100f5565b80639e80c0741461040e578063ac5704111461043c578063ad61ccd51461045a578063b24f03af146104dd576100f5565b80638129fc1c116100d35780638129fc1c146101db57806383947ea0146101e55780638ada066e146103a65780638da5cb5b146103c4576100f5565b80631220e2ff146100fa57806374e861d61461010457806380274db71461014e575b600080fd5b610102610658565b005b61010c610677565b604051808273ffffffffffffffffffffffffffffffffffffffff1673ffffffffffffffffffffffffffffffffffffffff16815260200191505060405180910390f35b6101c56004803603602081101561016457600080fd5b810190808035906020019064010000000081111561018157600080fd5b82018360208201111561019357600080fd5b803590602001918460018302840111640100000000831117156101b557600080fd5b90919293919293905050506106a1565b6040518082815260200191505060405180910390f35b6101e3610783565b005b61032460048036036101208110156101fc57600080fd5b81019080803573ffffffffffffffffffffffffffffffffffffffff169060200190929190803573ffffffffffffffffffffffffffffffffffffffff1690602001909291908035906020019064010000000081111561025957600080fd5b82018360208201111561026b57600080fd5b8035906020019184600183028401116401000000008311171561028d57600080fd5b909192939192939080359060200190929190803590602001909291908035906020019092919080359060200190929190803590602001906401000000008111156102d657600080fd5b8201836020820111156102e857600080fd5b8035906020019184600183028401116401000000008311171561030a57600080fd5b9091929391929390803590602001909291905050506108e2565b6040518083815260200180602001828103825283818151815260200191508051906020019080838360005b8381101561036a57808201518184015260208101905061034f565b50505050905090810190601f1680156103975780820380516001836020036101000a031916815260200191505b50935050505060405180910390f35b6103ae610b17565b6040518082815260200191505060405180910390f35b6103cc610b21565b604051808273ffffffffffffffffffffffffffffffffffffffff1673ffffffffffffffffffffffffffffffffffffffff16815260200191505060405180910390f35b61043a6004803603602081101561042457600080fd5b8101908080359060200190929190505050610b4b565b005b610444610b59565b6040518082815260200191505060405180910390f35b610462610c1f565b6040518080602001828103825283818151815260200191508051906020019080838360005b838110156104a2578082015181840152602081019050610487565b50505050905090810190601f1680156104cf5780820380516001836020036101000a031916815260200191505b509250505060405180910390f35b610509600480360360208110156104f357600080fd5b8101908080359060200190929190505050610c5c565b604051808215151515815260200191505060405180910390f35b6105656004803603602081101561053957600080fd5b81019080803573ffffffffffffffffffffffffffffffffffffffff169060200190929190505050610ce9565b005b61056f610dfa565b005b6105bd6004803603604081101561058757600080fd5b8101908080359060200190929190803573ffffffffffffffffffffffffffffffffffffffff169060200190929190505050610e56565b005b610656600480360360808110156105d557600080fd5b81019080803590602001906401000000008111156105f257600080fd5b82018360208201111561060457600080fd5b8035906020019184600183028401116401000000008311171561062657600080fd5b90919293919293908035151590602001909291908035906020019092919080359060200190929190505050610faf565b005b61067573d216153c06e857cd7f72665e0af1d7d82172f494611091565b565b6000603360009054906101000a900473ffffffffffffffffffffffffffffffffffffffff16905090565b60006106ab610677565b73ffffffffffffffffffffffffffffffffffffffff163373ffffffffffffffffffffffffffffffffffffffff161461072e576040517f08c379a00000000000000000000000000000000000000000000000000000000081526004018080602001828103825260248152602001806116e56024913960400191505060405180910390fd5b61077b83838080601f016020809104026020016040519081016040528093929190818152602001838380828437600081840152601f19601f82011690508083019250505050505050611262565b905092915050565b600060019054906101000a900460ff16806107a257506107a1611269565b5b806107b957506000809054906101000a900460ff16155b61080e576040517f08c379a000000000000000000000000000000000000000000000000000000000815260040180806020018281038252602e815260200180611651602e913960400191505060405180910390fd5b60008060019054906101000a900460ff16159050801561085e576001600060016101000a81548160ff02191690831515021790555060016000806101000a81548160ff0219169083151502179055505b600073ffffffffffffffffffffffffffffffffffffffff16603360009054906101000a900473ffffffffffffffffffffffffffffffffffffffff1673ffffffffffffffffffffffffffffffffffffffff1614156108be576108bd610658565b5b80156108df5760008060016101000a81548160ff0219169083151502179055505b50565b60006060808d8d8d8d8d8d8d8d6108f7610677565b30604051602001808b73ffffffffffffffffffffffffffffffffffffffff1673ffffffffffffffffffffffffffffffffffffffff1681526020018a73ffffffffffffffffffffffffffffffffffffffff1673ffffffffffffffffffffffffffffffffffffffff168152602001806020018881526020018781526020018681526020018581526020018473ffffffffffffffffffffffffffffffffffffffff1673ffffffffffffffffffffffffffffffffffffffff1681526020018373ffffffffffffffffffffffffffffffffffffffff1673ffffffffffffffffffffffffffffffffffffffff16815260200182810382528a8a82818152602001925080828437600081840152601f19601f8201169050808301925050509b5050505050505050505050506040516020818303038152906040529050603460009054906101000a900473ffffffffffffffffffffffffffffffffffffffff1673ffffffffffffffffffffffffffffffffffffffff16610acb87878080601f016020809104026020016040519081016040528093929190818152602001838380828437600081840152601f19601f82011690508083019250505050505050610abd848051906020012061127a565b6112d290919063ffffffff16565b73ffffffffffffffffffffffffffffffffffffffff161415610af957610aef6113d6565b9250925050610b07565b610b016113d6565b92509250505b9b509b9950505050505050505050565b6000603554905090565b6000603660009054906101000a900473ffffffffffffffffffffffffffffffffffffffff16905090565b806035540160358190555050565b6000610b63610677565b73ffffffffffffffffffffffffffffffffffffffff166370a08231306040518263ffffffff1660e01b8152600401808273ffffffffffffffffffffffffffffffffffffffff1673ffffffffffffffffffffffffffffffffffffffff16815260200191505060206040518083038186803b158015610bdf57600080fd5b505afa158015610bf3573d6000803e3d6000fd5b505050506040513d6020811015610c0957600080fd5b8101908080519060200190929190505050905090565b60606040518060400160405280600581526020017f312e302e30000000000000000000000000000000000000000000000000000000815250905090565b60008160355411610cd5576040517f08c379a00000000000000000000000000000000000000000000000000000000081526004018080602001828103825260168152602001807f43616e6e6f74206265206c6f776572207468616e20300000000000000000000081525060200191505060405180910390fd5b816035540360358190555060019050919050565b600060019054906101000a900460ff1680610d085750610d07611269565b5b80610d1f57506000809054906101000a900460ff16155b610d74576040517f08c379a000000000000000000000000000000000000000000000000000000000815260040180806020018281038252602e815260200180611651602e913960400191505060405180910390fd5b60008060019054906101000a900460ff161590508015610dc4576001600060016101000a81548160ff02191690831515021790555060016000806101000a81548160ff0219169083151502179055505b610dcd826113fa565b610dd5610783565b8015610df65760008060016101000a81548160ff0219169083151502179055505b5050565b600073ffffffffffffffffffffffffffffffffffffffff16610e1a610677565b73ffffffffffffffffffffffffffffffffffffffff161415610e5457610e5373d216153c06e857cd7f72665e0af1d7d82172f494611091565b5b565b600060019054906101000a900460ff1680610e755750610e74611269565b5b80610e8c57506000809054906101000a900460ff16155b610ee1576040517f08c379a000000000000000000000000000000000000000000000000000000000815260040180806020018281038252602e815260200180611651602e913960400191505060405180910390fd5b60008060019054906101000a900460ff161590508015610f31576001600060016101000a81548160ff02191690831515021790555060016000806101000a81548160ff0219169083151502179055505b610f3a82610ce9565b610f42611527565b603660006101000a81548173ffffffffffffffffffffffffffffffffffffffff021916908373ffffffffffffffffffffffffffffffffffffffff160217905550826035819055508015610faa5760008060016101000a81548160ff0219169083151502179055505b505050565b610fb7610677565b73ffffffffffffffffffffffffffffffffffffffff163373ffffffffffffffffffffffffffffffffffffffff161461103a576040517f08c379a00000000000000000000000000000000000000000000000000000000081526004018080602001828103825260248152602001806116e56024913960400191505060405180910390fd5b61108a85858080601f016020809104026020016040519081016040528093929190818152602001838380828437600081840152601f19601f82011690508083019250505050505050848484611594565b5050505050565b6000603360009054906101000a900473ffffffffffffffffffffffffffffffffffffffff169050600073ffffffffffffffffffffffffffffffffffffffff168273ffffffffffffffffffffffffffffffffffffffff16141561113e576040517f08c379a000000000000000000000000000000000000000000000000000000000815260040180806020018281038252602e815260200180611623602e913960400191505060405180910390fd5b8073ffffffffffffffffffffffffffffffffffffffff168273ffffffffffffffffffffffffffffffffffffffff1614156111c3576040517f08c379a000000000000000000000000000000000000000000000000000000000815260040180806020018281038252602d81526020018061167f602d913960400191505060405180910390fd5b8173ffffffffffffffffffffffffffffffffffffffff168173ffffffffffffffffffffffffffffffffffffffff167fb9f84b8e65164b14439ae3620df0a4d8786d896996c0282b683f9d8c08f046e860405160405180910390a381603360006101000a81548173ffffffffffffffffffffffffffffffffffffffff021916908373ffffffffffffffffffffffffffffffffffffffff1602179055505050565b6000919050565b600080303b90506000811491505090565b60008160405160200180807f19457468657265756d205369676e6564204d6573736167653a0a333200000000815250601c01828152602001915050604051602081830303815290604052805190602001209050919050565b600060418251146112e657600090506113d0565b60008060006020850151925060408501519150606085015160001a90507f7fffffffffffffffffffffffffffffff5d576e7357a4501ddfe92f46681b20a08260001c111561133a57600093505050506113d0565b601b8160ff16141580156113525750601c8160ff1614155b1561136357600093505050506113d0565b60018682858560405160008152602001604052604051808581526020018460ff1660ff1681526020018381526020018281526020019450505050506020604051602081039080840390855afa1580156113c0573d6000803e3d6000fd5b5050506020604051035193505050505b92915050565b600060606113f26040518060200160405280600081525061159a565b915091509091565b600073ffffffffffffffffffffffffffffffffffffffff168173ffffffffffffffffffffffffffffffffffffffff161415611480576040517f08c379a00000000000000000000000000000000000000000000000000000000081526004018080602001828103825260398152602001806116ac6039913960400191505060405180910390fd5b80603460006101000a81548173ffffffffffffffffffffffffffffffffffffffff021916908373ffffffffffffffffffffffffffffffffffffffff1602179055507f5553331329228fbd4123164423717a4a7539f6dfa1c3279a923b98fd681a6c7381604051808273ffffffffffffffffffffffffffffffffffffffff1673ffffffffffffffffffffffffffffffffffffffff16815260200191505060405180910390a150565b6000603360009054906101000a900473ffffffffffffffffffffffffffffffffffffffff1673ffffffffffffffffffffffffffffffffffffffff163373ffffffffffffffffffffffffffffffffffffffff161461158657339050611591565b61158e6115aa565b90505b90565b50505050565b6000606060008391509150915091565b600060606000368080601f016020809104026020016040519081016040528093929190818152602001838380828437600081840152601f19601f820116905080830192505050505050509050600080369050905073ffffffffffffffffffffffffffffffffffffffff8183015116925082925050509056fe47534e526563697069656e743a206e65772052656c617948756220697320746865207a65726f2061646472657373436f6e747261637420696e7374616e63652068617320616c7265616479206265656e20696e697469616c697a656447534e526563697069656e743a206e65772052656c6179487562206973207468652063757272656e74206f6e6547534e526563697069656e745369676e61747572653a2074727573746564207369676e657220697320746865207a65726f206164647265737347534e526563697069656e743a2063616c6c6572206973206e6f742052656c6179487562a265627a7a72315820950ad30383504b0657c65203c37da6c7eb18dd143d5e9726575d72ff26cb839564736f6c63430005110032",
  "compiler": {
    "name": "solc",
    "version": "0.5.17+commit.d19bba13.Emscripten.clang",
    "optimizer": {
      "enabled": false,
      "runs": 200
    },
    "evmVersion": "petersburg"
  }
}