{
  "fileName": "Distributions_v0.sol",
  "contractName": "Distributions_v0",
  "source": "pragma solidity >=0.5.0 < 0.6.0;\n\nimport \"./contracts-package/Initializable.sol\";\nimport \"./contracts-package/Ownable.sol\";\n\nimport \"./libraries/SafeMath.sol\";\nimport \"./libraries/Address.sol\";\nimport \"./ISubredditPoints.sol\";\n\nimport \"./contracts-package/IERC20.sol\";\n\nimport \"./GSN/UpdatableGSNRecipientSignature.sol\";\n\ncontract Distributions_v0 is Initializable, Ownable, UpdatableGSNRecipientSignature {\n\n    struct DistributionRound {\n        uint256 availablePoints;\n        uint256 totalKarma;\n    }\n\n    event AdvanceRound(uint256 round, uint256 totalPoints);\n    event ClaimPoints(uint256 round, address indexed user, uint256 points);\n\n\n    using SafeMath for uint256;\n    using Address for address;\n\n\n    address public subredditPoints;\n    string public subreddit;\n    string private _subredditLowerCase;\n\n    mapping(uint256 => DistributionRound) private _distributionRounds;\n\n    uint256 public initialSupply;\n\n    function initialize (\n        address owner_,\n        address subredditPoints_,\n        uint256 initialSupply_,\n        uint256 initialKarma_,\n        address gsnApprover_\n    ) external initializer {\n\n        require(owner_ != address(0), \"Distributions: owner should not be 0\");\n\n        Ownable.initialize(owner_);\n\n        subredditPoints = subredditPoints_;\n\n        subreddit = ISubredditPoints(subredditPoints_).subreddit();\n        _subredditLowerCase = _toLower(subreddit);\n\n        UpdatableGSNRecipientSignature.initialize(gsnApprover_);\n\n        initialSupply = initialSupply_;\n        _distributionRounds[0] = DistributionRound({\n            availablePoints: initialSupply,\n            totalKarma: initialKarma_\n        });\n\n        emit AdvanceRound(0, initialSupply);\n    }\n\n    function claim(uint256 round, address account, uint256 karma) external {\n        DistributionRound memory dr = _distributionRounds[round];\n        require(dr.availablePoints > 0, \"Distributions: no points to claim in this round\");\n        require(dr.totalKarma > 0, \"Distributions: this round has no karma\");\n        uint256 userPoints = dr.availablePoints\n            .mul(karma)\n            .div(dr.totalKarma);\n        require(userPoints > 0, \"Distributions: user karma is too low to claim points\");\n        emit ClaimPoints(round, account, userPoints);\n        ISubredditPoints(subredditPoints).mint(address(this), account, userPoints, \"\", \"\");\n    }\n\n    function advanceToRound(uint256 round, uint256 _roundPoints,uint256 _totalKarma) external {\n\n        require(_totalKarma > 0, \"Distributions: totalKarma should be > 0\");\n\n        // @poc: add new distribution round\n        _distributionRounds[round] = DistributionRound({\n            availablePoints: _roundPoints,\n            totalKarma: _totalKarma\n        });\n\n        emit AdvanceRound(round, _roundPoints);\n\n    }\n\n    function _toLower(string memory str) internal pure returns (string memory) {\n        bytes memory bStr = bytes(str);\n        bytes memory bLower = new bytes(bStr.length);\n        for (uint i = 0; i < bStr.length; i++) {\n            if ((int8(bStr[i]) >= 65) && (int8(bStr[i]) <= 90)) {\n                bLower[i] = bytes1(int8(bStr[i]) + 32);\n            } else {\n                bLower[i] = bStr[i];\n            }\n        }\n        return string(bLower);\n    }\n}",
  "sourcePath": "contracts/Distributions_v0.sol",
  "abi": [
    {
      "anonymous": false,
      "inputs": [
        {
          "indexed": false,
          "internalType": "uint256",
          "name": "round",
          "type": "uint256"
        },
        {
          "indexed": false,
          "internalType": "uint256",
          "name": "totalPoints",
          "type": "uint256"
        }
      ],
      "name": "AdvanceRound",
      "type": "event"
    },
    {
      "anonymous": false,
      "inputs": [
        {
          "indexed": false,
          "internalType": "uint256",
          "name": "round",
          "type": "uint256"
        },
        {
          "indexed": true,
          "internalType": "address",
          "name": "user",
          "type": "address"
        },
        {
          "indexed": false,
          "internalType": "uint256",
          "name": "points",
          "type": "uint256"
        }
      ],
      "name": "ClaimPoints",
      "type": "event"
    },
    {
      "anonymous": false,
      "inputs": [
        {
          "indexed": true,
          "internalType": "address",
          "name": "previousOwner",
          "type": "address"
        },
        {
          "indexed": true,
          "internalType": "address",
          "name": "newOwner",
          "type": "address"
        }
      ],
      "name": "OwnershipTransferred",
      "type": "event"
    },
    {
      "anonymous": false,
      "inputs": [
        {
          "indexed": true,
          "internalType": "address",
          "name": "oldRelayHub",
          "type": "address"
        },
        {
          "indexed": true,
          "internalType": "address",
          "name": "newRelayHub",
          "type": "address"
        }
      ],
      "name": "RelayHubChanged",
      "type": "event"
    },
    {
      "anonymous": false,
      "inputs": [
        {
          "indexed": false,
          "internalType": "address",
          "name": "signer",
          "type": "address"
        }
      ],
      "name": "SignerUpdated",
      "type": "event"
    },
    {
      "constant": true,
      "inputs": [
        {
          "internalType": "address",
          "name": "relay",
          "type": "address"
        },
        {
          "internalType": "address",
          "name": "from",
          "type": "address"
        },
        {
          "internalType": "bytes",
          "name": "encodedFunction",
          "type": "bytes"
        },
        {
          "internalType": "uint256",
          "name": "transactionFee",
          "type": "uint256"
        },
        {
          "internalType": "uint256",
          "name": "gasPrice",
          "type": "uint256"
        },
        {
          "internalType": "uint256",
          "name": "gasLimit",
          "type": "uint256"
        },
        {
          "internalType": "uint256",
          "name": "nonce",
          "type": "uint256"
        },
        {
          "internalType": "bytes",
          "name": "approvalData",
          "type": "bytes"
        },
        {
          "internalType": "uint256",
          "name": "",
          "type": "uint256"
        }
      ],
      "name": "acceptRelayedCall",
      "outputs": [
        {
          "internalType": "uint256",
          "name": "",
          "type": "uint256"
        },
        {
          "internalType": "bytes",
          "name": "",
          "type": "bytes"
        }
      ],
      "payable": false,
      "stateMutability": "view",
      "type": "function"
    },
    {
      "constant": false,
      "inputs": [
        {
          "internalType": "uint256",
          "name": "round",
          "type": "uint256"
        },
        {
          "internalType": "uint256",
          "name": "_roundPoints",
          "type": "uint256"
        },
        {
          "internalType": "uint256",
          "name": "_totalKarma",
          "type": "uint256"
        }
      ],
      "name": "advanceToRound",
      "outputs": [],
      "payable": false,
      "stateMutability": "nonpayable",
      "type": "function"
    },
    {
      "constant": false,
      "inputs": [
        {
          "internalType": "uint256",
          "name": "round",
          "type": "uint256"
        },
        {
          "internalType": "address",
          "name": "account",
          "type": "address"
        },
        {
          "internalType": "uint256",
          "name": "karma",
          "type": "uint256"
        }
      ],
      "name": "claim",
      "outputs": [],
      "payable": false,
      "stateMutability": "nonpayable",
      "type": "function"
    },
    {
      "constant": true,
      "inputs": [],
      "name": "getHubAddr",
      "outputs": [
        {
          "internalType": "address",
          "name": "",
          "type": "address"
        }
      ],
      "payable": false,
      "stateMutability": "view",
      "type": "function"
    },
    {
      "constant": true,
      "inputs": [],
      "name": "initialSupply",
      "outputs": [
        {
          "internalType": "uint256",
          "name": "",
          "type": "uint256"
        }
      ],
      "payable": false,
      "stateMutability": "view",
      "type": "function"
    },
    {
      "constant": false,
      "inputs": [
        {
          "internalType": "address",
          "name": "owner_",
          "type": "address"
        },
        {
          "internalType": "address",
          "name": "subredditPoints_",
          "type": "address"
        },
        {
          "internalType": "uint256",
          "name": "initialSupply_",
          "type": "uint256"
        },
        {
          "internalType": "uint256",
          "name": "initialKarma_",
          "type": "uint256"
        },
        {
          "internalType": "address",
          "name": "gsnApprover_",
          "type": "address"
        }
      ],
      "name": "initialize",
      "outputs": [],
      "payable": false,
      "stateMutability": "nonpayable",
      "type": "function"
    },
    {
      "constant": false,
      "inputs": [],
      "name": "initialize",
      "outputs": [],
      "payable": false,
      "stateMutability": "nonpayable",
      "type": "function"
    },
    {
      "constant": false,
      "inputs": [
        {
          "internalType": "address",
          "name": "trustedSigner",
          "type": "address"
        }
      ],
      "name": "initialize",
      "outputs": [],
      "payable": false,
      "stateMutability": "nonpayable",
      "type": "function"
    },
    {
      "constant": true,
      "inputs": [],
      "name": "isOwner",
      "outputs": [
        {
          "internalType": "bool",
          "name": "",
          "type": "bool"
        }
      ],
      "payable": false,
      "stateMutability": "view",
      "type": "function"
    },
    {
      "constant": true,
      "inputs": [],
      "name": "owner",
      "outputs": [
        {
          "internalType": "address",
          "name": "",
          "type": "address"
        }
      ],
      "payable": false,
      "stateMutability": "view",
      "type": "function"
    },
    {
      "constant": false,
      "inputs": [
        {
          "internalType": "bytes",
          "name": "context",
          "type": "bytes"
        },
        {
          "internalType": "bool",
          "name": "success",
          "type": "bool"
        },
        {
          "internalType": "uint256",
          "name": "actualCharge",
          "type": "uint256"
        },
        {
          "internalType": "bytes32",
          "name": "preRetVal",
          "type": "bytes32"
        }
      ],
      "name": "postRelayedCall",
      "outputs": [],
      "payable": false,
      "stateMutability": "nonpayable",
      "type": "function"
    },
    {
      "constant": false,
      "inputs": [
        {
          "internalType": "bytes",
          "name": "context",
          "type": "bytes"
        }
      ],
      "name": "preRelayedCall",
      "outputs": [
        {
          "internalType": "bytes32",
          "name": "",
          "type": "bytes32"
        }
      ],
      "payable": false,
      "stateMutability": "nonpayable",
      "type": "function"
    },
    {
      "constant": true,
      "inputs": [],
      "name": "relayHubVersion",
      "outputs": [
        {
          "internalType": "string",
          "name": "",
          "type": "string"
        }
      ],
      "payable": false,
      "stateMutability": "view",
      "type": "function"
    },
    {
      "constant": false,
      "inputs": [],
      "name": "renounceOwnership",
      "outputs": [],
      "payable": false,
      "stateMutability": "nonpayable",
      "type": "function"
    },
    {
      "constant": false,
      "inputs": [],
      "name": "setDefaultRelayHub",
      "outputs": [],
      "payable": false,
      "stateMutability": "nonpayable",
      "type": "function"
    },
    {
      "constant": true,
      "inputs": [],
      "name": "subreddit",
      "outputs": [
        {
          "internalType": "string",
          "name": "",
          "type": "string"
        }
      ],
      "payable": false,
      "stateMutability": "view",
      "type": "function"
    },
    {
      "constant": true,
      "inputs": [],
      "name": "subredditPoints",
      "outputs": [
        {
          "internalType": "address",
          "name": "",
          "type": "address"
        }
      ],
      "payable": false,
      "stateMutability": "view",
      "type": "function"
    },
    {
      "constant": false,
      "inputs": [
        {
          "internalType": "address",
          "name": "newOwner",
          "type": "address"
        }
      ],
      "name": "transferOwnership",
      "outputs": [],
      "payable": false,
      "stateMutability": "nonpayable",
      "type": "function"
    }
  ],
  "bytecode": "0x60806040526128d4806100136000396000f3fe608060405234801561001057600080fd5b50600436106101165760003560e01c806389304061116100a2578063ba1454ae11610071578063ba1454ae14610618578063bdc330cb1461065a578063c4d66de8146106dd578063e06e0e2214610721578063f2fde38b146107ba57610116565b806389304061146104df5780638da5cb5b146105295780638f32d59b14610573578063ad61ccd51461059557610116565b8063715018a6116100e9578063715018a61461023357806374e861d61461023d57806380274db7146102875780638129fc1c1461031457806383947ea01461031e57610116565b80631220e2ff1461011b578063378dc3dc1461012557806357fb25cc146101435780635e737548146101db575b600080fd5b6101236107fe565b005b61012d61081d565b6040518082815260200191505060405180910390f35b6101d9600480360360a081101561015957600080fd5b81019080803573ffffffffffffffffffffffffffffffffffffffff169060200190929190803573ffffffffffffffffffffffffffffffffffffffff1690602001909291908035906020019092919080359060200190929190803573ffffffffffffffffffffffffffffffffffffffff169060200190929190505050610823565b005b610231600480360360608110156101f157600080fd5b8101908080359060200190929190803573ffffffffffffffffffffffffffffffffffffffff16906020019092919080359060200190929190505050610c98565b005b61023b610f92565b005b6102456110cd565b604051808273ffffffffffffffffffffffffffffffffffffffff1673ffffffffffffffffffffffffffffffffffffffff16815260200191505060405180910390f35b6102fe6004803603602081101561029d57600080fd5b81019080803590602001906401000000008111156102ba57600080fd5b8201836020820111156102cc57600080fd5b803590602001918460018302840111640100000000831117156102ee57600080fd5b90919293919293905050506110f7565b6040518082815260200191505060405180910390f35b61031c6111d9565b005b61045d600480360361012081101561033557600080fd5b81019080803573ffffffffffffffffffffffffffffffffffffffff169060200190929190803573ffffffffffffffffffffffffffffffffffffffff1690602001909291908035906020019064010000000081111561039257600080fd5b8201836020820111156103a457600080fd5b803590602001918460018302840111640100000000831117156103c657600080fd5b9091929391929390803590602001909291908035906020019092919080359060200190929190803590602001909291908035906020019064010000000081111561040f57600080fd5b82018360208201111561042157600080fd5b8035906020019184600183028401116401000000008311171561044357600080fd5b909192939192939080359060200190929190505050611338565b6040518083815260200180602001828103825283818151815260200191508051906020019080838360005b838110156104a3578082015181840152602081019050610488565b50505050905090810190601f1680156104d05780820380516001836020036101000a031916815260200191505b50935050505060405180910390f35b6104e761156d565b604051808273ffffffffffffffffffffffffffffffffffffffff1673ffffffffffffffffffffffffffffffffffffffff16815260200191505060405180910390f35b610531611593565b604051808273ffffffffffffffffffffffffffffffffffffffff1673ffffffffffffffffffffffffffffffffffffffff16815260200191505060405180910390f35b61057b6115bd565b604051808215151515815260200191505060405180910390f35b61059d61161c565b6040518080602001828103825283818151815260200191508051906020019080838360005b838110156105dd5780820151818401526020810190506105c2565b50505050905090810190601f16801561060a5780820380516001836020036101000a031916815260200191505b509250505060405180910390f35b6106586004803603606081101561062e57600080fd5b81019080803590602001909291908035906020019092919080359060200190929190505050611659565b005b610662611735565b6040518080602001828103825283818151815260200191508051906020019080838360005b838110156106a2578082015181840152602081019050610687565b50505050905090810190601f1680156106cf5780820380516001836020036101000a031916815260200191505b509250505060405180910390f35b61071f600480360360208110156106f357600080fd5b81019080803573ffffffffffffffffffffffffffffffffffffffff1690602001909291905050506117d3565b005b6107b86004803603608081101561073757600080fd5b810190808035906020019064010000000081111561075457600080fd5b82018360208201111561076657600080fd5b8035906020019184600183028401116401000000008311171561078857600080fd5b909192939192939080351515906020019092919080359060200190929190803590602001909291905050506118e4565b005b6107fc600480360360208110156107d057600080fd5b81019080803573ffffffffffffffffffffffffffffffffffffffff1690602001909291905050506119c6565b005b61081b73d216153c06e857cd7f72665e0af1d7d82172f494611a4c565b565b606c5481565b600060019054906101000a900460ff16806108425750610841611c1d565b5b8061085957506000809054906101000a900460ff16155b6108ae576040517f08c379a000000000000000000000000000000000000000000000000000000000815260040180806020018281038252602e815260200180612795602e913960400191505060405180910390fd5b60008060019054906101000a900460ff1615905080156108fe576001600060016101000a81548160ff02191690831515021790555060016000806101000a81548160ff0219169083151502179055505b600073ffffffffffffffffffffffffffffffffffffffff168673ffffffffffffffffffffffffffffffffffffffff161415610984576040517f08c379a000000000000000000000000000000000000000000000000000000000815260040180806020018281038252602481526020018061287c6024913960400191505060405180910390fd5b61098d86611c2e565b84606860006101000a81548173ffffffffffffffffffffffffffffffffffffffff021916908373ffffffffffffffffffffffffffffffffffffffff1602179055508473ffffffffffffffffffffffffffffffffffffffff1663bdc330cb6040518163ffffffff1660e01b815260040160006040518083038186803b158015610a1457600080fd5b505afa158015610a28573d6000803e3d6000fd5b505050506040513d6000823e3d601f19601f820116820180604052506020811015610a5257600080fd5b8101908080516040519392919084640100000000821115610a7257600080fd5b83820191506020820185811115610a8857600080fd5b8251866001820283011164010000000082111715610aa557600080fd5b8083526020830192505050908051906020019080838360005b83811015610ad9578082015181840152602081019050610abe565b50505050905090810190601f168015610b065780820380516001836020036101000a031916815260200191505b5060405250505060699080519060200190610b229291906125df565b50610bc660698054600181600116156101000203166002900480601f016020809104026020016040519081016040528092919081815260200182805460018160011615610100020316600290048015610bbc5780601f10610b9157610100808354040283529160200191610bbc565b820191906000526020600020905b815481529060010190602001808311610b9f57829003601f168201915b5050505050611dec565b606a9080519060200190610bdb9291906125df565b50610be5826117d3565b83606c819055506040518060400160405280606c54815260200184815250606b600080815260200190815260200160002060008201518160000155602082015181600101559050507f89b058ec860e65024050f0e6e93c04b4575b854e5e9938f34214c4562130a4846000606c54604051808381526020018281526020019250505060405180910390a18015610c905760008060016101000a81548160ff0219169083151502179055505b505050505050565b610ca061265f565b606b60008581526020019081526020016000206040518060400160405290816000820154815260200160018201548152505090506000816000015111610d31576040517f08c379a000000000000000000000000000000000000000000000000000000000815260040180806020018281038252602f815260200180612829602f913960400191505060405180910390fd5b6000816020015111610d8e576040517f08c379a00000000000000000000000000000000000000000000000000000000081526004018080602001828103825260268152602001806127276026913960400191505060405180910390fd5b6000610dbd8260200151610daf858560000151611f5490919063ffffffff16565b611fda90919063ffffffff16565b905060008111610e18576040517f08c379a00000000000000000000000000000000000000000000000000000000081526004018080602001828103825260348152602001806126c56034913960400191505060405180910390fd5b8373ffffffffffffffffffffffffffffffffffffffff167f25a2e12a9fce51ee2c4bc04d844e80c24a5f62ce66bf1f25e9da0ed7694d18108683604051808381526020018281526020019250505060405180910390a2606860009054906101000a900473ffffffffffffffffffffffffffffffffffffffff1673ffffffffffffffffffffffffffffffffffffffff1663ab89013b3086846040518463ffffffff1660e01b8152600401808473ffffffffffffffffffffffffffffffffffffffff1673ffffffffffffffffffffffffffffffffffffffff1681526020018373ffffffffffffffffffffffffffffffffffffffff1673ffffffffffffffffffffffffffffffffffffffff168152602001828152602001806020018060200183810383526000815260200160200183810382526000815260200160200195505050505050600060405180830381600087803b158015610f7357600080fd5b505af1158015610f87573d6000803e3d6000fd5b505050505050505050565b610f9a6115bd565b61100c576040517f08c379a00000000000000000000000000000000000000000000000000000000081526004018080602001828103825260208152602001807f4f776e61626c653a2063616c6c6572206973206e6f7420746865206f776e657281525060200191505060405180910390fd5b600073ffffffffffffffffffffffffffffffffffffffff16603360009054906101000a900473ffffffffffffffffffffffffffffffffffffffff1673ffffffffffffffffffffffffffffffffffffffff167f8be0079c531659141344cd1fd0a4f28419497f9722a3daafe3b4186f6b6457e060405160405180910390a36000603360006101000a81548173ffffffffffffffffffffffffffffffffffffffff021916908373ffffffffffffffffffffffffffffffffffffffff160217905550565b6000606660009054906101000a900473ffffffffffffffffffffffffffffffffffffffff16905090565b60006111016110cd565b73ffffffffffffffffffffffffffffffffffffffff163373ffffffffffffffffffffffffffffffffffffffff1614611184576040517f08c379a00000000000000000000000000000000000000000000000000000000081526004018080602001828103825260248152602001806128586024913960400191505060405180910390fd5b6111d183838080601f016020809104026020016040519081016040528093929190818152602001838380828437600081840152601f19601f82011690508083019250505050505050612024565b905092915050565b600060019054906101000a900460ff16806111f857506111f7611c1d565b5b8061120f57506000809054906101000a900460ff16155b611264576040517f08c379a000000000000000000000000000000000000000000000000000000000815260040180806020018281038252602e815260200180612795602e913960400191505060405180910390fd5b60008060019054906101000a900460ff1615905080156112b4576001600060016101000a81548160ff02191690831515021790555060016000806101000a81548160ff0219169083151502179055505b600073ffffffffffffffffffffffffffffffffffffffff16606660009054906101000a900473ffffffffffffffffffffffffffffffffffffffff1673ffffffffffffffffffffffffffffffffffffffff161415611314576113136107fe565b5b80156113355760008060016101000a81548160ff0219169083151502179055505b50565b60006060808d8d8d8d8d8d8d8d61134d6110cd565b30604051602001808b73ffffffffffffffffffffffffffffffffffffffff1673ffffffffffffffffffffffffffffffffffffffff1681526020018a73ffffffffffffffffffffffffffffffffffffffff1673ffffffffffffffffffffffffffffffffffffffff168152602001806020018881526020018781526020018681526020018581526020018473ffffffffffffffffffffffffffffffffffffffff1673ffffffffffffffffffffffffffffffffffffffff1681526020018373ffffffffffffffffffffffffffffffffffffffff1673ffffffffffffffffffffffffffffffffffffffff16815260200182810382528a8a82818152602001925080828437600081840152601f19601f8201169050808301925050509b5050505050505050505050506040516020818303038152906040529050606760009054906101000a900473ffffffffffffffffffffffffffffffffffffffff1673ffffffffffffffffffffffffffffffffffffffff1661152187878080601f016020809104026020016040519081016040528093929190818152602001838380828437600081840152601f19601f82011690508083019250505050505050611513848051906020012061202b565b61208390919063ffffffff16565b73ffffffffffffffffffffffffffffffffffffffff16141561154f57611545612187565b925092505061155d565b611557612187565b92509250505b9b509b9950505050505050505050565b606860009054906101000a900473ffffffffffffffffffffffffffffffffffffffff1681565b6000603360009054906101000a900473ffffffffffffffffffffffffffffffffffffffff16905090565b6000603360009054906101000a900473ffffffffffffffffffffffffffffffffffffffff1673ffffffffffffffffffffffffffffffffffffffff166116006121ab565b73ffffffffffffffffffffffffffffffffffffffff1614905090565b60606040518060400160405280600581526020017f312e302e30000000000000000000000000000000000000000000000000000000815250905090565b600081116116b2576040517f08c379a000000000000000000000000000000000000000000000000000000000815260040180806020018281038252602781526020018061276e6027913960400191505060405180910390fd5b604051806040016040528083815260200182815250606b600085815260200190815260200160002060008201518160000155602082015181600101559050507f89b058ec860e65024050f0e6e93c04b4575b854e5e9938f34214c4562130a4848383604051808381526020018281526020019250505060405180910390a1505050565b60698054600181600116156101000203166002900480601f0160208091040260200160405190810160405280929190818152602001828054600181600116156101000203166002900480156117cb5780601f106117a0576101008083540402835291602001916117cb565b820191906000526020600020905b8154815290600101906020018083116117ae57829003601f168201915b505050505081565b600060019054906101000a900460ff16806117f257506117f1611c1d565b5b8061180957506000809054906101000a900460ff16155b61185e576040517f08c379a000000000000000000000000000000000000000000000000000000000815260040180806020018281038252602e815260200180612795602e913960400191505060405180910390fd5b60008060019054906101000a900460ff1615905080156118ae576001600060016101000a81548160ff02191690831515021790555060016000806101000a81548160ff0219169083151502179055505b6118b782612218565b6118bf6111d9565b80156118e05760008060016101000a81548160ff0219169083151502179055505b5050565b6118ec6110cd565b73ffffffffffffffffffffffffffffffffffffffff163373ffffffffffffffffffffffffffffffffffffffff161461196f576040517f08c379a00000000000000000000000000000000000000000000000000000000081526004018080602001828103825260248152602001806128586024913960400191505060405180910390fd5b6119bf85858080601f016020809104026020016040519081016040528093929190818152602001838380828437600081840152601f19601f82011690508083019250505050505050848484612345565b5050505050565b6119ce6115bd565b611a40576040517f08c379a00000000000000000000000000000000000000000000000000000000081526004018080602001828103825260208152602001807f4f776e61626c653a2063616c6c6572206973206e6f7420746865206f776e657281525060200191505060405180910390fd5b611a498161234b565b50565b6000606660009054906101000a900473ffffffffffffffffffffffffffffffffffffffff169050600073ffffffffffffffffffffffffffffffffffffffff168273ffffffffffffffffffffffffffffffffffffffff161415611af9576040517f08c379a000000000000000000000000000000000000000000000000000000000815260040180806020018281038252602e8152602001806126f9602e913960400191505060405180910390fd5b8073ffffffffffffffffffffffffffffffffffffffff168273ffffffffffffffffffffffffffffffffffffffff161415611b7e576040517f08c379a000000000000000000000000000000000000000000000000000000000815260040180806020018281038252602d8152602001806127c3602d913960400191505060405180910390fd5b8173ffffffffffffffffffffffffffffffffffffffff168173ffffffffffffffffffffffffffffffffffffffff167fb9f84b8e65164b14439ae3620df0a4d8786d896996c0282b683f9d8c08f046e860405160405180910390a381606660006101000a81548173ffffffffffffffffffffffffffffffffffffffff021916908373ffffffffffffffffffffffffffffffffffffffff1602179055505050565b600080303b90506000811491505090565b600060019054906101000a900460ff1680611c4d5750611c4c611c1d565b5b80611c6457506000809054906101000a900460ff16155b611cb9576040517f08c379a000000000000000000000000000000000000000000000000000000000815260040180806020018281038252602e815260200180612795602e913960400191505060405180910390fd5b60008060019054906101000a900460ff161590508015611d09576001600060016101000a81548160ff02191690831515021790555060016000806101000a81548160ff0219169083151502179055505b81603360006101000a81548173ffffffffffffffffffffffffffffffffffffffff021916908373ffffffffffffffffffffffffffffffffffffffff160217905550603360009054906101000a900473ffffffffffffffffffffffffffffffffffffffff1673ffffffffffffffffffffffffffffffffffffffff16600073ffffffffffffffffffffffffffffffffffffffff167f8be0079c531659141344cd1fd0a4f28419497f9722a3daafe3b4186f6b6457e060405160405180910390a38015611de85760008060016101000a81548160ff0219169083151502179055505b5050565b606080829050606081516040519080825280601f01601f191660200182016040528015611e285781602001600182028038833980820191505090505b50905060008090505b8251811015611f49576041838281518110611e4857fe5b602001015160f81c60f81b60f81c60000b12158015611e845750605a838281518110611e7057fe5b602001015160f81c60f81b60f81c60000b13155b15611ee9576020838281518110611e9757fe5b602001015160f81c60f81b60f81c0160f81b828281518110611eb557fe5b60200101907effffffffffffffffffffffffffffffffffffffffffffffffffffffffffffff1916908160001a905350611f3c565b828181518110611ef557fe5b602001015160f81c60f81b828281518110611f0c57fe5b60200101907effffffffffffffffffffffffffffffffffffffffffffffffffffffffffffff1916908160001a9053505b8080600101915050611e31565b508092505050919050565b600080831415611f675760009050611fd4565b6000828402905082848281611f7857fe5b0414611fcf576040517f08c379a000000000000000000000000000000000000000000000000000000000815260040180806020018281038252602181526020018061274d6021913960400191505060405180910390fd5b809150505b92915050565b600061201c83836040518060400160405280601a81526020017f536166654d6174683a206469766973696f6e206279207a65726f000000000000815250612491565b905092915050565b6000919050565b60008160405160200180807f19457468657265756d205369676e6564204d6573736167653a0a333200000000815250601c01828152602001915050604051602081830303815290604052805190602001209050919050565b600060418251146120975760009050612181565b60008060006020850151925060408501519150606085015160001a90507f7fffffffffffffffffffffffffffffff5d576e7357a4501ddfe92f46681b20a08260001c11156120eb5760009350505050612181565b601b8160ff16141580156121035750601c8160ff1614155b156121145760009350505050612181565b60018682858560405160008152602001604052604051808581526020018460ff1660ff1681526020018381526020018281526020019450505050506020604051602081039080840390855afa158015612171573d6000803e3d6000fd5b5050506020604051035193505050505b92915050565b600060606121a360405180602001604052806000815250612557565b915091509091565b6000606660009054906101000a900473ffffffffffffffffffffffffffffffffffffffff1673ffffffffffffffffffffffffffffffffffffffff163373ffffffffffffffffffffffffffffffffffffffff161461220a57339050612215565b612212612567565b90505b90565b600073ffffffffffffffffffffffffffffffffffffffff168173ffffffffffffffffffffffffffffffffffffffff16141561229e576040517f08c379a00000000000000000000000000000000000000000000000000000000081526004018080602001828103825260398152602001806127f06039913960400191505060405180910390fd5b80606760006101000a81548173ffffffffffffffffffffffffffffffffffffffff021916908373ffffffffffffffffffffffffffffffffffffffff1602179055507f5553331329228fbd4123164423717a4a7539f6dfa1c3279a923b98fd681a6c7381604051808273ffffffffffffffffffffffffffffffffffffffff1673ffffffffffffffffffffffffffffffffffffffff16815260200191505060405180910390a150565b50505050565b600073ffffffffffffffffffffffffffffffffffffffff168173ffffffffffffffffffffffffffffffffffffffff1614156123d1576040517f08c379a000000000000000000000000000000000000000000000000000000000815260040180806020018281038252602681526020018061269f6026913960400191505060405180910390fd5b8073ffffffffffffffffffffffffffffffffffffffff16603360009054906101000a900473ffffffffffffffffffffffffffffffffffffffff1673ffffffffffffffffffffffffffffffffffffffff167f8be0079c531659141344cd1fd0a4f28419497f9722a3daafe3b4186f6b6457e060405160405180910390a380603360006101000a81548173ffffffffffffffffffffffffffffffffffffffff021916908373ffffffffffffffffffffffffffffffffffffffff16021790555050565b6000808311829061253d576040517f08c379a00000000000000000000000000000000000000000000000000000000081526004018080602001828103825283818151815260200191508051906020019080838360005b838110156125025780820151818401526020810190506124e7565b50505050905090810190601f16801561252f5780820380516001836020036101000a031916815260200191505b509250505060405180910390fd5b50600083858161254957fe5b049050809150509392505050565b6000606060008391509150915091565b600060606000368080601f016020809104026020016040519081016040528093929190818152602001838380828437600081840152601f19601f820116905080830192505050505050509050600080369050905073ffffffffffffffffffffffffffffffffffffffff81830151169250829250505090565b828054600181600116156101000203166002900490600052602060002090601f016020900481019282601f1061262057805160ff191683800117855561264e565b8280016001018555821561264e579182015b8281111561264d578251825591602001919060010190612632565b5b50905061265b9190612679565b5090565b604051806040016040528060008152602001600081525090565b61269b91905b8082111561269757600081600090555060010161267f565b5090565b9056fe4f776e61626c653a206e6577206f776e657220697320746865207a65726f2061646472657373446973747269627574696f6e733a2075736572206b61726d6120697320746f6f206c6f7720746f20636c61696d20706f696e747347534e526563697069656e743a206e65772052656c617948756220697320746865207a65726f2061646472657373446973747269627574696f6e733a207468697320726f756e6420686173206e6f206b61726d61536166654d6174683a206d756c7469706c69636174696f6e206f766572666c6f77446973747269627574696f6e733a20746f74616c4b61726d612073686f756c64206265203e2030436f6e747261637420696e7374616e63652068617320616c7265616479206265656e20696e697469616c697a656447534e526563697069656e743a206e65772052656c6179487562206973207468652063757272656e74206f6e6547534e526563697069656e745369676e61747572653a2074727573746564207369676e657220697320746865207a65726f2061646472657373446973747269627574696f6e733a206e6f20706f696e747320746f20636c61696d20696e207468697320726f756e6447534e526563697069656e743a2063616c6c6572206973206e6f742052656c6179487562446973747269627574696f6e733a206f776e65722073686f756c64206e6f742062652030a265627a7a72315820f5f6731553403af5094fdda5196ae540bf108b772d66fd5fcba54df8f40a99c764736f6c63430005110032",
  "compiler": {
    "name": "solc",
    "version": "0.5.17+commit.d19bba13.Emscripten.clang",
    "optimizer": {
      "enabled": false,
      "runs": 200
    },
    "evmVersion": "petersburg"
  }
}