{
  "fileName": "Distributions_v0.sol",
  "contractName": "Distributions_v0",
  "source": "pragma solidity >=0.5.0 < 0.6.0;\n\nimport \"../contracts-package/Initializable.sol\";\nimport \"../contracts-package/Ownable.sol\";\nimport \"../contracts-package/IERC20.sol\";\n\nimport \"../libraries/ECDSA.sol\";\nimport \"../libraries/SafeMath.sol\";\nimport \"../libraries/Address.sol\";\nimport \"./ISubredditPoints.sol\";\n\ncontract Distributions_v0 is Initializable, Ownable {\n\n    struct DistributionRound {\n        uint256 availablePoints;\n        uint256 totalKarma;\n    }\n\n    event AdvanceRound(uint256 round, uint256 totalPoints);\n    event ClaimPoints(uint256 round, address indexed user, uint256 points);\n\n    using SafeMath for uint256;\n    using Address for address;\n\n\n    address public subredditPoints;\n    address public karmaSource;\n    string public subreddit;\n    string private _subredditLowerCase;\n\n    mapping(uint256 => DistributionRound) private _distributionRounds;\n\n    uint256 public initialSupply;\n\n    function initializecontract (\n        address owner_,\n        address subredditPoints_,\n        uint256 initialSupply_,\n        uint256 initialKarma_,\n        address karmaSource_\n    ) external initializer {\n\n        require(owner_ != address(0), \"Distributions: owner should not be 0\");\n\n        Ownable.initialize(owner_);\n        subredditPoints = subredditPoints_;\n        subreddit = ISubredditPoints(subredditPoints_).subreddit();\n        _subredditLowerCase = _toLower(subreddit);\n        initialSupply = initialSupply_;\n        karmaSource = karmaSource_;\n\n        _distributionRounds[0] = DistributionRound({\n            availablePoints: initialSupply,\n            totalKarma: initialKarma_\n        });\n\n\n        emit AdvanceRound(0, initialSupply);\n    }\n\n    \n    \n    function claim (\n        uint256 round,\n        address account,\n        uint256 karma,\n        bytes calldata signature\n    ) external {\n        address signedBy = verifySignature(account, round, karma, signature);\n\n        require(\n            signedBy == karmaSource,\n            \"Distributions: claim is not signed by the karma source\"\n        );\n\n\n        DistributionRound memory dr = _distributionRounds[round];\n\n        require(dr.availablePoints > 0, \"Distributions: no points to claim in this round\");\n        require(dr.totalKarma > 0, \"Distributions: this round has no karma\");\n\n        uint256 userPoints = dr.availablePoints\n            .mul(karma)\n            .div(dr.totalKarma);\n\n        require(userPoints > 0, \"Distributions: user karma is too low to claim points\");\n\n        emit ClaimPoints(round, account, userPoints);\n        ISubredditPoints(subredditPoints).mint(address(this), account, userPoints, \"\", \"\");\n    }\n\n    function advanceToRound(uint256 round, uint256 _roundPoints,uint256 _totalKarma) external {\n\n        require(_totalKarma > 0, \"Distributions: totalKarma should be > 0\");\n\n        // @poc: add new distribution round\n        _distributionRounds[round] = DistributionRound({\n            availablePoints: _roundPoints,\n            totalKarma: _totalKarma\n        });\n\n        emit AdvanceRound(round, _roundPoints);\n\n    }\n\n    function verifySignature(\n        address account,\n        uint256 round,\n        uint256 karma,\n        bytes memory signature\n    ) public view returns (address) {\n        bytes32 hash = keccak256(\n            abi.encode(_subredditLowerCase, uint256(round), account, karma)\n        );\n        bytes32 prefixedHash = ECDSA.toEthSignedMessageHash(hash);\n        return ECDSA.recover(prefixedHash, signature);\n    }\n\n    function _toLower(string memory str) internal pure returns (string memory) {\n        bytes memory bStr = bytes(str);\n        bytes memory bLower = new bytes(bStr.length);\n        for (uint i = 0; i < bStr.length; i++) {\n            if ((int8(bStr[i]) >= 65) && (int8(bStr[i]) <= 90)) {\n                bLower[i] = bytes1(int8(bStr[i]) + 32);\n            } else {\n                bLower[i] = bStr[i];\n            }\n        }\n        return string(bLower);\n    }\n}",
  "sourcePath": "contracts/child/Distributions_v0.sol",
  "abi": [
    {
      "anonymous": false,
      "inputs": [
        {
          "indexed": false,
          "internalType": "uint256",
          "name": "round",
          "type": "uint256"
        },
        {
          "indexed": false,
          "internalType": "uint256",
          "name": "totalPoints",
          "type": "uint256"
        }
      ],
      "name": "AdvanceRound",
      "type": "event"
    },
    {
      "anonymous": false,
      "inputs": [
        {
          "indexed": false,
          "internalType": "uint256",
          "name": "round",
          "type": "uint256"
        },
        {
          "indexed": true,
          "internalType": "address",
          "name": "user",
          "type": "address"
        },
        {
          "indexed": false,
          "internalType": "uint256",
          "name": "points",
          "type": "uint256"
        }
      ],
      "name": "ClaimPoints",
      "type": "event"
    },
    {
      "anonymous": false,
      "inputs": [
        {
          "indexed": true,
          "internalType": "address",
          "name": "previousOwner",
          "type": "address"
        },
        {
          "indexed": true,
          "internalType": "address",
          "name": "newOwner",
          "type": "address"
        }
      ],
      "name": "OwnershipTransferred",
      "type": "event"
    },
    {
      "constant": false,
      "inputs": [
        {
          "internalType": "uint256",
          "name": "round",
          "type": "uint256"
        },
        {
          "internalType": "uint256",
          "name": "_roundPoints",
          "type": "uint256"
        },
        {
          "internalType": "uint256",
          "name": "_totalKarma",
          "type": "uint256"
        }
      ],
      "name": "advanceToRound",
      "outputs": [],
      "payable": false,
      "stateMutability": "nonpayable",
      "type": "function"
    },
    {
      "constant": false,
      "inputs": [
        {
          "internalType": "uint256",
          "name": "round",
          "type": "uint256"
        },
        {
          "internalType": "address",
          "name": "account",
          "type": "address"
        },
        {
          "internalType": "uint256",
          "name": "karma",
          "type": "uint256"
        },
        {
          "internalType": "bytes",
          "name": "signature",
          "type": "bytes"
        }
      ],
      "name": "claim",
      "outputs": [],
      "payable": false,
      "stateMutability": "nonpayable",
      "type": "function"
    },
    {
      "constant": true,
      "inputs": [],
      "name": "initialSupply",
      "outputs": [
        {
          "internalType": "uint256",
          "name": "",
          "type": "uint256"
        }
      ],
      "payable": false,
      "stateMutability": "view",
      "type": "function"
    },
    {
      "constant": false,
      "inputs": [
        {
          "internalType": "address",
          "name": "sender",
          "type": "address"
        }
      ],
      "name": "initialize",
      "outputs": [],
      "payable": false,
      "stateMutability": "nonpayable",
      "type": "function"
    },
    {
      "constant": false,
      "inputs": [
        {
          "internalType": "address",
          "name": "owner_",
          "type": "address"
        },
        {
          "internalType": "address",
          "name": "subredditPoints_",
          "type": "address"
        },
        {
          "internalType": "uint256",
          "name": "initialSupply_",
          "type": "uint256"
        },
        {
          "internalType": "uint256",
          "name": "initialKarma_",
          "type": "uint256"
        },
        {
          "internalType": "address",
          "name": "karmaSource_",
          "type": "address"
        }
      ],
      "name": "initializecontract",
      "outputs": [],
      "payable": false,
      "stateMutability": "nonpayable",
      "type": "function"
    },
    {
      "constant": true,
      "inputs": [],
      "name": "isOwner",
      "outputs": [
        {
          "internalType": "bool",
          "name": "",
          "type": "bool"
        }
      ],
      "payable": false,
      "stateMutability": "view",
      "type": "function"
    },
    {
      "constant": true,
      "inputs": [],
      "name": "karmaSource",
      "outputs": [
        {
          "internalType": "address",
          "name": "",
          "type": "address"
        }
      ],
      "payable": false,
      "stateMutability": "view",
      "type": "function"
    },
    {
      "constant": true,
      "inputs": [],
      "name": "owner",
      "outputs": [
        {
          "internalType": "address",
          "name": "",
          "type": "address"
        }
      ],
      "payable": false,
      "stateMutability": "view",
      "type": "function"
    },
    {
      "constant": false,
      "inputs": [],
      "name": "renounceOwnership",
      "outputs": [],
      "payable": false,
      "stateMutability": "nonpayable",
      "type": "function"
    },
    {
      "constant": true,
      "inputs": [],
      "name": "subreddit",
      "outputs": [
        {
          "internalType": "string",
          "name": "",
          "type": "string"
        }
      ],
      "payable": false,
      "stateMutability": "view",
      "type": "function"
    },
    {
      "constant": true,
      "inputs": [],
      "name": "subredditPoints",
      "outputs": [
        {
          "internalType": "address",
          "name": "",
          "type": "address"
        }
      ],
      "payable": false,
      "stateMutability": "view",
      "type": "function"
    },
    {
      "constant": false,
      "inputs": [
        {
          "internalType": "address",
          "name": "newOwner",
          "type": "address"
        }
      ],
      "name": "transferOwnership",
      "outputs": [],
      "payable": false,
      "stateMutability": "nonpayable",
      "type": "function"
    },
    {
      "constant": true,
      "inputs": [
        {
          "internalType": "address",
          "name": "account",
          "type": "address"
        },
        {
          "internalType": "uint256",
          "name": "round",
          "type": "uint256"
        },
        {
          "internalType": "uint256",
          "name": "karma",
          "type": "uint256"
        },
        {
          "internalType": "bytes",
          "name": "signature",
          "type": "bytes"
        }
      ],
      "name": "verifySignature",
      "outputs": [
        {
          "internalType": "address",
          "name": "",
          "type": "address"
        }
      ],
      "payable": false,
      "stateMutability": "view",
      "type": "function"
    }
  ],
  "bytecode": "0x6080604052611d76806100136000396000f3fe608060405234801561001057600080fd5b50600436106100ce5760003560e01c8063990161421161008c578063c4d66de811610066578063c4d66de81461036d578063ec0e642f146103b1578063f2fde38b146104e0578063fb687d0b14610524576100ce565b806399016142146101fb578063ba1454ae146102a8578063bdc330cb146102ea576100ce565b806215d5b1146100d3578063378dc3dc1461011d578063715018a61461013b57806389304061146101455780638da5cb5b1461018f5780638f32d59b146101d9575b600080fd5b6100db6105bc565b604051808273ffffffffffffffffffffffffffffffffffffffff1673ffffffffffffffffffffffffffffffffffffffff16815260200191505060405180910390f35b6101256105e2565b6040518082815260200191505060405180910390f35b6101436105e8565b005b61014d610723565b604051808273ffffffffffffffffffffffffffffffffffffffff1673ffffffffffffffffffffffffffffffffffffffff16815260200191505060405180910390f35b610197610749565b604051808273ffffffffffffffffffffffffffffffffffffffff1673ffffffffffffffffffffffffffffffffffffffff16815260200191505060405180910390f35b6101e1610773565b604051808215151515815260200191505060405180910390f35b6102a66004803603608081101561021157600080fd5b8101908080359060200190929190803573ffffffffffffffffffffffffffffffffffffffff169060200190929190803590602001909291908035906020019064010000000081111561026257600080fd5b82018360208201111561027457600080fd5b8035906020019184600183028401116401000000008311171561029657600080fd5b90919293919293905050506107d2565b005b6102e8600480360360608110156102be57600080fd5b81019080803590602001909291908035906020019092919080359060200190929190505050610bc9565b005b6102f2610ca5565b6040518080602001828103825283818151815260200191508051906020019080838360005b83811015610332578082015181840152602081019050610317565b50505050905090810190601f16801561035f5780820380516001836020036101000a031916815260200191505b509250505060405180910390f35b6103af6004803603602081101561038357600080fd5b81019080803573ffffffffffffffffffffffffffffffffffffffff169060200190929190505050610d43565b005b61049e600480360360808110156103c757600080fd5b81019080803573ffffffffffffffffffffffffffffffffffffffff16906020019092919080359060200190929190803590602001909291908035906020019064010000000081111561041857600080fd5b82018360208201111561042a57600080fd5b8035906020019184600183028401116401000000008311171561044c57600080fd5b91908080601f016020809104026020016040519081016040528093929190818152602001838380828437600081840152601f19601f820116905080830192505050505050509192919290505050610f01565b604051808273ffffffffffffffffffffffffffffffffffffffff1673ffffffffffffffffffffffffffffffffffffffff16815260200191505060405180910390f35b610522600480360360208110156104f657600080fd5b81019080803573ffffffffffffffffffffffffffffffffffffffff169060200190929190505050611017565b005b6105ba600480360360a081101561053a57600080fd5b81019080803573ffffffffffffffffffffffffffffffffffffffff169060200190929190803573ffffffffffffffffffffffffffffffffffffffff1690602001909291908035906020019092919080359060200190929190803573ffffffffffffffffffffffffffffffffffffffff16906020019092919050505061109d565b005b606760009054906101000a900473ffffffffffffffffffffffffffffffffffffffff1681565b606b5481565b6105f0610773565b610662576040517f08c379a00000000000000000000000000000000000000000000000000000000081526004018080602001828103825260208152602001807f4f776e61626c653a2063616c6c6572206973206e6f7420746865206f776e657281525060200191505060405180910390fd5b600073ffffffffffffffffffffffffffffffffffffffff16603360009054906101000a900473ffffffffffffffffffffffffffffffffffffffff1673ffffffffffffffffffffffffffffffffffffffff167f8be0079c531659141344cd1fd0a4f28419497f9722a3daafe3b4186f6b6457e060405160405180910390a36000603360006101000a81548173ffffffffffffffffffffffffffffffffffffffff021916908373ffffffffffffffffffffffffffffffffffffffff160217905550565b606660009054906101000a900473ffffffffffffffffffffffffffffffffffffffff1681565b6000603360009054906101000a900473ffffffffffffffffffffffffffffffffffffffff16905090565b6000603360009054906101000a900473ffffffffffffffffffffffffffffffffffffffff1673ffffffffffffffffffffffffffffffffffffffff166107b661154a565b73ffffffffffffffffffffffffffffffffffffffff1614905090565b600061082485878686868080601f016020809104026020016040519081016040528093929190818152602001838380828437600081840152601f19601f82011690508083019250505050505050610f01565b9050606760009054906101000a900473ffffffffffffffffffffffffffffffffffffffff1673ffffffffffffffffffffffffffffffffffffffff168173ffffffffffffffffffffffffffffffffffffffff16146108cc576040517f08c379a0000000000000000000000000000000000000000000000000000000008152600401808060200182810382526036815260200180611ce86036913960400191505060405180910390fd5b6108d4611b03565b606a60008881526020019081526020016000206040518060400160405290816000820154815260200160018201548152505090506000816000015111610965576040517f08c379a000000000000000000000000000000000000000000000000000000000815260040180806020018281038252602f815260200180611cb9602f913960400191505060405180910390fd5b60008160200151116109c2576040517f08c379a0000000000000000000000000000000000000000000000000000000008152600401808060200182810382526026815260200180611c1d6026913960400191505060405180910390fd5b60006109f182602001516109e388856000015161155290919063ffffffff16565b6115d890919063ffffffff16565b905060008111610a4c576040517f08c379a0000000000000000000000000000000000000000000000000000000008152600401808060200182810382526034815260200180611be96034913960400191505060405180910390fd5b8673ffffffffffffffffffffffffffffffffffffffff167f25a2e12a9fce51ee2c4bc04d844e80c24a5f62ce66bf1f25e9da0ed7694d18108983604051808381526020018281526020019250505060405180910390a2606660009054906101000a900473ffffffffffffffffffffffffffffffffffffffff1673ffffffffffffffffffffffffffffffffffffffff1663ab89013b3089846040518463ffffffff1660e01b8152600401808473ffffffffffffffffffffffffffffffffffffffff1673ffffffffffffffffffffffffffffffffffffffff1681526020018373ffffffffffffffffffffffffffffffffffffffff1673ffffffffffffffffffffffffffffffffffffffff168152602001828152602001806020018060200183810383526000815260200160200183810382526000815260200160200195505050505050600060405180830381600087803b158015610ba757600080fd5b505af1158015610bbb573d6000803e3d6000fd5b505050505050505050505050565b60008111610c22576040517f08c379a0000000000000000000000000000000000000000000000000000000008152600401808060200182810382526027815260200180611c646027913960400191505060405180910390fd5b604051806040016040528083815260200182815250606a600085815260200190815260200160002060008201518160000155602082015181600101559050507f89b058ec860e65024050f0e6e93c04b4575b854e5e9938f34214c4562130a4848383604051808381526020018281526020019250505060405180910390a1505050565b60688054600181600116156101000203166002900480601f016020809104026020016040519081016040528092919081815260200182805460018160011615610100020316600290048015610d3b5780601f10610d1057610100808354040283529160200191610d3b565b820191906000526020600020905b815481529060010190602001808311610d1e57829003601f168201915b505050505081565b600060019054906101000a900460ff1680610d625750610d61611622565b5b80610d7957506000809054906101000a900460ff16155b610dce576040517f08c379a000000000000000000000000000000000000000000000000000000000815260040180806020018281038252602e815260200180611c8b602e913960400191505060405180910390fd5b60008060019054906101000a900460ff161590508015610e1e576001600060016101000a81548160ff02191690831515021790555060016000806101000a81548160ff0219169083151502179055505b81603360006101000a81548173ffffffffffffffffffffffffffffffffffffffff021916908373ffffffffffffffffffffffffffffffffffffffff160217905550603360009054906101000a900473ffffffffffffffffffffffffffffffffffffffff1673ffffffffffffffffffffffffffffffffffffffff16600073ffffffffffffffffffffffffffffffffffffffff167f8be0079c531659141344cd1fd0a4f28419497f9722a3daafe3b4186f6b6457e060405160405180910390a38015610efd5760008060016101000a81548160ff0219169083151502179055505b5050565b600080606985878660405160200180806020018581526020018473ffffffffffffffffffffffffffffffffffffffff1673ffffffffffffffffffffffffffffffffffffffff168152602001838152602001828103825286818154600181600116156101000203166002900481526020019150805460018160011615610100020316600290048015610fd35780601f10610fa857610100808354040283529160200191610fd3565b820191906000526020600020905b815481529060010190602001808311610fb657829003601f168201915b5050955050505050506040516020818303038152906040528051906020012090506000610fff82611633565b905061100b818561168b565b92505050949350505050565b61101f610773565b611091576040517f08c379a00000000000000000000000000000000000000000000000000000000081526004018080602001828103825260208152602001807f4f776e61626c653a2063616c6c6572206973206e6f7420746865206f776e657281525060200191505060405180910390fd5b61109a8161178f565b50565b600060019054906101000a900460ff16806110bc57506110bb611622565b5b806110d357506000809054906101000a900460ff16155b611128576040517f08c379a000000000000000000000000000000000000000000000000000000000815260040180806020018281038252602e815260200180611c8b602e913960400191505060405180910390fd5b60008060019054906101000a900460ff161590508015611178576001600060016101000a81548160ff02191690831515021790555060016000806101000a81548160ff0219169083151502179055505b600073ffffffffffffffffffffffffffffffffffffffff168673ffffffffffffffffffffffffffffffffffffffff1614156111fe576040517f08c379a0000000000000000000000000000000000000000000000000000000008152600401808060200182810382526024815260200180611d1e6024913960400191505060405180910390fd5b61120786610d43565b84606660006101000a81548173ffffffffffffffffffffffffffffffffffffffff021916908373ffffffffffffffffffffffffffffffffffffffff1602179055508473ffffffffffffffffffffffffffffffffffffffff1663bdc330cb6040518163ffffffff1660e01b815260040160006040518083038186803b15801561128e57600080fd5b505afa1580156112a2573d6000803e3d6000fd5b505050506040513d6000823e3d601f19601f8201168201806040525060208110156112cc57600080fd5b81019080805160405193929190846401000000008211156112ec57600080fd5b8382019150602082018581111561130257600080fd5b825186600182028301116401000000008211171561131f57600080fd5b8083526020830192505050908051906020019080838360005b83811015611353578082015181840152602081019050611338565b50505050905090810190601f1680156113805780820380516001836020036101000a031916815260200191505b506040525050506068908051906020019061139c929190611b1d565b5061144060688054600181600116156101000203166002900480601f0160208091040260200160405190810160405280929190818152602001828054600181600116156101000203166002900480156114365780601f1061140b57610100808354040283529160200191611436565b820191906000526020600020905b81548152906001019060200180831161141957829003601f168201915b50505050506118d5565b60699080519060200190611455929190611b1d565b5083606b8190555081606760006101000a81548173ffffffffffffffffffffffffffffffffffffffff021916908373ffffffffffffffffffffffffffffffffffffffff1602179055506040518060400160405280606b54815260200184815250606a600080815260200190815260200160002060008201518160000155602082015181600101559050507f89b058ec860e65024050f0e6e93c04b4575b854e5e9938f34214c4562130a4846000606b54604051808381526020018281526020019250505060405180910390a180156115425760008060016101000a81548160ff0219169083151502179055505b505050505050565b600033905090565b60008083141561156557600090506115d2565b600082840290508284828161157657fe5b04146115cd576040517f08c379a0000000000000000000000000000000000000000000000000000000008152600401808060200182810382526021815260200180611c436021913960400191505060405180910390fd5b809150505b92915050565b600061161a83836040518060400160405280601a81526020017f536166654d6174683a206469766973696f6e206279207a65726f000000000000815250611a3d565b905092915050565b600080303b90506000811491505090565b60008160405160200180807f19457468657265756d205369676e6564204d6573736167653a0a333200000000815250601c01828152602001915050604051602081830303815290604052805190602001209050919050565b6000604182511461169f5760009050611789565b60008060006020850151925060408501519150606085015160001a90507f7fffffffffffffffffffffffffffffff5d576e7357a4501ddfe92f46681b20a08260001c11156116f35760009350505050611789565b601b8160ff161415801561170b5750601c8160ff1614155b1561171c5760009350505050611789565b60018682858560405160008152602001604052604051808581526020018460ff1660ff1681526020018381526020018281526020019450505050506020604051602081039080840390855afa158015611779573d6000803e3d6000fd5b5050506020604051035193505050505b92915050565b600073ffffffffffffffffffffffffffffffffffffffff168173ffffffffffffffffffffffffffffffffffffffff161415611815576040517f08c379a0000000000000000000000000000000000000000000000000000000008152600401808060200182810382526026815260200180611bc36026913960400191505060405180910390fd5b8073ffffffffffffffffffffffffffffffffffffffff16603360009054906101000a900473ffffffffffffffffffffffffffffffffffffffff1673ffffffffffffffffffffffffffffffffffffffff167f8be0079c531659141344cd1fd0a4f28419497f9722a3daafe3b4186f6b6457e060405160405180910390a380603360006101000a81548173ffffffffffffffffffffffffffffffffffffffff021916908373ffffffffffffffffffffffffffffffffffffffff16021790555050565b606080829050606081516040519080825280601f01601f1916602001820160405280156119115781602001600182028038833980820191505090505b50905060008090505b8251811015611a3257604183828151811061193157fe5b602001015160f81c60f81b60f81c60000b1215801561196d5750605a83828151811061195957fe5b602001015160f81c60f81b60f81c60000b13155b156119d257602083828151811061198057fe5b602001015160f81c60f81b60f81c0160f81b82828151811061199e57fe5b60200101907effffffffffffffffffffffffffffffffffffffffffffffffffffffffffffff1916908160001a905350611a25565b8281815181106119de57fe5b602001015160f81c60f81b8282815181106119f557fe5b60200101907effffffffffffffffffffffffffffffffffffffffffffffffffffffffffffff1916908160001a9053505b808060010191505061191a565b508092505050919050565b60008083118290611ae9576040517f08c379a00000000000000000000000000000000000000000000000000000000081526004018080602001828103825283818151815260200191508051906020019080838360005b83811015611aae578082015181840152602081019050611a93565b50505050905090810190601f168015611adb5780820380516001836020036101000a031916815260200191505b509250505060405180910390fd5b506000838581611af557fe5b049050809150509392505050565b604051806040016040528060008152602001600081525090565b828054600181600116156101000203166002900490600052602060002090601f016020900481019282601f10611b5e57805160ff1916838001178555611b8c565b82800160010185558215611b8c579182015b82811115611b8b578251825591602001919060010190611b70565b5b509050611b999190611b9d565b5090565b611bbf91905b80821115611bbb576000816000905550600101611ba3565b5090565b9056fe4f776e61626c653a206e6577206f776e657220697320746865207a65726f2061646472657373446973747269627574696f6e733a2075736572206b61726d6120697320746f6f206c6f7720746f20636c61696d20706f696e7473446973747269627574696f6e733a207468697320726f756e6420686173206e6f206b61726d61536166654d6174683a206d756c7469706c69636174696f6e206f766572666c6f77446973747269627574696f6e733a20746f74616c4b61726d612073686f756c64206265203e2030436f6e747261637420696e7374616e63652068617320616c7265616479206265656e20696e697469616c697a6564446973747269627574696f6e733a206e6f20706f696e747320746f20636c61696d20696e207468697320726f756e64446973747269627574696f6e733a20636c61696d206973206e6f74207369676e656420627920746865206b61726d6120736f75726365446973747269627574696f6e733a206f776e65722073686f756c64206e6f742062652030a265627a7a72315820a62d6321099845c283f86ed6a6fa5c265b9053abdd1a186865534b2b3cf192e964736f6c63430005110032",
  "compiler": {
    "name": "solc",
    "version": "0.5.17+commit.d19bba13.Emscripten.clang",
    "optimizer": {
      "enabled": false,
      "runs": 200
    },
    "evmVersion": "petersburg"
  }
}