{
  "fileName": "MintableERC20Predicate.sol",
  "contractName": "MintableERC20Predicate",
  "source": "pragma solidity >=0.5.0 <0.6.0;\n\nimport \"../../contracts-package/IERC20.sol\";\n\nimport \"./ERC20Predicate.sol\";\n\ncontract MintableERC20Predicate is ERC20Predicate {\n    constructor(\n        address _withdrawManager,\n        address _depositManager,\n        address _registry\n    ) public ERC20Predicate(_withdrawManager, _depositManager, _registry) {}\n\n    function onFinalizeExit(bytes calldata data) external onlyWithdrawManager {\n        (\n            ,\n            address token,\n            address exitor,\n            uint256 amount\n        ) = decodeExitForProcessExit(data);\n        uint256 toTransfer = IERC20(token).balanceOf(address(depositManager));\n        if (toTransfer > 0) {\n            if (toTransfer > amount) {\n                toTransfer = amount;\n            }\n            depositManager.transferAssets(token, exitor, toTransfer);\n            amount = amount.sub(toTransfer);\n        }\n        if (amount > 0) {\n            IERC20(token).mint(exitor, amount);\n        }\n    }\n}\n",
  "sourcePath": "contracts/root/predicate/MintableERC20Predicate.sol",
  "abi": [
    {
      "inputs": [
        {
          "internalType": "address",
          "name": "_withdrawManager",
          "type": "address"
        },
        {
          "internalType": "address",
          "name": "_depositManager",
          "type": "address"
        },
        {
          "internalType": "address",
          "name": "_registry",
          "type": "address"
        }
      ],
      "payable": false,
      "stateMutability": "nonpayable",
      "type": "constructor"
    },
    {
      "constant": true,
      "inputs": [],
      "name": "CHAINID",
      "outputs": [
        {
          "internalType": "uint256",
          "name": "",
          "type": "uint256"
        }
      ],
      "payable": false,
      "stateMutability": "view",
      "type": "function"
    },
    {
      "constant": true,
      "inputs": [
        {
          "internalType": "bytes",
          "name": "state",
          "type": "bytes"
        }
      ],
      "name": "interpretStateUpdate",
      "outputs": [
        {
          "internalType": "bytes",
          "name": "",
          "type": "bytes"
        }
      ],
      "payable": false,
      "stateMutability": "view",
      "type": "function"
    },
    {
      "constant": true,
      "inputs": [],
      "name": "networkId",
      "outputs": [
        {
          "internalType": "bytes",
          "name": "",
          "type": "bytes"
        }
      ],
      "payable": false,
      "stateMutability": "view",
      "type": "function"
    },
    {
      "constant": false,
      "inputs": [
        {
          "internalType": "bytes",
          "name": "data",
          "type": "bytes"
        }
      ],
      "name": "onFinalizeExit",
      "outputs": [],
      "payable": false,
      "stateMutability": "nonpayable",
      "type": "function"
    },
    {
      "constant": false,
      "inputs": [
        {
          "internalType": "bytes",
          "name": "data",
          "type": "bytes"
        },
        {
          "internalType": "bytes",
          "name": "exitTx",
          "type": "bytes"
        }
      ],
      "name": "startExitForIncomingErc20Transfer",
      "outputs": [
        {
          "internalType": "address",
          "name": "",
          "type": "address"
        },
        {
          "internalType": "uint256",
          "name": "",
          "type": "uint256"
        }
      ],
      "payable": true,
      "stateMutability": "payable",
      "type": "function"
    },
    {
      "constant": false,
      "inputs": [
        {
          "internalType": "bytes",
          "name": "data",
          "type": "bytes"
        },
        {
          "internalType": "bytes",
          "name": "exitTx",
          "type": "bytes"
        }
      ],
      "name": "startExitForOutgoingErc20Transfer",
      "outputs": [
        {
          "internalType": "address",
          "name": "",
          "type": "address"
        },
        {
          "internalType": "uint256",
          "name": "",
          "type": "uint256"
        }
      ],
      "payable": true,
      "stateMutability": "payable",
      "type": "function"
    },
    {
      "constant": false,
      "inputs": [
        {
          "internalType": "bytes",
          "name": "data",
          "type": "bytes"
        }
      ],
      "name": "startExitWithBurntTokens",
      "outputs": [],
      "payable": false,
      "stateMutability": "nonpayable",
      "type": "function"
    },
    {
      "constant": false,
      "inputs": [
        {
          "internalType": "bytes",
          "name": "exit",
          "type": "bytes"
        },
        {
          "internalType": "bytes",
          "name": "inputUtxo",
          "type": "bytes"
        },
        {
          "internalType": "bytes",
          "name": "challengeData",
          "type": "bytes"
        }
      ],
      "name": "verifyDeprecation",
      "outputs": [
        {
          "internalType": "bool",
          "name": "",
          "type": "bool"
        }
      ],
      "payable": false,
      "stateMutability": "nonpayable",
      "type": "function"
    }
  ],
  "bytecode": "0x608060405234801561001057600080fd5b5060405162004e3838038062004e388339818101604052606081101561003557600080fd5b810190808051906020019092919080519060200190929190805190602001909291905050508282828282816000806101000a81548173ffffffffffffffffffffffffffffffffffffffff021916908373ffffffffffffffffffffffffffffffffffffffff16021790555080600160006101000a81548173ffffffffffffffffffffffffffffffffffffffff021916908373ffffffffffffffffffffffffffffffffffffffff160217905550505080600260006101000a81548173ffffffffffffffffffffffffffffffffffffffff021916908373ffffffffffffffffffffffffffffffffffffffff160217905550505050505050614cff80620001396000396000f3fe60806040526004361061007b5760003560e01c806382e3464c1161004e57806382e3464c146103b65780639025e64c146104b5578063cc79f97b14610545578063ec58410c146105705761007b565b8063378383b3146100805780633cccdaaf146101955780637bd94e03146102aa5780637c5264b414610330575b600080fd5b61014c6004803603604081101561009657600080fd5b81019080803590602001906401000000008111156100b357600080fd5b8201836020820111156100c557600080fd5b803590602001918460018302840111640100000000831117156100e757600080fd5b90919293919293908035906020019064010000000081111561010857600080fd5b82018360208201111561011a57600080fd5b8035906020019184600183028401116401000000008311171561013c57600080fd5b90919293919293905050506106b8565b604051808373ffffffffffffffffffffffffffffffffffffffff1673ffffffffffffffffffffffffffffffffffffffff1681526020018281526020019250505060405180910390f35b610261600480360360408110156101ab57600080fd5b81019080803590602001906401000000008111156101c857600080fd5b8201836020820111156101da57600080fd5b803590602001918460018302840111640100000000831117156101fc57600080fd5b90919293919293908035906020019064010000000081111561021d57600080fd5b82018360208201111561022f57600080fd5b8035906020019184600183028401116401000000008311171561025157600080fd5b90919293919293905050506110de565b604051808373ffffffffffffffffffffffffffffffffffffffff1673ffffffffffffffffffffffffffffffffffffffff1681526020018281526020019250505060405180910390f35b3480156102b657600080fd5b5061032e600480360360208110156102cd57600080fd5b81019080803590602001906401000000008111156102ea57600080fd5b8201836020820111156102fc57600080fd5b8035906020019184600183028401116401000000008311171561031e57600080fd5b9091929391929390505050611740565b005b34801561033c57600080fd5b506103b46004803603602081101561035357600080fd5b810190808035906020019064010000000081111561037057600080fd5b82018360208201111561038257600080fd5b803590602001918460018302840111640100000000831117156103a457600080fd5b9091929391929390505050611b0a565b005b3480156103c257600080fd5b5061043a600480360360208110156103d957600080fd5b81019080803590602001906401000000008111156103f657600080fd5b82018360208201111561040857600080fd5b8035906020019184600183028401116401000000008311171561042a57600080fd5b909192939192939050505061209f565b6040518080602001828103825283818151815260200191508051906020019080838360005b8381101561047a57808201518184015260208101905061045f565b50505050905090810190601f1680156104a75780820380516001836020036101000a031916815260200191505b509250505060405180910390f35b3480156104c157600080fd5b506104ca612609565b6040518080602001828103825283818151815260200191508051906020019080838360005b8381101561050a5780820151818401526020810190506104ef565b50505050905090810190601f1680156105375780820380516001836020036101000a031916815260200191505b509250505060405180910390f35b34801561055157600080fd5b5061055a612642565b6040518082815260200191505060405180910390f35b34801561057c57600080fd5b5061069e6004803603606081101561059357600080fd5b81019080803590602001906401000000008111156105b057600080fd5b8201836020820111156105c257600080fd5b803590602001918460018302840111640100000000831117156105e457600080fd5b90919293919293908035906020019064010000000081111561060557600080fd5b82018360208201111561061757600080fd5b8035906020019184600183028401116401000000008311171561063957600080fd5b90919293919293908035906020019064010000000081111561065a57600080fd5b82018360208201111561066c57600080fd5b8035906020019184600183028401116401000000008311171561068e57600080fd5b9091929391929390505050612649565b604051808215151515815260200191505060405180910390f35b60008067016345785d8a00003414610738576040517f08c379a00000000000000000000000000000000000000000000000000000000081526004018080602001828103825260138152602001807f496e76616c696420426f6e6420616d6f756e740000000000000000000000000081525060200191505060405180910390fd5b606061078f61078a88888080601f016020809104026020016040519081016040528093929190818152602001838380828437600081840152601f19601f82011690508083019250505050505050612b1a565b612b48565b90506107996148bf565b6107e686868080601f016020809104026020016040519081016040528093929190818152602001838380828437600081840152601f19601f82011690508083019250505050505050612c25565b90503373ffffffffffffffffffffffffffffffffffffffff16816060015173ffffffffffffffffffffffffffffffffffffffff16141561088e576040517f08c379a000000000000000000000000000000000000000000000000000000000815260040180806020018281038252601e8152602001807f53686f756c6420626520616e20696e636f6d696e67207472616e73666572000081525060200191505060405180910390fd5b610896614928565b6108df6108b6846006815181106108a957fe5b6020026020010151612e36565b6108d3856009815181106108c657fe5b6020026020010151612ec2565b84606001516000612f33565b9050806040015173ffffffffffffffffffffffffffffffffffffffff16826040015173ffffffffffffffffffffffffffffffffffffffff161461096d576040517f08c379a000000000000000000000000000000000000000000000000000000000815260040180806020018281038252603f815260200180614c36603f913960400191505060405180910390fd5b61097782826132be565b826000018181525050610a8781602001516000809054906101000a900473ffffffffffffffffffffffffffffffffffffffff1673ffffffffffffffffffffffffffffffffffffffff1663ad1d80698c8c6000806040518563ffffffff1660e01b815260040180806020018460ff168152602001831515151581526020018281038252868682818152602001925080828437600081840152601f19601f8201169050808301925050509550505050505060206040518083038186803b158015610a3e57600080fd5b505afa158015610a52573d6000803e3d6000fd5b505050506040513d6020811015610a6857600080fd5b81019080805190602001909291905050506133a290919063ffffffff16565b816020018181525050610a98614928565b600a84511115610d1357610ae7610ac285601081518110610ab557fe5b6020026020010151612e36565b610adf86601381518110610ad257fe5b6020026020010151612ec2565b336000612f33565b9050816040015173ffffffffffffffffffffffffffffffffffffffff16816040015173ffffffffffffffffffffffffffffffffffffffff1614610b75576040517f08c379a000000000000000000000000000000000000000000000000000000000815260040180806020018281038252602f815260200180614a99602f913960400191505060405180910390fd5b816060015173ffffffffffffffffffffffffffffffffffffffff16816060015173ffffffffffffffffffffffffffffffffffffffff1614610c01576040517f08c379a000000000000000000000000000000000000000000000000000000000815260040180806020018281038252602e815260200180614c08602e913960400191505060405180910390fd5b610d0981602001516000809054906101000a900473ffffffffffffffffffffffffffffffffffffffff1673ffffffffffffffffffffffffffffffffffffffff1663ad1d80698d8d600a60006040518563ffffffff1660e01b815260040180806020018460ff168152602001831515151581526020018281038252868682818152602001925080828437600081840152601f19601f8201169050808301925050509550505050505060206040518083038186803b158015610cc057600080fd5b505afa158015610cd4573d6000803e3d6000fd5b505050506040513d6020811015610cea57600080fd5b81019080805190602001909291905050506133a290919063ffffffff16565b8160200181815250505b610d1b6133c1565b60006001610d3184602001518460200151613433565b901b90506000809054906101000a900473ffffffffffffffffffffffffffffffffffffffff1673ffffffffffffffffffffffffffffffffffffffff1663d931a8693385604001518660600151610d9887600001518a600001516133a290919063ffffffff16565b89602001516000886040518863ffffffff1660e01b8152600401808873ffffffffffffffffffffffffffffffffffffffff1673ffffffffffffffffffffffffffffffffffffffff1681526020018773ffffffffffffffffffffffffffffffffffffffff1673ffffffffffffffffffffffffffffffffffffffff1681526020018673ffffffffffffffffffffffffffffffffffffffff1673ffffffffffffffffffffffffffffffffffffffff16815260200185815260200184815260200183151515158152602001828152602001975050505050505050600060405180830381600087803b158015610e8857600080fd5b505af1158015610e9c573d6000803e3d6000fd5b505050506000809054906101000a900473ffffffffffffffffffffffffffffffffffffffff1673ffffffffffffffffffffffffffffffffffffffff166322f192af828560200151876060015187606001516040518563ffffffff1660e01b8152600401808581526020018481526020018373ffffffffffffffffffffffffffffffffffffffff1673ffffffffffffffffffffffffffffffffffffffff1681526020018273ffffffffffffffffffffffffffffffffffffffff1673ffffffffffffffffffffffffffffffffffffffff168152602001945050505050600060405180830381600087803b158015610f9057600080fd5b505af1158015610fa4573d6000803e3d6000fd5b505050506000809054906101000a900473ffffffffffffffffffffffffffffffffffffffff1673ffffffffffffffffffffffffffffffffffffffff166322f192af8284602001513387606001516040518563ffffffff1660e01b8152600401808581526020018481526020018373ffffffffffffffffffffffffffffffffffffffff1673ffffffffffffffffffffffffffffffffffffffff1681526020018273ffffffffffffffffffffffffffffffffffffffff1673ffffffffffffffffffffffffffffffffffffffff168152602001945050505050600060405180830381600087803b15801561109457600080fd5b505af11580156110a8573d6000803e3d6000fd5b5050505082606001516110cc836000015186600001516133a290919063ffffffff16565b96509650505050505094509492505050565b60008067016345785d8a0000341461115e576040517f08c379a00000000000000000000000000000000000000000000000000000000081526004018080602001828103825260138152602001807f496e76616c696420426f6e6420616d6f756e740000000000000000000000000081525060200191505060405180910390fd5b60606111b56111b088888080601f016020809104026020016040519081016040528093929190818152602001838380828437600081840152601f19601f82011690508083019250505050505050612b1a565b612b48565b90506111bf6148bf565b61120c86868080601f016020809104026020016040519081016040528093929190818152602001838380828437600081840152601f19601f82011690508083019250505050505050612c25565b90503373ffffffffffffffffffffffffffffffffffffffff16816060015173ffffffffffffffffffffffffffffffffffffffff16146112b3576040517f08c379a000000000000000000000000000000000000000000000000000000000815260040180806020018281038252601e8152602001807f53686f756c6420626520616e206f7574676f696e67207472616e73666572000081525060200191505060405180910390fd5b6112bb614928565b6113006112db846006815181106112ce57fe5b6020026020010151612e36565b6112f8856009815181106112eb57fe5b6020026020010151612ec2565b336000612f33565b9050806040015173ffffffffffffffffffffffffffffffffffffffff16826040015173ffffffffffffffffffffffffffffffffffffffff161461138e576040517f08c379a000000000000000000000000000000000000000000000000000000000815260040180806020018281038252603f815260200180614c36603f913960400191505060405180910390fd5b61139882826132be565b8260000181815250506114a881602001516000809054906101000a900473ffffffffffffffffffffffffffffffffffffffff1673ffffffffffffffffffffffffffffffffffffffff1663ad1d80698c8c6000806040518563ffffffff1660e01b815260040180806020018460ff168152602001831515151581526020018281038252868682818152602001925080828437600081840152601f19601f8201169050808301925050509550505050505060206040518083038186803b15801561145f57600080fd5b505afa158015611473573d6000803e3d6000fd5b505050506040513d602081101561148957600080fd5b81019080805190602001909291905050506133a290919063ffffffff16565b8160200181815250506114b96133c1565b600060018260200151901b90506001811790506000809054906101000a900473ffffffffffffffffffffffffffffffffffffffff1673ffffffffffffffffffffffffffffffffffffffff1663d931a8693384604001518560600151876000015188602001516000886040518863ffffffff1660e01b8152600401808873ffffffffffffffffffffffffffffffffffffffff1673ffffffffffffffffffffffffffffffffffffffff1681526020018773ffffffffffffffffffffffffffffffffffffffff1673ffffffffffffffffffffffffffffffffffffffff1681526020018673ffffffffffffffffffffffffffffffffffffffff1673ffffffffffffffffffffffffffffffffffffffff16815260200185815260200184815260200183151515158152602001828152602001975050505050505050600060405180830381600087803b15801561160957600080fd5b505af115801561161d573d6000803e3d6000fd5b505050506000809054906101000a900473ffffffffffffffffffffffffffffffffffffffff1673ffffffffffffffffffffffffffffffffffffffff166322f192af8284602001513386606001516040518563ffffffff1660e01b8152600401808581526020018481526020018373ffffffffffffffffffffffffffffffffffffffff1673ffffffffffffffffffffffffffffffffffffffff1681526020018273ffffffffffffffffffffffffffffffffffffffff1673ffffffffffffffffffffffffffffffffffffffff168152602001945050505050600060405180830381600087803b15801561170d57600080fd5b505af1158015611721573d6000803e3d6000fd5b5050505081606001518360000151955095505050505094509492505050565b6000809054906101000a900473ffffffffffffffffffffffffffffffffffffffff1673ffffffffffffffffffffffffffffffffffffffff163373ffffffffffffffffffffffffffffffffffffffff1614611802576040517f08c379a00000000000000000000000000000000000000000000000000000000081526004018080602001828103825260158152602001807f4f4e4c595f57495448445241575f4d414e41474552000000000000000000000081525060200191505060405180910390fd5b600080600061185485858080601f016020809104026020016040519081016040528093929190818152602001838380828437600081840152601f19601f8201169050808301925050505050505061344d565b9350935093505060008373ffffffffffffffffffffffffffffffffffffffff166370a08231600160009054906101000a900473ffffffffffffffffffffffffffffffffffffffff166040518263ffffffff1660e01b8152600401808273ffffffffffffffffffffffffffffffffffffffff1673ffffffffffffffffffffffffffffffffffffffff16815260200191505060206040518083038186803b1580156118fc57600080fd5b505afa158015611910573d6000803e3d6000fd5b505050506040513d602081101561192657600080fd5b810190808051906020019092919050505090506000811115611a59578181111561194e578190505b600160009054906101000a900473ffffffffffffffffffffffffffffffffffffffff1673ffffffffffffffffffffffffffffffffffffffff166349f4cc178585846040518463ffffffff1660e01b8152600401808473ffffffffffffffffffffffffffffffffffffffff1673ffffffffffffffffffffffffffffffffffffffff1681526020018373ffffffffffffffffffffffffffffffffffffffff1673ffffffffffffffffffffffffffffffffffffffff1681526020018281526020019350505050600060405180830381600087803b158015611a2b57600080fd5b505af1158015611a3f573d6000803e3d6000fd5b50505050611a5681836134b490919063ffffffff16565b91505b6000821115611b02578373ffffffffffffffffffffffffffffffffffffffff166340c10f1984846040518363ffffffff1660e01b8152600401808373ffffffffffffffffffffffffffffffffffffffff1673ffffffffffffffffffffffffffffffffffffffff16815260200182815260200192505050600060405180830381600087803b158015611ae957600080fd5b505af1158015611afd573d6000803e3d6000fd5b505050505b505050505050565b6060611b61611b5c84848080601f016020809104026020016040519081016040528093929190818152602001838380828437600081840152601f19601f82011690508083019250505050505050612b1a565b612b48565b90506060611b8282600681518110611b7557fe5b6020026020010151612e36565b90506060611b97611b9283612b1a565b612b48565b90506000611bb884600981518110611bab57fe5b6020026020010151612ec2565b9050600a8110611c30576040517f08c379a000000000000000000000000000000000000000000000000000000000815260040180806020018281038252601b8152602001807f537570706f7274696e672061206d6178206f66203130206c6f6773000000000081525060200191505060405180910390fd5b60008060009054906101000a900473ffffffffffffffffffffffffffffffffffffffff1673ffffffffffffffffffffffffffffffffffffffff1663ad1d806988886000806040518563ffffffff1660e01b815260040180806020018460ff168152602001831515151581526020018281038252868682818152602001925080828437600081840152601f19601f8201169050808301925050509550505050505060206040518083038186803b158015611ce857600080fd5b505afa158015611cfc573d6000803e3d6000fd5b505050506040513d6020811015611d1257600080fd5b81019080805190602001909291905050509050611d5d611d4584600381518110611d3857fe5b6020026020010151612b48565b8381518110611d5057fe5b6020026020010151612b48565b92506000611d7e84600081518110611d7157fe5b60200260200101516134d4565b90506060611d9f85600281518110611d9257fe5b6020026020010151612e36565b9050611dbe85600181518110611db157fe5b6020026020010151612b48565b94507febff2602b3f468259e1e99f613fed6691f3a6526effe6ef3e768ba7ae7a36c4f60001b611e0186600081518110611df457fe5b6020026020010151612ec2565b60001b14611e77576040517f08c379a000000000000000000000000000000000000000000000000000000000815260040180806020018281038252601e8152602001807f4e6f742061207769746864726177206576656e74207369676e6174757265000081525060200191505060405180910390fd5b6000611e9686600181518110611e8957fe5b6020026020010151612ec2565b9050611eb586600281518110611ea857fe5b6020026020010151612ec2565b73ffffffffffffffffffffffffffffffffffffffff163373ffffffffffffffffffffffffffffffffffffffff1614611f38576040517f08c379a0000000000000000000000000000000000000000000000000000000008152600401808060200182810382526028815260200180614b1d6028913960400191505060405180910390fd5b6000611f458360006134f7565b90506000809054906101000a900473ffffffffffffffffffffffffffffffffffffffff1673ffffffffffffffffffffffffffffffffffffffff1663d931a869338685856000801b6001808d901b6040518863ffffffff1660e01b8152600401808873ffffffffffffffffffffffffffffffffffffffff1673ffffffffffffffffffffffffffffffffffffffff1681526020018773ffffffffffffffffffffffffffffffffffffffff1673ffffffffffffffffffffffffffffffffffffffff1681526020018673ffffffffffffffffffffffffffffffffffffffff1673ffffffffffffffffffffffffffffffffffffffff16815260200185815260200184815260200183151515158152602001828152602001975050505050505050600060405180830381600087803b15801561207a57600080fd5b505af115801561208e573d6000803e3d6000fd5b505050505050505050505050505050565b6060806000806000868660808110156120b757600080fd5b81019080803590602001906401000000008111156120d457600080fd5b8201836020820111156120e657600080fd5b8035906020019184600183028401116401000000008311171561210857600080fd5b91908080601f016020809104026020016040519081016040528093929190818152602001838380828437600081840152601f19601f820116905080830192505050505050509192919290803573ffffffffffffffffffffffffffffffffffffffff169060200190929190803515159060200190929190803515159060200190929190505050935093509350935060606121a86121a386612b1a565b612b48565b905060606121c9826006815181106121bc57fe5b6020026020010151612e36565b905060006121ea836009815181106121dd57fe5b6020026020010151612ec2565b9050600a8110612262576040517f08c379a000000000000000000000000000000000000000000000000000000000815260040180806020018281038252601b8152602001807f537570706f7274696e672061206d6178206f66203130206c6f6773000000000081525060200191505060405180910390fd5b606061227561227084612b1a565b612b48565b90506122af6122978260038151811061228a57fe5b6020026020010151612b48565b83815181106122a257fe5b6020026020010151612b48565b90506122b9614928565b6122d6826000815181106122c957fe5b60200260200101516134d4565b816040019073ffffffffffffffffffffffffffffffffffffffff16908173ffffffffffffffffffffffffffffffffffffffff1681525050606061232c8360028151811061231f57fe5b6020026020010151612e36565b905061234b8360018151811061233e57fe5b6020026020010151612b48565b925061236a8360018151811061235d57fe5b6020026020010151612ec2565b826060019073ffffffffffffffffffffffffffffffffffffffff16908173ffffffffffffffffffffffffffffffffffffffff168152505086156123b6576123b1838a61351f565b6123d4565b6123c183828b6136bd565b8360000184602001828152508281525050505b6123fe6123eb600a866139dd90919063ffffffff16565b83602001516133a290919063ffffffff16565b82602001818152505087156125575761254d6000809054906101000a900473ffffffffffffffffffffffffffffffffffffffff1673ffffffffffffffffffffffffffffffffffffffff1663ad1d80698c6000806040518463ffffffff1660e01b815260040180806020018460ff16815260200183151515158152602001828103825285818151815260200191508051906020019080838360005b838110156124b3578082015181840152602081019050612498565b50505050905090810190601f1680156124e05780820380516001836020036101000a031916815260200191505b5094505050505060206040518083038186803b1580156124ff57600080fd5b505afa158015612513573d6000803e3d6000fd5b505050506040513d602081101561252957600080fd5b810190808051906020019092919050505083602001516133a290919063ffffffff16565b8260200181815250505b8160000151826020015183604001518460600151604051602001808581526020018481526020018373ffffffffffffffffffffffffffffffffffffffff1673ffffffffffffffffffffffffffffffffffffffff1681526020018273ffffffffffffffffffffffffffffffffffffffff1673ffffffffffffffffffffffffffffffffffffffff1681526020019450505050506040516020818303038152906040529a505050505050505050505092915050565b6040518060400160405280600381526020017f013881000000000000000000000000000000000000000000000000000000000081525081565b6201388181565b600061265361497c565b6126a088888080601f016020809104026020016040519081016040528093929190818152602001838380828437600081840152601f19601f82011690508083019250505050505050613a17565b905060008060006126f489898080601f016020809104026020016040519081016040528093929190818152602001838380828437600081840152601f19601f82011690508083019250505050505050613afd565b93505092509250606061275261274d89898080601f016020809104026020016040519081016040528093929190818152602001838380828437600081840152601f19601f82011690508083019250505050505050612b1a565b612b48565b905061275c6148bf565b61278161277c83600a8151811061276f57fe5b6020026020010151612e36565b613b67565b90508373ffffffffffffffffffffffffffffffffffffffff16816060015173ffffffffffffffffffffffffffffffffffffffff161461280b576040517f08c379a000000000000000000000000000000000000000000000000000000000815260040180806020018281038252604a815260200180614a2e604a913960600191505060405180910390fd5b612813614928565b61285c6128338460068151811061282657fe5b6020026020010151612e36565b6128508560098151811061284357fe5b6020026020010151612ec2565b84606001516001612f33565b905061296681602001516000809054906101000a900473ffffffffffffffffffffffffffffffffffffffff1673ffffffffffffffffffffffffffffffffffffffff1663ad1d80698d8d600060016040518563ffffffff1660e01b815260040180806020018460ff168152602001831515151581526020018281038252868682818152602001925080828437600081840152601f19601f8201169050808301925050509550505050505060206040518083038186803b15801561291d57600080fd5b505afa158015612931573d6000803e3d6000fd5b505050506040513d602081101561294757600080fd5b81019080805190602001909291905050506133a290919063ffffffff16565b8160200181815250508373ffffffffffffffffffffffffffffffffffffffff16816040015173ffffffffffffffffffffffffffffffffffffffff161480156129dd57508373ffffffffffffffffffffffffffffffffffffffff16826040015173ffffffffffffffffffffffffffffffffffffffff16145b612a32576040517f08c379a000000000000000000000000000000000000000000000000000000000815260040180806020018281038252604c815260200180614b95604c913960600191505060405180910390fd5b8581602001511015612aa3578160200151876020015114612a9e576040517f08c379a0000000000000000000000000000000000000000000000000000000008152600401808060200182810382526021815260200180614a786021913960400191505060405180910390fd5b612b05565b816020015187602001511415612b04576040517f08c379a0000000000000000000000000000000000000000000000000000000008152600401808060200182810382526021815260200180614a786021913960400191505060405180910390fd5b5b60019750505050505050509695505050505050565b612b226149f9565b600060208301905060405180604001604052808451815260200182815250915050919050565b6060612b5382613ccb565b612b5c57600080fd5b6000612b6783613d19565b9050606081604051908082528060200260200182016040528015612ba557816020015b612b92614a13565b815260200190600190039081612b8a5790505b5090506000612bb78560200151613d8a565b8560200151019050600080600090505b84811015612c1857612bd883613e13565b9150604051806040016040528083815260200184815250848281518110612bfb57fe5b602002602001018190525081830192508080600101915050612bc7565b5082945050505050919050565b612c2d6148bf565b6060612c40612c3b84612b1a565b612b48565b90506009815114612cb9576040517f08c379a00000000000000000000000000000000000000000000000000000000081526004018080602001828103825260158152602001807f4d414c464f524d45445f57495448445241575f5458000000000000000000000081525060200191505060405180910390fd5b612cd681600381518110612cc957fe5b60200260200101516134d4565b826040019073ffffffffffffffffffffffffffffffffffffffff16908173ffffffffffffffffffffffffffffffffffffffff1681525050612d1681613ecb565b8360600184602001828152508273ffffffffffffffffffffffffffffffffffffffff1673ffffffffffffffffffffffffffffffffffffffff1681525050503373ffffffffffffffffffffffffffffffffffffffff16826060015173ffffffffffffffffffffffffffffffffffffffff161415612dde57612db1612dac82600581518110612d9f57fe5b6020026020010151612e36565b6141d2565b8360000184608001826003811115612dc557fe5b6003811115612dd057fe5b815250828152505050612e30565b612e03612dfe82600581518110612df157fe5b6020026020010151612e36565b614329565b826000018181525050600282608001906003811115612e1e57fe5b90816003811115612e2b57fe5b815250505b50919050565b60606000826000015111612e4957600080fd5b6000612e588360200151613d8a565b905060008184600001510390506060816040519080825280601f01601f191660200182016040528015612e9a5781602001600182028038833980820191505090505b5090506000816020019050612eb6848760200151018285614481565b81945050505050919050565b6000808260000151118015612edc57506021826000015111155b612ee557600080fd5b6000612ef48360200151613d8a565b90506000818460000151039050600080838660200151019050805191506020831015612f2757826020036101000a820491505b81945050505050919050565b612f3b614928565b600a8410612fb1576040517f08c379a000000000000000000000000000000000000000000000000000000000815260040180806020018281038252601b8152602001807f537570706f7274696e672061206d6178206f66203130206c6f6773000000000081525060200191505060405180910390fd5b6060612fc4612fbf87612b1a565b612b48565b9050612ffe612fe682600381518110612fd957fe5b6020026020010151612b48565b8681518110612ff157fe5b6020026020010151612b48565b905061301d8160008151811061301057fe5b60200260200101516134d4565b826040019073ffffffffffffffffffffffffffffffffffffffff16908173ffffffffffffffffffffffffffffffffffffffff168152505060606130738260028151811061306657fe5b6020026020010151612e36565b90506130928260018151811061308557fe5b6020026020010151612b48565b915060006130b3836000815181106130a657fe5b6020026020010151612ec2565b60001b90506130d5836001815181106130c857fe5b6020026020010151612ec2565b846060019073ffffffffffffffffffffffffffffffffffffffff16908173ffffffffffffffffffffffffffffffffffffffff16815250507f4dfe1bbbcf077ddc3e01291eea2d5c70c2b422b415d95645b9adcfd678cb1d6360001b81141561324d57600260009054906101000a900473ffffffffffffffffffffffffffffffffffffffff1673ffffffffffffffffffffffffffffffffffffffff16636e86b77085606001516040518263ffffffff1660e01b8152600401808273ffffffffffffffffffffffffffffffffffffffff1673ffffffffffffffffffffffffffffffffffffffff16815260200191505060206040518083038186803b1580156131da57600080fd5b505afa1580156131ee573d6000803e3d6000fd5b505050506040513d602081101561320457600080fd5b8101908080519060200190929190505050846060019073ffffffffffffffffffffffffffffffffffffffff16908173ffffffffffffffffffffffffffffffffffffffff16815250505b84156132625761325d838761351f565b613280565b61326d8383886136bd565b8560000186602001828152508281525050505b6132aa613297600a896139dd90919063ffffffff16565b85602001516133a290919063ffffffff16565b846020018181525050505050949350505050565b6000826000015182600001511015613321576040517f08c379a0000000000000000000000000000000000000000000000000000000008152600401808060200182810382526028815260200180614af56028913960400191505060405180910390fd5b6001600381111561332e57fe5b8360800151600381111561333e57fe5b14156133665761335f836000015183600001516134b490919063ffffffff16565b905061339c565b60038081111561337257fe5b8360800151600381111561338257fe5b1415613394578160000151905061339c565b826000015190505b92915050565b6000808284019050838110156133b757600080fd5b8091505092915050565b6000809054906101000a900473ffffffffffffffffffffffffffffffffffffffff1673ffffffffffffffffffffffffffffffffffffffff166108fc67016345785d8a00009081150290604051600060405180830381858888f19350505050158015613430573d6000803e3d6000fd5b50565b6000818310156134435781613445565b825b905092915050565b60008060008084806020019051608081101561346857600080fd5b8101908080519060200190929190805190602001909291908051906020019092919080519060200190929190505050829250819150809450819550829650839750505050509193509193565b6000828211156134c357600080fd5b600082840390508091505092915050565b600060158260000151146134e757600080fd5b6134f082612ec2565b9050919050565b6000602082018351101561350a57600080fd5b60008260208501015190508091505092915050565b600061353e8360008151811061353157fe5b6020026020010151612ec2565b60001b90507febff2602b3f468259e1e99f613fed6691f3a6526effe6ef3e768ba7ae7a36c4f60001b81148061359657507fe6497e3ee548a3372136af2fcb0696db31fc6cf20260707645068bd3fe97f3c460001b81145b806135c357507f4dfe1bbbcf077ddc3e01291eea2d5c70c2b422b415d95645b9adcfd678cb1d6360001b81145b613618576040517f08c379a000000000000000000000000000000000000000000000000000000000815260040180806020018281038252602d815260200180614ac8602d913960400191505060405180910390fd5b6136358360028151811061362857fe5b6020026020010151612ec2565b73ffffffffffffffffffffffffffffffffffffffff168273ffffffffffffffffffffffffffffffffffffffff16146136b8576040517f08c379a000000000000000000000000000000000000000000000000000000000815260040180806020018281038252602a815260200180614c75602a913960400191505060405180910390fd5b505050565b60008060006136df866000815181106136d257fe5b6020026020010151612ec2565b60001b90507f4e2ca0515ed1aef1395f66b5303bb5d6f1bf9d61a353fa53f73f8ac9973fa9f660001b81148061373757507febff2602b3f468259e1e99f613fed6691f3a6526effe6ef3e768ba7ae7a36c4f60001b81145b156137ee576137598660028151811061374c57fe5b6020026020010151612ec2565b73ffffffffffffffffffffffffffffffffffffffff168473ffffffffffffffffffffffffffffffffffffffff16146137dc576040517f08c379a0000000000000000000000000000000000000000000000000000000008152600401808060200182810382526029815260200180614b456029913960400191505060405180910390fd5b6137e78560406134f7565b92506139d4565b7fe6497e3ee548a3372136af2fcb0696db31fc6cf20260707645068bd3fe97f3c460001b81148061384157507f4dfe1bbbcf077ddc3e01291eea2d5c70c2b422b415d95645b9adcfd678cb1d6360001b81145b15613965576138638660028151811061385657fe5b6020026020010151612ec2565b73ffffffffffffffffffffffffffffffffffffffff168473ffffffffffffffffffffffffffffffffffffffff1614156138a8576138a18560606134f7565b9250613960565b6138c5866003815181106138b857fe5b6020026020010151612ec2565b73ffffffffffffffffffffffffffffffffffffffff168473ffffffffffffffffffffffffffffffffffffffff16141561390e576139038560806134f7565b92506001915061395f565b6040517f08c379a0000000000000000000000000000000000000000000000000000000008152600401808060200182810382526027815260200180614b6e6027913960400191505060405180910390fd5b5b6139d3565b6040517f08c379a00000000000000000000000000000000000000000000000000000000081526004018080602001828103825260178152602001807f457869742074797065206e6f7420737570706f7274656400000000000000000081525060200191505060405180910390fd5b5b50935093915050565b6000808314156139f05760009050613a11565b6000828402905082848281613a0157fe5b0414613a0c57600080fd5b809150505b92915050565b613a1f61497c565b60008060008060008680602001905160a0811015613a3c57600080fd5b810190808051906020019092919080519060200190929190805190602001909291908051906020019092919080519060200190929190505050945094509450945094506040518060c001604052808481526020018381526020018673ffffffffffffffffffffffffffffffffffffffff1681526020018573ffffffffffffffffffffffffffffffffffffffff1681526020018215158152602001600073ffffffffffffffffffffffffffffffffffffffff1681525095505050505050919050565b600080600080848060200190516080811015613b1857600080fd5b8101908080519060200190929190805190602001909291908051906020019092919080519060200190929190505050829250819150809050809450819550829650839750505050509193509193565b613b6f6148bf565b6060613b82613b7d84612b1a565b612b48565b90506009815114613bfb576040517f08c379a00000000000000000000000000000000000000000000000000000000081526004018080602001828103825260158152602001807f4d414c464f524d45445f57495448445241575f5458000000000000000000000081525060200191505060405180910390fd5b613c1881600381518110613c0b57fe5b60200260200101516134d4565b826040019073ffffffffffffffffffffffffffffffffffffffff16908173ffffffffffffffffffffffffffffffffffffffff1681525050613c5881613ecb565b8360600184602001828152508273ffffffffffffffffffffffffffffffffffffffff1673ffffffffffffffffffffffffffffffffffffffff168152505050613cbb613cb682600581518110613ca957fe5b6020026020010151612e36565b6141d2565b5082600001818152505050919050565b60008082600001511415613ce25760009050613d14565b60008083602001519050805160001a915060c060ff168260ff161015613d0d57600092505050613d14565b6001925050505b919050565b60008082600001511415613d305760009050613d85565b60008090506000613d448460200151613d8a565b84602001510190506000846000015185602001510190505b80821015613d7e57613d6d82613e13565b820191508280600101935050613d5c565b8293505050505b919050565b600080825160001a9050608060ff16811015613daa576000915050613e0e565b60b860ff16811080613dcf575060c060ff168110158015613dce575060f860ff1681105b5b15613dde576001915050613e0e565b60c060ff16811015613dfe5760018060b80360ff16820301915050613e0e565b60018060f80360ff168203019150505b919050565b6000806000835160001a9050608060ff16811015613e345760019150613ec1565b60b860ff16811015613e51576001608060ff168203019150613ec0565b60c060ff16811015613e815760b78103600185019450806020036101000a85510460018201810193505050613ebf565b60f860ff16811015613e9e57600160c060ff168203019150613ebe565b60f78103600185019450806020036101000a855104600182018101935050505b5b5b5b8192505050919050565b60008060606009604051908082528060200260200182016040528015613f0557816020015b6060815260200190600190039081613ef05790505b50905060008090505b60058160ff1611613f5f57613f38858260ff1681518110613f2b57fe5b6020026020010151612e36565b828260ff1681518110613f4757fe5b60200260200101819052508080600101915050613f0e565b506040518060400160405280600381526020017f013881000000000000000000000000000000000000000000000000000000000081525081600681518110613fa357fe5b60200260200101819052506040518060200160405280600081525081600781518110613fcb57fe5b60200260200101819052506040518060200160405280600081525081600881518110613ff357fe5b6020026020010181905250614007816144e8565b80519060200120915060018273__Common________________________________63e57d18d061404a8860068151811061403d57fe5b6020026020010151612e36565b620138816040518363ffffffff1660e01b81526004018080602001838152602001828103825284818151815260200191508051906020019080838360005b838110156140a3578082015181840152602081019050614088565b50505050905090810190601f1680156140d05780820380516001836020036101000a031916815260200191505b50935050505060206040518083038186803b1580156140ee57600080fd5b505af4158015614102573d6000803e3d6000fd5b505050506040513d602081101561411857600080fd5b81019080805190602001909291905050506141468760078151811061413957fe5b6020026020010151612ec2565b60001b6141668860088151811061415957fe5b6020026020010151612ec2565b60001b60405160008152602001604052604051808581526020018460ff1660ff1681526020018381526020018281526020019450505050506020604051602081039080840390855afa1580156141c0573d6000803e3d6000fd5b50505060206040510351925050915091565b60008060006141ec6141e7856000600461454c565b6145d8565b9050632e1a7d4d60e01b7bffffffffffffffffffffffffffffffffffffffffffffffffffffffff1916817bffffffffffffffffffffffffffffffffffffffffffffffffffffffff19161415614251576142468460046134f7565b925060039150614323565b63a9059cbb60e01b7bffffffffffffffffffffffffffffffffffffffffffffffffffffffff1916817bffffffffffffffffffffffffffffffffffffffffffffffffffffffff191614156142b4576142a98460246134f7565b925060019150614322565b6040517f08c379a000000000000000000000000000000000000000000000000000000000815260040180806020018281038252601a8152602001807f457869742074782074797065206e6f7420737570706f7274656400000000000081525060200191505060405180910390fd5b5b50915091565b60008061434161433c846000600461454c565b6145d8565b905063a9059cbb60e01b7bffffffffffffffffffffffffffffffffffffffffffffffffffffffff1916817bffffffffffffffffffffffffffffffffffffffffffffffffffffffff1916146143e0576040517f08c379a0000000000000000000000000000000000000000000000000000000008152600401808060200182810382526027815260200180614be16027913960400191505060405180910390fd5b6143eb8360046134f7565b73ffffffffffffffffffffffffffffffffffffffff163373ffffffffffffffffffffffffffffffffffffffff161461446e576040517f08c379a000000000000000000000000000000000000000000000000000000000815260040180806020018281038252602c815260200180614c9f602c913960400191505060405180910390fd5b6144798360246134f7565b915050919050565b600081141561448f576144e3565b5b602060ff1681106144bf5782518252602060ff1683019250602060ff1682019150602060ff1681039050614490565b6000600182602060ff16036101000a03905080198451168184511681811785525050505b505050565b60608060008090505b835181101561452e5761451f8261451a86848151811061450d57fe5b60200260200101516145e6565b614682565b915080806001019150506144f1565b5061454461453e825160c061470c565b82614682565b915050919050565b60608183018451101561455e57600080fd5b606082156000811461457b576040519150602082016040526145cc565b6040519150601f8416801560200281840101858101878315602002848b0101015b818310156145b9578051835260208301925060208101905061459c565b50868552601f19601f8301166040525050505b50809150509392505050565b600060208201519050919050565b6060806001835114801561461d5750608060ff60f81b8460008151811061460957fe5b602001015160f81c60f81b1660f81c60ff16105b156146615760016040519080825280601f01601f1916602001820160405280156146565781602001600182028038833980820191505090505b509050829050614679565b6146766146708451608061470c565b84614682565b90505b80915050919050565b6060806040519050835180825260208201818101602087015b818310156146b8578051835260208301925060208101905061469b565b50855192508351830184528091508282019050602086015b818310156146ed57805183526020830192506020810190506146d0565b50601f19601f8851850115830101166040525050508091505092915050565b6060603883101561479b57606060016040519080825280601f01601f19166020018201604052801561474d5781602001600182028038833980820191505090505b50905082840160f81b8160008151811061476357fe5b60200101907effffffffffffffffffffffffffffffffffffffffffffffffffffffffffffff1916908160001a905350809150506147f8565b600080600190505b60008186816147ae57fe5b04146147c8578180600101925050610100810290506147a3565b60606147d88360378701016147fe565b905060606147e5876147fe565b90506147f18282614682565b9450505050505b92915050565b606060006001905060ff83111561481457600290505b806040519080825280601f01601f1916602001820160405280156148475781602001600182028038833980820191505090505b50915060008090505b818110156148b85780600183030360080260020a848161486c57fe5b0460f81b83828151811061487c57fe5b60200101907effffffffffffffffffffffffffffffffffffffffffffffffffffffffffffff1916908160001a9053508080600101915050614850565b5050919050565b6040518060a001604052806000815260200160008019168152602001600073ffffffffffffffffffffffffffffffffffffffff168152602001600073ffffffffffffffffffffffffffffffffffffffff1681526020016000600381111561492257fe5b81525090565b60405180608001604052806000815260200160008152602001600073ffffffffffffffffffffffffffffffffffffffff168152602001600073ffffffffffffffffffffffffffffffffffffffff1681525090565b6040518060c001604052806000815260200160008019168152602001600073ffffffffffffffffffffffffffffffffffffffff168152602001600073ffffffffffffffffffffffffffffffffffffffff168152602001600015158152602001600073ffffffffffffffffffffffffffffffffffffffff1681525090565b604051806040016040528060008152602001600081525090565b60405180604001604052806000815260200160008152509056fe4368616c6c656e6765207478206e6f74207369676e6564206279207468652070617274792077686f207369676e65642074686520696e707574205554584f20746f20746865206578697443616e6e6f74206368616c6c656e676520776974682074686520657869742074786368696c6420746f6b656e7320696e20746865207265666572656e6365642074787320646f206e6f74206d617463684c6f67207369676e617475726520646f65736e74207175616c69667920617320612076616c6964207370656e6445786974696e672077697468206d6f726520746f6b656e73207468616e207265666572656e6365645769746864726177657220616e64206275726e206578697420747820646f206e6f74206d617463685769746864726177657220616e64207265666572656e63656420747820646f206e6f74206d617463687478202f206c6f6720646f65736e7420636f6e6365726e20746865207061727469636970616e744c6f675472616e73666572526563656970742c206368616c6c656e6765547820746f6b656e20616e64206368616c6c656e676564207574786f20746f6b656e20646f206e6f74206d617463684f6e6c7920737570706f7274732065786974696e672066726f6d207472616e7366657220747873726f6f7420746f6b656e7320696e20746865207265666572656e6365642074787320646f206e6f74206d617463685265666572656e636520616e64206578697420747820646f206e6f7420636f72726573706f6e6420746f207468652073616d65206368696c6420746f6b656e7061727469636970616e7420616e64207265666572656e63656420747820646f206e6f74206d61746368457869746f722073686f756c642062652074686520726563656976657220696e207468652065786974207478a265627a7a72315820680608eea235f83adfdfac0181e8979050149343f9a4aace460641eb7c3413f864736f6c63430005110032",
  "compiler": {
    "name": "solc",
    "version": "0.5.17+commit.d19bba13.Emscripten.clang",
    "optimizer": {
      "enabled": false,
      "runs": 200
    },
    "evmVersion": "petersburg"
  }
}