{
  "fileName": "MintableERC20Predicate.sol",
  "contractName": "MintableERC20Predicate",
  "source": "pragma solidity >=0.5.0 <0.6.0;\n\nimport \"../../contracts-package/IERC20.sol\";\n\nimport \"./ERC20Predicate.sol\";\n\ncontract MintableERC20Predicate is ERC20Predicate {\n    constructor(\n        address _withdrawManager,\n        address _depositManager,\n        address _registry\n    ) public ERC20Predicate(_withdrawManager, _depositManager, _registry) {}\n\n    function onFinalizeExit(bytes calldata data) external onlyWithdrawManager {\n        (\n            ,\n            address token,\n            address exitor,\n            uint256 amount\n        ) = decodeExitForProcessExit(data);\n        uint256 toTransfer = IERC20(token).balanceOf(address(depositManager));\n        if (toTransfer > 0) {\n            if (toTransfer > amount) {\n                toTransfer = amount;\n            }\n            depositManager.transferAssets(token, exitor, toTransfer);\n            amount = amount.sub(toTransfer);\n        }\n        if (amount > 0) {\n            IERC20(token).mint(exitor, amount);\n        }\n    }\n}\n",
  "sourcePath": "contracts/root/predicate/MintableERC20Predicate.sol",
  "abi": [
    {
      "inputs": [
        {
          "internalType": "address",
          "name": "_withdrawManager",
          "type": "address"
        },
        {
          "internalType": "address",
          "name": "_depositManager",
          "type": "address"
        },
        {
          "internalType": "address",
          "name": "_registry",
          "type": "address"
        }
      ],
      "payable": false,
      "stateMutability": "nonpayable",
      "type": "constructor"
    },
    {
      "constant": true,
      "inputs": [],
      "name": "CHAINID",
      "outputs": [
        {
          "internalType": "uint256",
          "name": "",
          "type": "uint256"
        }
      ],
      "payable": false,
      "stateMutability": "view",
      "type": "function"
    },
    {
      "constant": true,
      "inputs": [
        {
          "internalType": "bytes",
          "name": "state",
          "type": "bytes"
        }
      ],
      "name": "interpretStateUpdate",
      "outputs": [
        {
          "internalType": "bytes",
          "name": "",
          "type": "bytes"
        }
      ],
      "payable": false,
      "stateMutability": "view",
      "type": "function"
    },
    {
      "constant": true,
      "inputs": [],
      "name": "networkId",
      "outputs": [
        {
          "internalType": "bytes",
          "name": "",
          "type": "bytes"
        }
      ],
      "payable": false,
      "stateMutability": "view",
      "type": "function"
    },
    {
      "constant": false,
      "inputs": [
        {
          "internalType": "bytes",
          "name": "data",
          "type": "bytes"
        }
      ],
      "name": "onFinalizeExit",
      "outputs": [],
      "payable": false,
      "stateMutability": "nonpayable",
      "type": "function"
    },
    {
      "constant": false,
      "inputs": [
        {
          "internalType": "bytes",
          "name": "data",
          "type": "bytes"
        },
        {
          "internalType": "bytes",
          "name": "exitTx",
          "type": "bytes"
        }
      ],
      "name": "startExitForIncomingErc20Transfer",
      "outputs": [
        {
          "internalType": "address",
          "name": "",
          "type": "address"
        },
        {
          "internalType": "uint256",
          "name": "",
          "type": "uint256"
        }
      ],
      "payable": true,
      "stateMutability": "payable",
      "type": "function"
    },
    {
      "constant": false,
      "inputs": [
        {
          "internalType": "bytes",
          "name": "data",
          "type": "bytes"
        },
        {
          "internalType": "bytes",
          "name": "exitTx",
          "type": "bytes"
        }
      ],
      "name": "startExitForOutgoingErc20Transfer",
      "outputs": [
        {
          "internalType": "address",
          "name": "",
          "type": "address"
        },
        {
          "internalType": "uint256",
          "name": "",
          "type": "uint256"
        }
      ],
      "payable": true,
      "stateMutability": "payable",
      "type": "function"
    },
    {
      "constant": false,
      "inputs": [
        {
          "internalType": "bytes",
          "name": "data",
          "type": "bytes"
        }
      ],
      "name": "startExitWithBurntTokens",
      "outputs": [],
      "payable": false,
      "stateMutability": "nonpayable",
      "type": "function"
    },
    {
      "constant": false,
      "inputs": [
        {
          "internalType": "bytes",
          "name": "exit",
          "type": "bytes"
        },
        {
          "internalType": "bytes",
          "name": "inputUtxo",
          "type": "bytes"
        },
        {
          "internalType": "bytes",
          "name": "challengeData",
          "type": "bytes"
        }
      ],
      "name": "verifyDeprecation",
      "outputs": [
        {
          "internalType": "bool",
          "name": "",
          "type": "bool"
        }
      ],
      "payable": false,
      "stateMutability": "nonpayable",
      "type": "function"
    }
  ],
  "bytecode": "0x608060405234801561001057600080fd5b506040516200511f3803806200511f8339818101604052606081101561003557600080fd5b810190808051906020019092919080519060200190929190805190602001909291905050508282828282816000806101000a81548173ffffffffffffffffffffffffffffffffffffffff021916908373ffffffffffffffffffffffffffffffffffffffff16021790555080600160006101000a81548173ffffffffffffffffffffffffffffffffffffffff021916908373ffffffffffffffffffffffffffffffffffffffff160217905550505080600260006101000a81548173ffffffffffffffffffffffffffffffffffffffff021916908373ffffffffffffffffffffffffffffffffffffffff160217905550505050505050614fe680620001396000396000f3fe60806040526004361061007b5760003560e01c806382e3464c1161004e57806382e3464c146103b65780639025e64c146104b5578063cc79f97b14610545578063ec58410c146105705761007b565b8063378383b3146100805780633cccdaaf146101955780637bd94e03146102aa5780637c5264b414610330575b600080fd5b61014c6004803603604081101561009657600080fd5b81019080803590602001906401000000008111156100b357600080fd5b8201836020820111156100c557600080fd5b803590602001918460018302840111640100000000831117156100e757600080fd5b90919293919293908035906020019064010000000081111561010857600080fd5b82018360208201111561011a57600080fd5b8035906020019184600183028401116401000000008311171561013c57600080fd5b90919293919293905050506106b8565b604051808373ffffffffffffffffffffffffffffffffffffffff1673ffffffffffffffffffffffffffffffffffffffff1681526020018281526020019250505060405180910390f35b610261600480360360408110156101ab57600080fd5b81019080803590602001906401000000008111156101c857600080fd5b8201836020820111156101da57600080fd5b803590602001918460018302840111640100000000831117156101fc57600080fd5b90919293919293908035906020019064010000000081111561021d57600080fd5b82018360208201111561022f57600080fd5b8035906020019184600183028401116401000000008311171561025157600080fd5b90919293919293905050506110de565b604051808373ffffffffffffffffffffffffffffffffffffffff1673ffffffffffffffffffffffffffffffffffffffff1681526020018281526020019250505060405180910390f35b3480156102b657600080fd5b5061032e600480360360208110156102cd57600080fd5b81019080803590602001906401000000008111156102ea57600080fd5b8201836020820111156102fc57600080fd5b8035906020019184600183028401116401000000008311171561031e57600080fd5b9091929391929390505050611740565b005b34801561033c57600080fd5b506103b46004803603602081101561035357600080fd5b810190808035906020019064010000000081111561037057600080fd5b82018360208201111561038257600080fd5b803590602001918460018302840111640100000000831117156103a457600080fd5b9091929391929390505050611b0a565b005b3480156103c257600080fd5b5061043a600480360360208110156103d957600080fd5b81019080803590602001906401000000008111156103f657600080fd5b82018360208201111561040857600080fd5b8035906020019184600183028401116401000000008311171561042a57600080fd5b909192939192939050505061209f565b6040518080602001828103825283818151815260200191508051906020019080838360005b8381101561047a57808201518184015260208101905061045f565b50505050905090810190601f1680156104a75780820380516001836020036101000a031916815260200191505b509250505060405180910390f35b3480156104c157600080fd5b506104ca612609565b6040518080602001828103825283818151815260200191508051906020019080838360005b8381101561050a5780820151818401526020810190506104ef565b50505050905090810190601f1680156105375780820380516001836020036101000a031916815260200191505b509250505060405180910390f35b34801561055157600080fd5b5061055a612642565b6040518082815260200191505060405180910390f35b34801561057c57600080fd5b5061069e6004803603606081101561059357600080fd5b81019080803590602001906401000000008111156105b057600080fd5b8201836020820111156105c257600080fd5b803590602001918460018302840111640100000000831117156105e457600080fd5b90919293919293908035906020019064010000000081111561060557600080fd5b82018360208201111561061757600080fd5b8035906020019184600183028401116401000000008311171561063957600080fd5b90919293919293908035906020019064010000000081111561065a57600080fd5b82018360208201111561066c57600080fd5b8035906020019184600183028401116401000000008311171561068e57600080fd5b9091929391929390505050612648565b604051808215151515815260200191505060405180910390f35b60008067016345785d8a00003414610738576040517f08c379a00000000000000000000000000000000000000000000000000000000081526004018080602001828103825260138152602001807f496e76616c696420426f6e6420616d6f756e740000000000000000000000000081525060200191505060405180910390fd5b606061078f61078a88888080601f016020809104026020016040519081016040528093929190818152602001838380828437600081840152601f19601f82011690508083019250505050505050612b19565b612b47565b9050610799614b85565b6107e686868080601f016020809104026020016040519081016040528093929190818152602001838380828437600081840152601f19601f82011690508083019250505050505050612c24565b90503373ffffffffffffffffffffffffffffffffffffffff16816060015173ffffffffffffffffffffffffffffffffffffffff16141561088e576040517f08c379a000000000000000000000000000000000000000000000000000000000815260040180806020018281038252601e8152602001807f53686f756c6420626520616e20696e636f6d696e67207472616e73666572000081525060200191505060405180910390fd5b610896614bee565b6108df6108b6846006815181106108a957fe5b6020026020010151612e35565b6108d3856009815181106108c657fe5b6020026020010151612ec1565b84606001516000612f32565b9050806040015173ffffffffffffffffffffffffffffffffffffffff16826040015173ffffffffffffffffffffffffffffffffffffffff161461096d576040517f08c379a000000000000000000000000000000000000000000000000000000000815260040180806020018281038252603f815260200180614f1d603f913960400191505060405180910390fd5b61097782826132bd565b826000018181525050610a8781602001516000809054906101000a900473ffffffffffffffffffffffffffffffffffffffff1673ffffffffffffffffffffffffffffffffffffffff1663ad1d80698c8c6000806040518563ffffffff1660e01b815260040180806020018460ff168152602001831515151581526020018281038252868682818152602001925080828437600081840152601f19601f8201169050808301925050509550505050505060206040518083038186803b158015610a3e57600080fd5b505afa158015610a52573d6000803e3d6000fd5b505050506040513d6020811015610a6857600080fd5b81019080805190602001909291905050506133a190919063ffffffff16565b816020018181525050610a98614bee565b600a84511115610d1357610ae7610ac285601081518110610ab557fe5b6020026020010151612e35565b610adf86601381518110610ad257fe5b6020026020010151612ec1565b336000612f32565b9050816040015173ffffffffffffffffffffffffffffffffffffffff16816040015173ffffffffffffffffffffffffffffffffffffffff1614610b75576040517f08c379a000000000000000000000000000000000000000000000000000000000815260040180806020018281038252602f815260200180614d5f602f913960400191505060405180910390fd5b816060015173ffffffffffffffffffffffffffffffffffffffff16816060015173ffffffffffffffffffffffffffffffffffffffff1614610c01576040517f08c379a000000000000000000000000000000000000000000000000000000000815260040180806020018281038252602e815260200180614eef602e913960400191505060405180910390fd5b610d0981602001516000809054906101000a900473ffffffffffffffffffffffffffffffffffffffff1673ffffffffffffffffffffffffffffffffffffffff1663ad1d80698d8d600a60006040518563ffffffff1660e01b815260040180806020018460ff168152602001831515151581526020018281038252868682818152602001925080828437600081840152601f19601f8201169050808301925050509550505050505060206040518083038186803b158015610cc057600080fd5b505afa158015610cd4573d6000803e3d6000fd5b505050506040513d6020811015610cea57600080fd5b81019080805190602001909291905050506133a190919063ffffffff16565b8160200181815250505b610d1b613429565b60006001610d318460200151846020015161349b565b901b90506000809054906101000a900473ffffffffffffffffffffffffffffffffffffffff1673ffffffffffffffffffffffffffffffffffffffff1663d931a8693385604001518660600151610d9887600001518a600001516133a190919063ffffffff16565b89602001516000886040518863ffffffff1660e01b8152600401808873ffffffffffffffffffffffffffffffffffffffff1673ffffffffffffffffffffffffffffffffffffffff1681526020018773ffffffffffffffffffffffffffffffffffffffff1673ffffffffffffffffffffffffffffffffffffffff1681526020018673ffffffffffffffffffffffffffffffffffffffff1673ffffffffffffffffffffffffffffffffffffffff16815260200185815260200184815260200183151515158152602001828152602001975050505050505050600060405180830381600087803b158015610e8857600080fd5b505af1158015610e9c573d6000803e3d6000fd5b505050506000809054906101000a900473ffffffffffffffffffffffffffffffffffffffff1673ffffffffffffffffffffffffffffffffffffffff166322f192af828560200151876060015187606001516040518563ffffffff1660e01b8152600401808581526020018481526020018373ffffffffffffffffffffffffffffffffffffffff1673ffffffffffffffffffffffffffffffffffffffff1681526020018273ffffffffffffffffffffffffffffffffffffffff1673ffffffffffffffffffffffffffffffffffffffff168152602001945050505050600060405180830381600087803b158015610f9057600080fd5b505af1158015610fa4573d6000803e3d6000fd5b505050506000809054906101000a900473ffffffffffffffffffffffffffffffffffffffff1673ffffffffffffffffffffffffffffffffffffffff166322f192af8284602001513387606001516040518563ffffffff1660e01b8152600401808581526020018481526020018373ffffffffffffffffffffffffffffffffffffffff1673ffffffffffffffffffffffffffffffffffffffff1681526020018273ffffffffffffffffffffffffffffffffffffffff1673ffffffffffffffffffffffffffffffffffffffff168152602001945050505050600060405180830381600087803b15801561109457600080fd5b505af11580156110a8573d6000803e3d6000fd5b5050505082606001516110cc836000015186600001516133a190919063ffffffff16565b96509650505050505094509492505050565b60008067016345785d8a0000341461115e576040517f08c379a00000000000000000000000000000000000000000000000000000000081526004018080602001828103825260138152602001807f496e76616c696420426f6e6420616d6f756e740000000000000000000000000081525060200191505060405180910390fd5b60606111b56111b088888080601f016020809104026020016040519081016040528093929190818152602001838380828437600081840152601f19601f82011690508083019250505050505050612b19565b612b47565b90506111bf614b85565b61120c86868080601f016020809104026020016040519081016040528093929190818152602001838380828437600081840152601f19601f82011690508083019250505050505050612c24565b90503373ffffffffffffffffffffffffffffffffffffffff16816060015173ffffffffffffffffffffffffffffffffffffffff16146112b3576040517f08c379a000000000000000000000000000000000000000000000000000000000815260040180806020018281038252601e8152602001807f53686f756c6420626520616e206f7574676f696e67207472616e73666572000081525060200191505060405180910390fd5b6112bb614bee565b6113006112db846006815181106112ce57fe5b6020026020010151612e35565b6112f8856009815181106112eb57fe5b6020026020010151612ec1565b336000612f32565b9050806040015173ffffffffffffffffffffffffffffffffffffffff16826040015173ffffffffffffffffffffffffffffffffffffffff161461138e576040517f08c379a000000000000000000000000000000000000000000000000000000000815260040180806020018281038252603f815260200180614f1d603f913960400191505060405180910390fd5b61139882826132bd565b8260000181815250506114a881602001516000809054906101000a900473ffffffffffffffffffffffffffffffffffffffff1673ffffffffffffffffffffffffffffffffffffffff1663ad1d80698c8c6000806040518563ffffffff1660e01b815260040180806020018460ff168152602001831515151581526020018281038252868682818152602001925080828437600081840152601f19601f8201169050808301925050509550505050505060206040518083038186803b15801561145f57600080fd5b505afa158015611473573d6000803e3d6000fd5b505050506040513d602081101561148957600080fd5b81019080805190602001909291905050506133a190919063ffffffff16565b8160200181815250506114b9613429565b600060018260200151901b90506001811790506000809054906101000a900473ffffffffffffffffffffffffffffffffffffffff1673ffffffffffffffffffffffffffffffffffffffff1663d931a8693384604001518560600151876000015188602001516000886040518863ffffffff1660e01b8152600401808873ffffffffffffffffffffffffffffffffffffffff1673ffffffffffffffffffffffffffffffffffffffff1681526020018773ffffffffffffffffffffffffffffffffffffffff1673ffffffffffffffffffffffffffffffffffffffff1681526020018673ffffffffffffffffffffffffffffffffffffffff1673ffffffffffffffffffffffffffffffffffffffff16815260200185815260200184815260200183151515158152602001828152602001975050505050505050600060405180830381600087803b15801561160957600080fd5b505af115801561161d573d6000803e3d6000fd5b505050506000809054906101000a900473ffffffffffffffffffffffffffffffffffffffff1673ffffffffffffffffffffffffffffffffffffffff166322f192af8284602001513386606001516040518563ffffffff1660e01b8152600401808581526020018481526020018373ffffffffffffffffffffffffffffffffffffffff1673ffffffffffffffffffffffffffffffffffffffff1681526020018273ffffffffffffffffffffffffffffffffffffffff1673ffffffffffffffffffffffffffffffffffffffff168152602001945050505050600060405180830381600087803b15801561170d57600080fd5b505af1158015611721573d6000803e3d6000fd5b5050505081606001518360000151955095505050505094509492505050565b6000809054906101000a900473ffffffffffffffffffffffffffffffffffffffff1673ffffffffffffffffffffffffffffffffffffffff163373ffffffffffffffffffffffffffffffffffffffff1614611802576040517f08c379a00000000000000000000000000000000000000000000000000000000081526004018080602001828103825260158152602001807f4f4e4c595f57495448445241575f4d414e41474552000000000000000000000081525060200191505060405180910390fd5b600080600061185485858080601f016020809104026020016040519081016040528093929190818152602001838380828437600081840152601f19601f820116905080830192505050505050506134b5565b9350935093505060008373ffffffffffffffffffffffffffffffffffffffff166370a08231600160009054906101000a900473ffffffffffffffffffffffffffffffffffffffff166040518263ffffffff1660e01b8152600401808273ffffffffffffffffffffffffffffffffffffffff1673ffffffffffffffffffffffffffffffffffffffff16815260200191505060206040518083038186803b1580156118fc57600080fd5b505afa158015611910573d6000803e3d6000fd5b505050506040513d602081101561192657600080fd5b810190808051906020019092919050505090506000811115611a59578181111561194e578190505b600160009054906101000a900473ffffffffffffffffffffffffffffffffffffffff1673ffffffffffffffffffffffffffffffffffffffff166349f4cc178585846040518463ffffffff1660e01b8152600401808473ffffffffffffffffffffffffffffffffffffffff1673ffffffffffffffffffffffffffffffffffffffff1681526020018373ffffffffffffffffffffffffffffffffffffffff1673ffffffffffffffffffffffffffffffffffffffff1681526020018281526020019350505050600060405180830381600087803b158015611a2b57600080fd5b505af1158015611a3f573d6000803e3d6000fd5b50505050611a56818361351c90919063ffffffff16565b91505b6000821115611b02578373ffffffffffffffffffffffffffffffffffffffff166340c10f1984846040518363ffffffff1660e01b8152600401808373ffffffffffffffffffffffffffffffffffffffff1673ffffffffffffffffffffffffffffffffffffffff16815260200182815260200192505050600060405180830381600087803b158015611ae957600080fd5b505af1158015611afd573d6000803e3d6000fd5b505050505b505050505050565b6060611b61611b5c84848080601f016020809104026020016040519081016040528093929190818152602001838380828437600081840152601f19601f82011690508083019250505050505050612b19565b612b47565b90506060611b8282600681518110611b7557fe5b6020026020010151612e35565b90506060611b97611b9283612b19565b612b47565b90506000611bb884600981518110611bab57fe5b6020026020010151612ec1565b9050600a8110611c30576040517f08c379a000000000000000000000000000000000000000000000000000000000815260040180806020018281038252601b8152602001807f537570706f7274696e672061206d6178206f66203130206c6f6773000000000081525060200191505060405180910390fd5b60008060009054906101000a900473ffffffffffffffffffffffffffffffffffffffff1673ffffffffffffffffffffffffffffffffffffffff1663ad1d806988886000806040518563ffffffff1660e01b815260040180806020018460ff168152602001831515151581526020018281038252868682818152602001925080828437600081840152601f19601f8201169050808301925050509550505050505060206040518083038186803b158015611ce857600080fd5b505afa158015611cfc573d6000803e3d6000fd5b505050506040513d6020811015611d1257600080fd5b81019080805190602001909291905050509050611d5d611d4584600381518110611d3857fe5b6020026020010151612b47565b8381518110611d5057fe5b6020026020010151612b47565b92506000611d7e84600081518110611d7157fe5b6020026020010151613566565b90506060611d9f85600281518110611d9257fe5b6020026020010151612e35565b9050611dbe85600181518110611db157fe5b6020026020010151612b47565b94507febff2602b3f468259e1e99f613fed6691f3a6526effe6ef3e768ba7ae7a36c4f60001b611e0186600081518110611df457fe5b6020026020010151612ec1565b60001b14611e77576040517f08c379a000000000000000000000000000000000000000000000000000000000815260040180806020018281038252601e8152602001807f4e6f742061207769746864726177206576656e74207369676e6174757265000081525060200191505060405180910390fd5b6000611e9686600181518110611e8957fe5b6020026020010151612ec1565b9050611eb586600281518110611ea857fe5b6020026020010151612ec1565b73ffffffffffffffffffffffffffffffffffffffff163373ffffffffffffffffffffffffffffffffffffffff1614611f38576040517f08c379a0000000000000000000000000000000000000000000000000000000008152600401808060200182810382526028815260200180614de36028913960400191505060405180910390fd5b6000611f45836000613589565b90506000809054906101000a900473ffffffffffffffffffffffffffffffffffffffff1673ffffffffffffffffffffffffffffffffffffffff1663d931a869338685856000801b6001808d901b6040518863ffffffff1660e01b8152600401808873ffffffffffffffffffffffffffffffffffffffff1673ffffffffffffffffffffffffffffffffffffffff1681526020018773ffffffffffffffffffffffffffffffffffffffff1673ffffffffffffffffffffffffffffffffffffffff1681526020018673ffffffffffffffffffffffffffffffffffffffff1673ffffffffffffffffffffffffffffffffffffffff16815260200185815260200184815260200183151515158152602001828152602001975050505050505050600060405180830381600087803b15801561207a57600080fd5b505af115801561208e573d6000803e3d6000fd5b505050505050505050505050505050565b6060806000806000868660808110156120b757600080fd5b81019080803590602001906401000000008111156120d457600080fd5b8201836020820111156120e657600080fd5b8035906020019184600183028401116401000000008311171561210857600080fd5b91908080601f016020809104026020016040519081016040528093929190818152602001838380828437600081840152601f19601f820116905080830192505050505050509192919290803573ffffffffffffffffffffffffffffffffffffffff169060200190929190803515159060200190929190803515159060200190929190505050935093509350935060606121a86121a386612b19565b612b47565b905060606121c9826006815181106121bc57fe5b6020026020010151612e35565b905060006121ea836009815181106121dd57fe5b6020026020010151612ec1565b9050600a8110612262576040517f08c379a000000000000000000000000000000000000000000000000000000000815260040180806020018281038252601b8152602001807f537570706f7274696e672061206d6178206f66203130206c6f6773000000000081525060200191505060405180910390fd5b606061227561227084612b19565b612b47565b90506122af6122978260038151811061228a57fe5b6020026020010151612b47565b83815181106122a257fe5b6020026020010151612b47565b90506122b9614bee565b6122d6826000815181106122c957fe5b6020026020010151613566565b816040019073ffffffffffffffffffffffffffffffffffffffff16908173ffffffffffffffffffffffffffffffffffffffff1681525050606061232c8360028151811061231f57fe5b6020026020010151612e35565b905061234b8360018151811061233e57fe5b6020026020010151612b47565b925061236a8360018151811061235d57fe5b6020026020010151612ec1565b826060019073ffffffffffffffffffffffffffffffffffffffff16908173ffffffffffffffffffffffffffffffffffffffff168152505086156123b6576123b1838a6135b1565b6123d4565b6123c183828b61374f565b8360000184602001828152508281525050505b6123fe6123eb600a86613a6f90919063ffffffff16565b83602001516133a190919063ffffffff16565b82602001818152505087156125575761254d6000809054906101000a900473ffffffffffffffffffffffffffffffffffffffff1673ffffffffffffffffffffffffffffffffffffffff1663ad1d80698c6000806040518463ffffffff1660e01b815260040180806020018460ff16815260200183151515158152602001828103825285818151815260200191508051906020019080838360005b838110156124b3578082015181840152602081019050612498565b50505050905090810190601f1680156124e05780820380516001836020036101000a031916815260200191505b5094505050505060206040518083038186803b1580156124ff57600080fd5b505afa158015612513573d6000803e3d6000fd5b505050506040513d602081101561252957600080fd5b810190808051906020019092919050505083602001516133a190919063ffffffff16565b8260200181815250505b8160000151826020015183604001518460600151604051602001808581526020018481526020018373ffffffffffffffffffffffffffffffffffffffff1673ffffffffffffffffffffffffffffffffffffffff1681526020018273ffffffffffffffffffffffffffffffffffffffff1673ffffffffffffffffffffffffffffffffffffffff1681526020019450505050506040516020818303038152906040529a505050505050505050505092915050565b6040518060400160405280600281526020017f3a9900000000000000000000000000000000000000000000000000000000000081525081565b613a9981565b6000612652614c42565b61269f88888080601f016020809104026020016040519081016040528093929190818152602001838380828437600081840152601f19601f82011690508083019250505050505050613af5565b905060008060006126f389898080601f016020809104026020016040519081016040528093929190818152602001838380828437600081840152601f19601f82011690508083019250505050505050613bdb565b93505092509250606061275161274c89898080601f016020809104026020016040519081016040528093929190818152602001838380828437600081840152601f19601f82011690508083019250505050505050612b19565b612b47565b905061275b614b85565b61278061277b83600a8151811061276e57fe5b6020026020010151612e35565b613c45565b90508373ffffffffffffffffffffffffffffffffffffffff16816060015173ffffffffffffffffffffffffffffffffffffffff161461280a576040517f08c379a000000000000000000000000000000000000000000000000000000000815260040180806020018281038252604a815260200180614cf4604a913960600191505060405180910390fd5b612812614bee565b61285b6128328460068151811061282557fe5b6020026020010151612e35565b61284f8560098151811061284257fe5b6020026020010151612ec1565b84606001516001612f32565b905061296581602001516000809054906101000a900473ffffffffffffffffffffffffffffffffffffffff1673ffffffffffffffffffffffffffffffffffffffff1663ad1d80698d8d600060016040518563ffffffff1660e01b815260040180806020018460ff168152602001831515151581526020018281038252868682818152602001925080828437600081840152601f19601f8201169050808301925050509550505050505060206040518083038186803b15801561291c57600080fd5b505afa158015612930573d6000803e3d6000fd5b505050506040513d602081101561294657600080fd5b81019080805190602001909291905050506133a190919063ffffffff16565b8160200181815250508373ffffffffffffffffffffffffffffffffffffffff16816040015173ffffffffffffffffffffffffffffffffffffffff161480156129dc57508373ffffffffffffffffffffffffffffffffffffffff16826040015173ffffffffffffffffffffffffffffffffffffffff16145b612a31576040517f08c379a000000000000000000000000000000000000000000000000000000000815260040180806020018281038252604c815260200180614e7c604c913960600191505060405180910390fd5b8581602001511015612aa2578160200151876020015114612a9d576040517f08c379a0000000000000000000000000000000000000000000000000000000008152600401808060200182810382526021815260200180614d3e6021913960400191505060405180910390fd5b612b04565b816020015187602001511415612b03576040517f08c379a0000000000000000000000000000000000000000000000000000000008152600401808060200182810382526021815260200180614d3e6021913960400191505060405180910390fd5b5b60019750505050505050509695505050505050565b612b21614cbf565b600060208301905060405180604001604052808451815260200182815250915050919050565b6060612b5282613da9565b612b5b57600080fd5b6000612b6683613df7565b9050606081604051908082528060200260200182016040528015612ba457816020015b612b91614cd9565b815260200190600190039081612b895790505b5090506000612bb68560200151613e68565b8560200151019050600080600090505b84811015612c1757612bd783613ef1565b9150604051806040016040528083815260200184815250848281518110612bfa57fe5b602002602001018190525081830192508080600101915050612bc6565b5082945050505050919050565b612c2c614b85565b6060612c3f612c3a84612b19565b612b47565b90506009815114612cb8576040517f08c379a00000000000000000000000000000000000000000000000000000000081526004018080602001828103825260158152602001807f4d414c464f524d45445f57495448445241575f5458000000000000000000000081525060200191505060405180910390fd5b612cd581600381518110612cc857fe5b6020026020010151613566565b826040019073ffffffffffffffffffffffffffffffffffffffff16908173ffffffffffffffffffffffffffffffffffffffff1681525050612d1581613fa9565b8360600184602001828152508273ffffffffffffffffffffffffffffffffffffffff1673ffffffffffffffffffffffffffffffffffffffff1681525050503373ffffffffffffffffffffffffffffffffffffffff16826060015173ffffffffffffffffffffffffffffffffffffffff161415612ddd57612db0612dab82600581518110612d9e57fe5b6020026020010151612e35565b6143d8565b8360000184608001826003811115612dc457fe5b6003811115612dcf57fe5b815250828152505050612e2f565b612e02612dfd82600581518110612df057fe5b6020026020010151612e35565b61452f565b826000018181525050600282608001906003811115612e1d57fe5b90816003811115612e2a57fe5b815250505b50919050565b60606000826000015111612e4857600080fd5b6000612e578360200151613e68565b905060008184600001510390506060816040519080825280601f01601f191660200182016040528015612e995781602001600182028038833980820191505090505b5090506000816020019050612eb5848760200151018285614687565b81945050505050919050565b6000808260000151118015612edb57506021826000015111155b612ee457600080fd5b6000612ef38360200151613e68565b90506000818460000151039050600080838660200151019050805191506020831015612f2657826020036101000a820491505b81945050505050919050565b612f3a614bee565b600a8410612fb0576040517f08c379a000000000000000000000000000000000000000000000000000000000815260040180806020018281038252601b8152602001807f537570706f7274696e672061206d6178206f66203130206c6f6773000000000081525060200191505060405180910390fd5b6060612fc3612fbe87612b19565b612b47565b9050612ffd612fe582600381518110612fd857fe5b6020026020010151612b47565b8681518110612ff057fe5b6020026020010151612b47565b905061301c8160008151811061300f57fe5b6020026020010151613566565b826040019073ffffffffffffffffffffffffffffffffffffffff16908173ffffffffffffffffffffffffffffffffffffffff168152505060606130728260028151811061306557fe5b6020026020010151612e35565b90506130918260018151811061308457fe5b6020026020010151612b47565b915060006130b2836000815181106130a557fe5b6020026020010151612ec1565b60001b90506130d4836001815181106130c757fe5b6020026020010151612ec1565b846060019073ffffffffffffffffffffffffffffffffffffffff16908173ffffffffffffffffffffffffffffffffffffffff16815250507f4dfe1bbbcf077ddc3e01291eea2d5c70c2b422b415d95645b9adcfd678cb1d6360001b81141561324c57600260009054906101000a900473ffffffffffffffffffffffffffffffffffffffff1673ffffffffffffffffffffffffffffffffffffffff16636e86b77085606001516040518263ffffffff1660e01b8152600401808273ffffffffffffffffffffffffffffffffffffffff1673ffffffffffffffffffffffffffffffffffffffff16815260200191505060206040518083038186803b1580156131d957600080fd5b505afa1580156131ed573d6000803e3d6000fd5b505050506040513d602081101561320357600080fd5b8101908080519060200190929190505050846060019073ffffffffffffffffffffffffffffffffffffffff16908173ffffffffffffffffffffffffffffffffffffffff16815250505b84156132615761325c83876135b1565b61327f565b61326c83838861374f565b8560000186602001828152508281525050505b6132a9613296600a89613a6f90919063ffffffff16565b85602001516133a190919063ffffffff16565b846020018181525050505050949350505050565b6000826000015182600001511015613320576040517f08c379a0000000000000000000000000000000000000000000000000000000008152600401808060200182810382526028815260200180614dbb6028913960400191505060405180910390fd5b6001600381111561332d57fe5b8360800151600381111561333d57fe5b14156133655761335e8360000151836000015161351c90919063ffffffff16565b905061339b565b60038081111561337157fe5b8360800151600381111561338157fe5b1415613393578160000151905061339b565b826000015190505b92915050565b60008082840190508381101561341f576040517f08c379a000000000000000000000000000000000000000000000000000000000815260040180806020018281038252601b8152602001807f536166654d6174683a206164646974696f6e206f766572666c6f77000000000081525060200191505060405180910390fd5b8091505092915050565b6000809054906101000a900473ffffffffffffffffffffffffffffffffffffffff1673ffffffffffffffffffffffffffffffffffffffff166108fc67016345785d8a00009081150290604051600060405180830381858888f19350505050158015613498573d6000803e3d6000fd5b50565b6000818310156134ab57816134ad565b825b905092915050565b6000806000808480602001905160808110156134d057600080fd5b8101908080519060200190929190805190602001909291908051906020019092919080519060200190929190505050829250819150809450819550829650839750505050509193509193565b600061355e83836040518060400160405280601e81526020017f536166654d6174683a207375627472616374696f6e206f766572666c6f7700008152506146ee565b905092915050565b6000601582600001511461357957600080fd5b61358282612ec1565b9050919050565b6000602082018351101561359c57600080fd5b60008260208501015190508091505092915050565b60006135d0836000815181106135c357fe5b6020026020010151612ec1565b60001b90507febff2602b3f468259e1e99f613fed6691f3a6526effe6ef3e768ba7ae7a36c4f60001b81148061362857507fe6497e3ee548a3372136af2fcb0696db31fc6cf20260707645068bd3fe97f3c460001b81145b8061365557507f4dfe1bbbcf077ddc3e01291eea2d5c70c2b422b415d95645b9adcfd678cb1d6360001b81145b6136aa576040517f08c379a000000000000000000000000000000000000000000000000000000000815260040180806020018281038252602d815260200180614d8e602d913960400191505060405180910390fd5b6136c7836002815181106136ba57fe5b6020026020010151612ec1565b73ffffffffffffffffffffffffffffffffffffffff168273ffffffffffffffffffffffffffffffffffffffff161461374a576040517f08c379a000000000000000000000000000000000000000000000000000000000815260040180806020018281038252602a815260200180614f5c602a913960400191505060405180910390fd5b505050565b60008060006137718660008151811061376457fe5b6020026020010151612ec1565b60001b90507f4e2ca0515ed1aef1395f66b5303bb5d6f1bf9d61a353fa53f73f8ac9973fa9f660001b8114806137c957507febff2602b3f468259e1e99f613fed6691f3a6526effe6ef3e768ba7ae7a36c4f60001b81145b15613880576137eb866002815181106137de57fe5b6020026020010151612ec1565b73ffffffffffffffffffffffffffffffffffffffff168473ffffffffffffffffffffffffffffffffffffffff161461386e576040517f08c379a0000000000000000000000000000000000000000000000000000000008152600401808060200182810382526029815260200180614e0b6029913960400191505060405180910390fd5b613879856040613589565b9250613a66565b7fe6497e3ee548a3372136af2fcb0696db31fc6cf20260707645068bd3fe97f3c460001b8114806138d357507f4dfe1bbbcf077ddc3e01291eea2d5c70c2b422b415d95645b9adcfd678cb1d6360001b81145b156139f7576138f5866002815181106138e857fe5b6020026020010151612ec1565b73ffffffffffffffffffffffffffffffffffffffff168473ffffffffffffffffffffffffffffffffffffffff16141561393a57613933856060613589565b92506139f2565b6139578660038151811061394a57fe5b6020026020010151612ec1565b73ffffffffffffffffffffffffffffffffffffffff168473ffffffffffffffffffffffffffffffffffffffff1614156139a057613995856080613589565b9250600191506139f1565b6040517f08c379a0000000000000000000000000000000000000000000000000000000008152600401808060200182810382526027815260200180614e346027913960400191505060405180910390fd5b5b613a65565b6040517f08c379a00000000000000000000000000000000000000000000000000000000081526004018080602001828103825260178152602001807f457869742074797065206e6f7420737570706f7274656400000000000000000081525060200191505060405180910390fd5b5b50935093915050565b600080831415613a825760009050613aef565b6000828402905082848281613a9357fe5b0414613aea576040517f08c379a0000000000000000000000000000000000000000000000000000000008152600401808060200182810382526021815260200180614e5b6021913960400191505060405180910390fd5b809150505b92915050565b613afd614c42565b60008060008060008680602001905160a0811015613b1a57600080fd5b810190808051906020019092919080519060200190929190805190602001909291908051906020019092919080519060200190929190505050945094509450945094506040518060c001604052808481526020018381526020018673ffffffffffffffffffffffffffffffffffffffff1681526020018573ffffffffffffffffffffffffffffffffffffffff1681526020018215158152602001600073ffffffffffffffffffffffffffffffffffffffff1681525095505050505050919050565b600080600080848060200190516080811015613bf657600080fd5b8101908080519060200190929190805190602001909291908051906020019092919080519060200190929190505050829250819150809050809450819550829650839750505050509193509193565b613c4d614b85565b6060613c60613c5b84612b19565b612b47565b90506009815114613cd9576040517f08c379a00000000000000000000000000000000000000000000000000000000081526004018080602001828103825260158152602001807f4d414c464f524d45445f57495448445241575f5458000000000000000000000081525060200191505060405180910390fd5b613cf681600381518110613ce957fe5b6020026020010151613566565b826040019073ffffffffffffffffffffffffffffffffffffffff16908173ffffffffffffffffffffffffffffffffffffffff1681525050613d3681613fa9565b8360600184602001828152508273ffffffffffffffffffffffffffffffffffffffff1673ffffffffffffffffffffffffffffffffffffffff168152505050613d99613d9482600581518110613d8757fe5b6020026020010151612e35565b6143d8565b5082600001818152505050919050565b60008082600001511415613dc05760009050613df2565b60008083602001519050805160001a915060c060ff168260ff161015613deb57600092505050613df2565b6001925050505b919050565b60008082600001511415613e0e5760009050613e63565b60008090506000613e228460200151613e68565b84602001510190506000846000015185602001510190505b80821015613e5c57613e4b82613ef1565b820191508280600101935050613e3a565b8293505050505b919050565b600080825160001a9050608060ff16811015613e88576000915050613eec565b60b860ff16811080613ead575060c060ff168110158015613eac575060f860ff1681105b5b15613ebc576001915050613eec565b60c060ff16811015613edc5760018060b80360ff16820301915050613eec565b60018060f80360ff168203019150505b919050565b6000806000835160001a9050608060ff16811015613f125760019150613f9f565b60b860ff16811015613f2f576001608060ff168203019150613f9e565b60c060ff16811015613f5f5760b78103600185019450806020036101000a85510460018201810193505050613f9d565b60f860ff16811015613f7c57600160c060ff168203019150613f9c565b60f78103600185019450806020036101000a855104600182018101935050505b5b5b5b8192505050919050565b60008060606009604051908082528060200260200182016040528015613fe357816020015b6060815260200190600190039081613fce5790505b50905060008090505b60058160ff161161403d57614016858260ff168151811061400957fe5b6020026020010151612e35565b828260ff168151811061402557fe5b60200260200101819052508080600101915050613fec565b506040518060400160405280600281526020017f3a990000000000000000000000000000000000000000000000000000000000008152508160068151811061408157fe5b602002602001018190525060405180602001604052806000815250816007815181106140a957fe5b602002602001018190525060405180602001604052806000815250816008815181106140d157fe5b60200260200101819052506140e5816147ae565b80519060200120915060018273__Common________________________________63b40b539b6141288860068151811061411b57fe5b6020026020010151612e35565b73__Common________________________________634d66a2ae6040518060400160405280600281526020017f3a990000000000000000000000000000000000000000000000000000000000008152506040518263ffffffff1660e01b81526004018080602001828103825283818151815260200191508051906020019080838360005b838110156141c75780820151818401526020810190506141ac565b50505050905090810190601f1680156141f45780820380516001836020036101000a031916815260200191505b509250505060206040518083038186803b15801561421157600080fd5b505af4158015614225573d6000803e3d6000fd5b505050506040513d602081101561423b57600080fd5b81019080805190602001909291905050506040518363ffffffff1660e01b815260040180806020018361ffff1661ffff168152602001828103825284818151815260200191508051906020019080838360005b838110156142a957808201518184015260208101905061428e565b50505050905090810190601f1680156142d65780820380516001836020036101000a031916815260200191505b50935050505060206040518083038186803b1580156142f457600080fd5b505af4158015614308573d6000803e3d6000fd5b505050506040513d602081101561431e57600080fd5b810190808051906020019092919050505061434c8760078151811061433f57fe5b6020026020010151612ec1565b60001b61436c8860088151811061435f57fe5b6020026020010151612ec1565b60001b60405160008152602001604052604051808581526020018460ff1660ff1681526020018381526020018281526020019450505050506020604051602081039080840390855afa1580156143c6573d6000803e3d6000fd5b50505060206040510351925050915091565b60008060006143f26143ed8560006004614812565b61489e565b9050632e1a7d4d60e01b7bffffffffffffffffffffffffffffffffffffffffffffffffffffffff1916817bffffffffffffffffffffffffffffffffffffffffffffffffffffffff191614156144575761444c846004613589565b925060039150614529565b63a9059cbb60e01b7bffffffffffffffffffffffffffffffffffffffffffffffffffffffff1916817bffffffffffffffffffffffffffffffffffffffffffffffffffffffff191614156144ba576144af846024613589565b925060019150614528565b6040517f08c379a000000000000000000000000000000000000000000000000000000000815260040180806020018281038252601a8152602001807f457869742074782074797065206e6f7420737570706f7274656400000000000081525060200191505060405180910390fd5b5b50915091565b6000806145476145428460006004614812565b61489e565b905063a9059cbb60e01b7bffffffffffffffffffffffffffffffffffffffffffffffffffffffff1916817bffffffffffffffffffffffffffffffffffffffffffffffffffffffff1916146145e6576040517f08c379a0000000000000000000000000000000000000000000000000000000008152600401808060200182810382526027815260200180614ec86027913960400191505060405180910390fd5b6145f1836004613589565b73ffffffffffffffffffffffffffffffffffffffff163373ffffffffffffffffffffffffffffffffffffffff1614614674576040517f08c379a000000000000000000000000000000000000000000000000000000000815260040180806020018281038252602c815260200180614f86602c913960400191505060405180910390fd5b61467f836024613589565b915050919050565b6000811415614695576146e9565b5b602060ff1681106146c55782518252602060ff1683019250602060ff1682019150602060ff1681039050614696565b6000600182602060ff16036101000a03905080198451168184511681811785525050505b505050565b600083831115829061479b576040517f08c379a00000000000000000000000000000000000000000000000000000000081526004018080602001828103825283818151815260200191508051906020019080838360005b83811015614760578082015181840152602081019050614745565b50505050905090810190601f16801561478d5780820380516001836020036101000a031916815260200191505b509250505060405180910390fd5b5060008385039050809150509392505050565b60608060008090505b83518110156147f4576147e5826147e08684815181106147d357fe5b60200260200101516148ac565b614948565b915080806001019150506147b7565b5061480a614804825160c06149d2565b82614948565b915050919050565b60608183018451101561482457600080fd5b606082156000811461484157604051915060208201604052614892565b6040519150601f8416801560200281840101858101878315602002848b0101015b8183101561487f5780518352602083019250602081019050614862565b50868552601f19601f8301166040525050505b50809150509392505050565b600060208201519050919050565b606080600183511480156148e35750608060ff60f81b846000815181106148cf57fe5b602001015160f81c60f81b1660f81c60ff16105b156149275760016040519080825280601f01601f19166020018201604052801561491c5781602001600182028038833980820191505090505b50905082905061493f565b61493c614936845160806149d2565b84614948565b90505b80915050919050565b6060806040519050835180825260208201818101602087015b8183101561497e5780518352602083019250602081019050614961565b50855192508351830184528091508282019050602086015b818310156149b35780518352602083019250602081019050614996565b50601f19601f8851850115830101166040525050508091505092915050565b60606038831015614a6157606060016040519080825280601f01601f191660200182016040528015614a135781602001600182028038833980820191505090505b50905082840160f81b81600081518110614a2957fe5b60200101907effffffffffffffffffffffffffffffffffffffffffffffffffffffffffffff1916908160001a90535080915050614abe565b600080600190505b6000818681614a7457fe5b0414614a8e57818060010192505061010081029050614a69565b6060614a9e836037870101614ac4565b90506060614aab87614ac4565b9050614ab78282614948565b9450505050505b92915050565b606060006001905060ff831115614ada57600290505b806040519080825280601f01601f191660200182016040528015614b0d5781602001600182028038833980820191505090505b50915060008090505b81811015614b7e5780600183030360080260020a8481614b3257fe5b0460f81b838281518110614b4257fe5b60200101907effffffffffffffffffffffffffffffffffffffffffffffffffffffffffffff1916908160001a9053508080600101915050614b16565b5050919050565b6040518060a001604052806000815260200160008019168152602001600073ffffffffffffffffffffffffffffffffffffffff168152602001600073ffffffffffffffffffffffffffffffffffffffff16815260200160006003811115614be857fe5b81525090565b60405180608001604052806000815260200160008152602001600073ffffffffffffffffffffffffffffffffffffffff168152602001600073ffffffffffffffffffffffffffffffffffffffff1681525090565b6040518060c001604052806000815260200160008019168152602001600073ffffffffffffffffffffffffffffffffffffffff168152602001600073ffffffffffffffffffffffffffffffffffffffff168152602001600015158152602001600073ffffffffffffffffffffffffffffffffffffffff1681525090565b604051806040016040528060008152602001600081525090565b60405180604001604052806000815260200160008152509056fe4368616c6c656e6765207478206e6f74207369676e6564206279207468652070617274792077686f207369676e65642074686520696e707574205554584f20746f20746865206578697443616e6e6f74206368616c6c656e676520776974682074686520657869742074786368696c6420746f6b656e7320696e20746865207265666572656e6365642074787320646f206e6f74206d617463684c6f67207369676e617475726520646f65736e74207175616c69667920617320612076616c6964207370656e6445786974696e672077697468206d6f726520746f6b656e73207468616e207265666572656e6365645769746864726177657220616e64206275726e206578697420747820646f206e6f74206d617463685769746864726177657220616e64207265666572656e63656420747820646f206e6f74206d617463687478202f206c6f6720646f65736e7420636f6e6365726e20746865207061727469636970616e74536166654d6174683a206d756c7469706c69636174696f6e206f766572666c6f774c6f675472616e73666572526563656970742c206368616c6c656e6765547820746f6b656e20616e64206368616c6c656e676564207574786f20746f6b656e20646f206e6f74206d617463684f6e6c7920737570706f7274732065786974696e672066726f6d207472616e7366657220747873726f6f7420746f6b656e7320696e20746865207265666572656e6365642074787320646f206e6f74206d617463685265666572656e636520616e64206578697420747820646f206e6f7420636f72726573706f6e6420746f207468652073616d65206368696c6420746f6b656e7061727469636970616e7420616e64207265666572656e63656420747820646f206e6f74206d61746368457869746f722073686f756c642062652074686520726563656976657220696e207468652065786974207478a265627a7a7231582068b5d7c224fde4604180728cfd8db949f5e5171c2027865a9f231d5e86618c4964736f6c63430005110032",
  "compiler": {
    "name": "solc",
    "version": "0.5.17+commit.d19bba13.Emscripten.clang",
    "optimizer": {
      "enabled": false,
      "runs": 200
    },
    "evmVersion": "petersburg"
  }
}