{
  "fileName": "SubredditPoints_v0.sol",
  "contractName": "SubredditPoints_v0",
  "source": "pragma solidity >=0.5.0 < 0.6.0;\n\nimport \"./ISubredditPoints.sol\";\nimport \"./contracts-package/Initializable.sol\";\nimport \"./contracts-package/Ownable.sol\";\nimport \"./contracts-package/ERC20.sol\";\nimport \"./libraries/Address.sol\";\n\nimport \"./GSN/UpdatableGSNRecipientSignature.sol\";\n// ERC20 and borrows only operators notion from ERC777, accounts can revoke default operator\ncontract SubredditPoints_v0 is Initializable, ISubredditPoints, Ownable, UpdatableGSNRecipientSignature, ERC20 {\n    using SafeMath for uint256;\n    using Address for address;\n\n    event Sent(\n        address indexed operator,\n        address indexed from,\n        address indexed to,\n        uint256 amount,\n        bytes data,\n        bytes operatorData\n    );\n\n    event Minted(address indexed operator, address indexed to, uint256 amount, bytes data, bytes operatorData);\n\n    event Burned(address indexed operator, address indexed from, uint256 amount, bytes data, bytes operatorData);\n\n    event AuthorizedOperator(address indexed operator, address indexed tokenHolder);\n\n    event RevokedOperator(address indexed operator, address indexed tokenHolder);\n\n    event DefaultOperatorAdded(address indexed operator);\n\n    event DefaultOperatorRemoved(address indexed operator);\n\n    // ------------------------------------------------------------------------------------\n    // VARIABLES BLOCK, MAKE SURE ONLY ADD TO THE END\n\n    string private _subreddit;\n    string private _name;\n    string private _symbol;\n\n    // operators notion from ERC777, accounts can revoke default operator\n    mapping(address => bool) private _defaultOperators;\n\n    // Maps operators and revoked default operators to state (enabled/disabled)\n    mapping(address => mapping(address => bool)) private _operators;\n    mapping(address => mapping(address => bool)) private _revokedDefaultOperators;\n\n    // operators notion from ERC777, accounts can revoke default operator\n    // This isn't ever read from - it's only used to respond to the defaultOperators query.\n    address[] private _defaultOperatorsArray;\n\n    address _distributionContract;\n\n    // END OF VARS\n    // ------------------------------------------------------------------------------------\n\n    function initialize (\n        address owner_, // owner of the contract\n        address distributionContract_, // address of deployed distr contract\n        string calldata subreddit_, // name of the subreddit\n        string calldata name_, // name of the token - erc20\n        string calldata symbol_, // symbol of the token\n        address[] calldata defaultOperators_, // erc777 operators - one is subscriptions contract\n        address gsnApprover_\n    ) external initializer {\n        require(bytes(subreddit_).length != 0, \"SubredditPoints: subreddit can't be empty\");\n        require(bytes(name_).length != 0, \"SubredditPoints: name can't be empty\");\n        require(bytes(symbol_).length != 0, \"SubredditPoints: symbol can't be empty\");\n        require(owner_ != address(0), \"SubredditPoints: owner should not be 0\");\n\n        Ownable.initialize(owner_);\n        UpdatableGSNRecipientSignature.initialize(gsnApprover_);\n\n        updateDistributionContract(distributionContract_);\n\n        _subreddit = subreddit_;\n        _name = name_;\n        _symbol = symbol_;\n\n        _defaultOperatorsArray = defaultOperators_;\n        for (uint256 i = 0; i < defaultOperators_.length; i++) {\n            _defaultOperators[defaultOperators_[i]] = true;\n            emit DefaultOperatorAdded(defaultOperators_[i]);\n        }\n    }\n\n    function mint(\n        address operator,\n        address account,\n        uint256 amount,\n        bytes calldata userData,\n        bytes calldata operatorData\n    ) external {\n        require(_msgSender() == _distributionContract, \"SubredditPoints: only distribution contract can mint points\");\n\n        ERC20._mint(account, amount);\n        emit Minted(operator, account, amount, userData, operatorData);\n    }\n\n    function burn(\n        uint256 amount,\n        bytes calldata userData\n    ) external {\n        address account = _msgSender();\n        _burn(account, account, amount, userData, \"\");\n    }\n\n    function isOperatorFor(\n        address operator,\n        address tokenHolder\n    ) public view returns (bool) {\n        return operator == tokenHolder ||\n            (_defaultOperators[operator] && !_revokedDefaultOperators[tokenHolder][operator]) ||\n            _operators[tokenHolder][operator];\n    }\n\n    function authorizeOperator(address operator) external {\n        require(_msgSender() != operator, \"SubredditPoints: authorizing self as operator\");\n        require(address(0) != operator, \"SubredditPoints: operator can't have 0 address\");\n\n        if (_defaultOperators[operator]) {\n            delete _revokedDefaultOperators[_msgSender()][operator];\n        } else {\n            _operators[_msgSender()][operator] = true;\n        }\n\n        emit AuthorizedOperator(operator, _msgSender());\n    }\n\n    function revokeOperator(address operator) external {\n        require(operator != _msgSender(), \"SubredditPoints: revoking self as operator\");\n        require(address(0) != operator, \"SubredditPoints: operator can't have 0 address\");\n\n        if (_defaultOperators[operator]) {\n            _revokedDefaultOperators[_msgSender()][operator] = true;\n        } else {\n            delete _operators[_msgSender()][operator];\n        }\n\n        emit RevokedOperator(operator, _msgSender());\n    }\n\n    function operatorSend(\n        address sender,\n        address recipient,\n        uint256 amount,\n        bytes calldata userData,\n        bytes calldata operatorData\n    ) external {\n        address operator = _msgSender();\n        require(isOperatorFor(operator, sender), \"SubredditPoints: caller is not an operator for holder\");\n        _transfer(sender, recipient, amount);\n        emit Sent(operator, sender, recipient, amount, userData, operatorData);\n    }\n\n    function operatorBurn(\n        address account,\n        uint256 amount,\n        bytes calldata data,\n        bytes calldata operatorData\n    ) external {\n        address operator = _msgSender();\n        require(isOperatorFor(operator, account), \"SubredditPoints: caller is not an operator for holder\");\n        _burn(operator, account, amount, data, operatorData);\n    }\n\n    function defaultOperators() external view returns (address[] memory) {\n        return _defaultOperatorsArray;\n    }\n\n    function addDefaultOperator(address operator) external onlyOwner {\n        require(operator != address(0), \"SubredditPoints: operator address shouldn't be 0\");\n        require(!_defaultOperators[operator], \"SubredditPoints: operator already exists\");\n\n        _defaultOperatorsArray.push(operator);\n        _defaultOperators[operator] = true;\n\n        emit DefaultOperatorAdded(operator);\n    }\n\n    function removeDefaultOperator(address operator) external onlyOwner {\n        require(operator != address(0), \"SubredditPoints: operator address shouldn't be 0\");\n        require(_defaultOperators[operator], \"SubredditPoints: operator doesn't exists\");\n\n        for (uint256 i = 0; i < _defaultOperatorsArray.length; i++) {\n            if (_defaultOperatorsArray[i] == operator) {\n                if (i != (_defaultOperatorsArray.length - 1)) { // if it's not last element, replace it from the tail\n                    _defaultOperatorsArray[i] = _defaultOperatorsArray[_defaultOperatorsArray.length-1];\n                }\n                _defaultOperatorsArray.length = _defaultOperatorsArray.length - 1;\n                break;\n            }\n        }\n        delete _defaultOperators[operator];\n\n        emit DefaultOperatorRemoved(operator);\n    }\n\n    function _burn(\n        address operator,\n        address account,\n        uint256 amount,\n        bytes memory userData,\n        bytes memory operatorData\n    ) internal {\n        ERC20._burn(account, amount);\n        emit Burned(operator, account, amount, userData, operatorData);\n    }\n\n    function subreddit() external view returns (string memory) {\n        return _subreddit;\n    }\n\n    function name() external view returns (string memory) {\n        return _name;\n    }\n\n    function symbol() external view returns (string memory) {\n        return _symbol;\n    }\n\n    // function updateGSNApprover(address gsnApprover) external onlyOwner {\n    //     updateSigner(gsnApprover);\n    // }\n\n    function updateDistributionContract(address distributionContract_) public onlyOwner {\n        require(distributionContract_ != address(0), \"SubredditPoints: distributionContract should not be 0\");\n        _distributionContract = distributionContract_;\n    }\n\n    function distributionContract() external view returns (address) {\n        return _distributionContract;\n    }\n}",
  "sourcePath": "contracts/SubredditPoints_v0.sol",
  "abi": [
    {
      "anonymous": false,
      "inputs": [
        {
          "indexed": true,
          "internalType": "address",
          "name": "owner",
          "type": "address"
        },
        {
          "indexed": true,
          "internalType": "address",
          "name": "spender",
          "type": "address"
        },
        {
          "indexed": false,
          "internalType": "uint256",
          "name": "value",
          "type": "uint256"
        }
      ],
      "name": "Approval",
      "type": "event"
    },
    {
      "anonymous": false,
      "inputs": [
        {
          "indexed": true,
          "internalType": "address",
          "name": "operator",
          "type": "address"
        },
        {
          "indexed": true,
          "internalType": "address",
          "name": "tokenHolder",
          "type": "address"
        }
      ],
      "name": "AuthorizedOperator",
      "type": "event"
    },
    {
      "anonymous": false,
      "inputs": [
        {
          "indexed": true,
          "internalType": "address",
          "name": "operator",
          "type": "address"
        },
        {
          "indexed": true,
          "internalType": "address",
          "name": "from",
          "type": "address"
        },
        {
          "indexed": false,
          "internalType": "uint256",
          "name": "amount",
          "type": "uint256"
        },
        {
          "indexed": false,
          "internalType": "bytes",
          "name": "data",
          "type": "bytes"
        },
        {
          "indexed": false,
          "internalType": "bytes",
          "name": "operatorData",
          "type": "bytes"
        }
      ],
      "name": "Burned",
      "type": "event"
    },
    {
      "anonymous": false,
      "inputs": [
        {
          "indexed": true,
          "internalType": "address",
          "name": "operator",
          "type": "address"
        }
      ],
      "name": "DefaultOperatorAdded",
      "type": "event"
    },
    {
      "anonymous": false,
      "inputs": [
        {
          "indexed": true,
          "internalType": "address",
          "name": "operator",
          "type": "address"
        }
      ],
      "name": "DefaultOperatorRemoved",
      "type": "event"
    },
    {
      "anonymous": false,
      "inputs": [
        {
          "indexed": true,
          "internalType": "address",
          "name": "operator",
          "type": "address"
        },
        {
          "indexed": true,
          "internalType": "address",
          "name": "to",
          "type": "address"
        },
        {
          "indexed": false,
          "internalType": "uint256",
          "name": "amount",
          "type": "uint256"
        },
        {
          "indexed": false,
          "internalType": "bytes",
          "name": "data",
          "type": "bytes"
        },
        {
          "indexed": false,
          "internalType": "bytes",
          "name": "operatorData",
          "type": "bytes"
        }
      ],
      "name": "Minted",
      "type": "event"
    },
    {
      "anonymous": false,
      "inputs": [
        {
          "indexed": true,
          "internalType": "address",
          "name": "previousOwner",
          "type": "address"
        },
        {
          "indexed": true,
          "internalType": "address",
          "name": "newOwner",
          "type": "address"
        }
      ],
      "name": "OwnershipTransferred",
      "type": "event"
    },
    {
      "anonymous": false,
      "inputs": [
        {
          "indexed": true,
          "internalType": "address",
          "name": "oldRelayHub",
          "type": "address"
        },
        {
          "indexed": true,
          "internalType": "address",
          "name": "newRelayHub",
          "type": "address"
        }
      ],
      "name": "RelayHubChanged",
      "type": "event"
    },
    {
      "anonymous": false,
      "inputs": [
        {
          "indexed": true,
          "internalType": "address",
          "name": "operator",
          "type": "address"
        },
        {
          "indexed": true,
          "internalType": "address",
          "name": "tokenHolder",
          "type": "address"
        }
      ],
      "name": "RevokedOperator",
      "type": "event"
    },
    {
      "anonymous": false,
      "inputs": [
        {
          "indexed": true,
          "internalType": "address",
          "name": "operator",
          "type": "address"
        },
        {
          "indexed": true,
          "internalType": "address",
          "name": "from",
          "type": "address"
        },
        {
          "indexed": true,
          "internalType": "address",
          "name": "to",
          "type": "address"
        },
        {
          "indexed": false,
          "internalType": "uint256",
          "name": "amount",
          "type": "uint256"
        },
        {
          "indexed": false,
          "internalType": "bytes",
          "name": "data",
          "type": "bytes"
        },
        {
          "indexed": false,
          "internalType": "bytes",
          "name": "operatorData",
          "type": "bytes"
        }
      ],
      "name": "Sent",
      "type": "event"
    },
    {
      "anonymous": false,
      "inputs": [
        {
          "indexed": false,
          "internalType": "address",
          "name": "signer",
          "type": "address"
        }
      ],
      "name": "SignerUpdated",
      "type": "event"
    },
    {
      "anonymous": false,
      "inputs": [
        {
          "indexed": true,
          "internalType": "address",
          "name": "from",
          "type": "address"
        },
        {
          "indexed": true,
          "internalType": "address",
          "name": "to",
          "type": "address"
        },
        {
          "indexed": false,
          "internalType": "uint256",
          "name": "value",
          "type": "uint256"
        }
      ],
      "name": "Transfer",
      "type": "event"
    },
    {
      "constant": true,
      "inputs": [
        {
          "internalType": "address",
          "name": "relay",
          "type": "address"
        },
        {
          "internalType": "address",
          "name": "from",
          "type": "address"
        },
        {
          "internalType": "bytes",
          "name": "encodedFunction",
          "type": "bytes"
        },
        {
          "internalType": "uint256",
          "name": "transactionFee",
          "type": "uint256"
        },
        {
          "internalType": "uint256",
          "name": "gasPrice",
          "type": "uint256"
        },
        {
          "internalType": "uint256",
          "name": "gasLimit",
          "type": "uint256"
        },
        {
          "internalType": "uint256",
          "name": "nonce",
          "type": "uint256"
        },
        {
          "internalType": "bytes",
          "name": "approvalData",
          "type": "bytes"
        },
        {
          "internalType": "uint256",
          "name": "",
          "type": "uint256"
        }
      ],
      "name": "acceptRelayedCall",
      "outputs": [
        {
          "internalType": "uint256",
          "name": "",
          "type": "uint256"
        },
        {
          "internalType": "bytes",
          "name": "",
          "type": "bytes"
        }
      ],
      "payable": false,
      "stateMutability": "view",
      "type": "function"
    },
    {
      "constant": false,
      "inputs": [
        {
          "internalType": "address",
          "name": "operator",
          "type": "address"
        }
      ],
      "name": "addDefaultOperator",
      "outputs": [],
      "payable": false,
      "stateMutability": "nonpayable",
      "type": "function"
    },
    {
      "constant": true,
      "inputs": [
        {
          "internalType": "address",
          "name": "owner",
          "type": "address"
        },
        {
          "internalType": "address",
          "name": "spender",
          "type": "address"
        }
      ],
      "name": "allowance",
      "outputs": [
        {
          "internalType": "uint256",
          "name": "",
          "type": "uint256"
        }
      ],
      "payable": false,
      "stateMutability": "view",
      "type": "function"
    },
    {
      "constant": false,
      "inputs": [
        {
          "internalType": "address",
          "name": "spender",
          "type": "address"
        },
        {
          "internalType": "uint256",
          "name": "amount",
          "type": "uint256"
        }
      ],
      "name": "approve",
      "outputs": [
        {
          "internalType": "bool",
          "name": "",
          "type": "bool"
        }
      ],
      "payable": false,
      "stateMutability": "nonpayable",
      "type": "function"
    },
    {
      "constant": false,
      "inputs": [
        {
          "internalType": "address",
          "name": "operator",
          "type": "address"
        }
      ],
      "name": "authorizeOperator",
      "outputs": [],
      "payable": false,
      "stateMutability": "nonpayable",
      "type": "function"
    },
    {
      "constant": true,
      "inputs": [
        {
          "internalType": "address",
          "name": "account",
          "type": "address"
        }
      ],
      "name": "balanceOf",
      "outputs": [
        {
          "internalType": "uint256",
          "name": "",
          "type": "uint256"
        }
      ],
      "payable": false,
      "stateMutability": "view",
      "type": "function"
    },
    {
      "constant": false,
      "inputs": [
        {
          "internalType": "uint256",
          "name": "amount",
          "type": "uint256"
        },
        {
          "internalType": "bytes",
          "name": "userData",
          "type": "bytes"
        }
      ],
      "name": "burn",
      "outputs": [],
      "payable": false,
      "stateMutability": "nonpayable",
      "type": "function"
    },
    {
      "constant": false,
      "inputs": [
        {
          "internalType": "address",
          "name": "spender",
          "type": "address"
        },
        {
          "internalType": "uint256",
          "name": "subtractedValue",
          "type": "uint256"
        }
      ],
      "name": "decreaseAllowance",
      "outputs": [
        {
          "internalType": "bool",
          "name": "",
          "type": "bool"
        }
      ],
      "payable": false,
      "stateMutability": "nonpayable",
      "type": "function"
    },
    {
      "constant": true,
      "inputs": [],
      "name": "defaultOperators",
      "outputs": [
        {
          "internalType": "address[]",
          "name": "",
          "type": "address[]"
        }
      ],
      "payable": false,
      "stateMutability": "view",
      "type": "function"
    },
    {
      "constant": true,
      "inputs": [],
      "name": "distributionContract",
      "outputs": [
        {
          "internalType": "address",
          "name": "",
          "type": "address"
        }
      ],
      "payable": false,
      "stateMutability": "view",
      "type": "function"
    },
    {
      "constant": true,
      "inputs": [],
      "name": "getHubAddr",
      "outputs": [
        {
          "internalType": "address",
          "name": "",
          "type": "address"
        }
      ],
      "payable": false,
      "stateMutability": "view",
      "type": "function"
    },
    {
      "constant": false,
      "inputs": [
        {
          "internalType": "address",
          "name": "spender",
          "type": "address"
        },
        {
          "internalType": "uint256",
          "name": "addedValue",
          "type": "uint256"
        }
      ],
      "name": "increaseAllowance",
      "outputs": [
        {
          "internalType": "bool",
          "name": "",
          "type": "bool"
        }
      ],
      "payable": false,
      "stateMutability": "nonpayable",
      "type": "function"
    },
    {
      "constant": false,
      "inputs": [
        {
          "internalType": "address",
          "name": "owner_",
          "type": "address"
        },
        {
          "internalType": "address",
          "name": "distributionContract_",
          "type": "address"
        },
        {
          "internalType": "string",
          "name": "subreddit_",
          "type": "string"
        },
        {
          "internalType": "string",
          "name": "name_",
          "type": "string"
        },
        {
          "internalType": "string",
          "name": "symbol_",
          "type": "string"
        },
        {
          "internalType": "address[]",
          "name": "defaultOperators_",
          "type": "address[]"
        },
        {
          "internalType": "address",
          "name": "gsnApprover_",
          "type": "address"
        }
      ],
      "name": "initialize",
      "outputs": [],
      "payable": false,
      "stateMutability": "nonpayable",
      "type": "function"
    },
    {
      "constant": false,
      "inputs": [],
      "name": "initialize",
      "outputs": [],
      "payable": false,
      "stateMutability": "nonpayable",
      "type": "function"
    },
    {
      "constant": false,
      "inputs": [
        {
          "internalType": "address",
          "name": "trustedSigner",
          "type": "address"
        }
      ],
      "name": "initialize",
      "outputs": [],
      "payable": false,
      "stateMutability": "nonpayable",
      "type": "function"
    },
    {
      "constant": true,
      "inputs": [
        {
          "internalType": "address",
          "name": "operator",
          "type": "address"
        },
        {
          "internalType": "address",
          "name": "tokenHolder",
          "type": "address"
        }
      ],
      "name": "isOperatorFor",
      "outputs": [
        {
          "internalType": "bool",
          "name": "",
          "type": "bool"
        }
      ],
      "payable": false,
      "stateMutability": "view",
      "type": "function"
    },
    {
      "constant": true,
      "inputs": [],
      "name": "isOwner",
      "outputs": [
        {
          "internalType": "bool",
          "name": "",
          "type": "bool"
        }
      ],
      "payable": false,
      "stateMutability": "view",
      "type": "function"
    },
    {
      "constant": false,
      "inputs": [
        {
          "internalType": "address",
          "name": "operator",
          "type": "address"
        },
        {
          "internalType": "address",
          "name": "account",
          "type": "address"
        },
        {
          "internalType": "uint256",
          "name": "amount",
          "type": "uint256"
        },
        {
          "internalType": "bytes",
          "name": "userData",
          "type": "bytes"
        },
        {
          "internalType": "bytes",
          "name": "operatorData",
          "type": "bytes"
        }
      ],
      "name": "mint",
      "outputs": [],
      "payable": false,
      "stateMutability": "nonpayable",
      "type": "function"
    },
    {
      "constant": true,
      "inputs": [],
      "name": "name",
      "outputs": [
        {
          "internalType": "string",
          "name": "",
          "type": "string"
        }
      ],
      "payable": false,
      "stateMutability": "view",
      "type": "function"
    },
    {
      "constant": false,
      "inputs": [
        {
          "internalType": "address",
          "name": "account",
          "type": "address"
        },
        {
          "internalType": "uint256",
          "name": "amount",
          "type": "uint256"
        },
        {
          "internalType": "bytes",
          "name": "data",
          "type": "bytes"
        },
        {
          "internalType": "bytes",
          "name": "operatorData",
          "type": "bytes"
        }
      ],
      "name": "operatorBurn",
      "outputs": [],
      "payable": false,
      "stateMutability": "nonpayable",
      "type": "function"
    },
    {
      "constant": false,
      "inputs": [
        {
          "internalType": "address",
          "name": "sender",
          "type": "address"
        },
        {
          "internalType": "address",
          "name": "recipient",
          "type": "address"
        },
        {
          "internalType": "uint256",
          "name": "amount",
          "type": "uint256"
        },
        {
          "internalType": "bytes",
          "name": "userData",
          "type": "bytes"
        },
        {
          "internalType": "bytes",
          "name": "operatorData",
          "type": "bytes"
        }
      ],
      "name": "operatorSend",
      "outputs": [],
      "payable": false,
      "stateMutability": "nonpayable",
      "type": "function"
    },
    {
      "constant": true,
      "inputs": [],
      "name": "owner",
      "outputs": [
        {
          "internalType": "address",
          "name": "",
          "type": "address"
        }
      ],
      "payable": false,
      "stateMutability": "view",
      "type": "function"
    },
    {
      "constant": false,
      "inputs": [
        {
          "internalType": "bytes",
          "name": "context",
          "type": "bytes"
        },
        {
          "internalType": "bool",
          "name": "success",
          "type": "bool"
        },
        {
          "internalType": "uint256",
          "name": "actualCharge",
          "type": "uint256"
        },
        {
          "internalType": "bytes32",
          "name": "preRetVal",
          "type": "bytes32"
        }
      ],
      "name": "postRelayedCall",
      "outputs": [],
      "payable": false,
      "stateMutability": "nonpayable",
      "type": "function"
    },
    {
      "constant": false,
      "inputs": [
        {
          "internalType": "bytes",
          "name": "context",
          "type": "bytes"
        }
      ],
      "name": "preRelayedCall",
      "outputs": [
        {
          "internalType": "bytes32",
          "name": "",
          "type": "bytes32"
        }
      ],
      "payable": false,
      "stateMutability": "nonpayable",
      "type": "function"
    },
    {
      "constant": true,
      "inputs": [],
      "name": "relayHubVersion",
      "outputs": [
        {
          "internalType": "string",
          "name": "",
          "type": "string"
        }
      ],
      "payable": false,
      "stateMutability": "view",
      "type": "function"
    },
    {
      "constant": false,
      "inputs": [
        {
          "internalType": "address",
          "name": "operator",
          "type": "address"
        }
      ],
      "name": "removeDefaultOperator",
      "outputs": [],
      "payable": false,
      "stateMutability": "nonpayable",
      "type": "function"
    },
    {
      "constant": false,
      "inputs": [],
      "name": "renounceOwnership",
      "outputs": [],
      "payable": false,
      "stateMutability": "nonpayable",
      "type": "function"
    },
    {
      "constant": false,
      "inputs": [
        {
          "internalType": "address",
          "name": "operator",
          "type": "address"
        }
      ],
      "name": "revokeOperator",
      "outputs": [],
      "payable": false,
      "stateMutability": "nonpayable",
      "type": "function"
    },
    {
      "constant": false,
      "inputs": [],
      "name": "setDefaultRelayHub",
      "outputs": [],
      "payable": false,
      "stateMutability": "nonpayable",
      "type": "function"
    },
    {
      "constant": true,
      "inputs": [],
      "name": "subreddit",
      "outputs": [
        {
          "internalType": "string",
          "name": "",
          "type": "string"
        }
      ],
      "payable": false,
      "stateMutability": "view",
      "type": "function"
    },
    {
      "constant": true,
      "inputs": [],
      "name": "symbol",
      "outputs": [
        {
          "internalType": "string",
          "name": "",
          "type": "string"
        }
      ],
      "payable": false,
      "stateMutability": "view",
      "type": "function"
    },
    {
      "constant": true,
      "inputs": [],
      "name": "totalSupply",
      "outputs": [
        {
          "internalType": "uint256",
          "name": "",
          "type": "uint256"
        }
      ],
      "payable": false,
      "stateMutability": "view",
      "type": "function"
    },
    {
      "constant": false,
      "inputs": [
        {
          "internalType": "address",
          "name": "recipient",
          "type": "address"
        },
        {
          "internalType": "uint256",
          "name": "amount",
          "type": "uint256"
        }
      ],
      "name": "transfer",
      "outputs": [
        {
          "internalType": "bool",
          "name": "",
          "type": "bool"
        }
      ],
      "payable": false,
      "stateMutability": "nonpayable",
      "type": "function"
    },
    {
      "constant": false,
      "inputs": [
        {
          "internalType": "address",
          "name": "sender",
          "type": "address"
        },
        {
          "internalType": "address",
          "name": "recipient",
          "type": "address"
        },
        {
          "internalType": "uint256",
          "name": "amount",
          "type": "uint256"
        }
      ],
      "name": "transferFrom",
      "outputs": [
        {
          "internalType": "bool",
          "name": "",
          "type": "bool"
        }
      ],
      "payable": false,
      "stateMutability": "nonpayable",
      "type": "function"
    },
    {
      "constant": false,
      "inputs": [
        {
          "internalType": "address",
          "name": "newOwner",
          "type": "address"
        }
      ],
      "name": "transferOwnership",
      "outputs": [],
      "payable": false,
      "stateMutability": "nonpayable",
      "type": "function"
    },
    {
      "constant": false,
      "inputs": [
        {
          "internalType": "address",
          "name": "distributionContract_",
          "type": "address"
        }
      ],
      "name": "updateDistributionContract",
      "outputs": [],
      "payable": false,
      "stateMutability": "nonpayable",
      "type": "function"
    }
  ],
  "bytecode": "0x6080604052615473806100136000396000f3fe608060405234801561001057600080fd5b506004361061021c5760003560e01c80638da5cb5b11610125578063c4d66de8116100ad578063e699e8c31161007c578063e699e8c314611131578063f2fde38b14611175578063fad8b32a146111b9578063fc673c4f146111fd578063fe9d9303146112f55761021c565b8063c4d66de814610f60578063d95b637114610fa4578063dd62ed3e14611020578063e06e0e22146110985761021c565b8063a457c2d7116100f4578063a457c2d714610c76578063a9059cbb14610cdc578063ab89013b14610d42578063ad61ccd514610e5a578063bdc330cb14610edd5761021c565b80638da5cb5b14610b435780638f32d59b14610b8d578063959b8c3f14610baf57806395d89b4114610bf35761021c565b8063403f1ffa116101a8578063715018a611610177578063715018a61461089757806374e861d6146108a157806380274db7146108eb5780638129fc1c1461097857806383947ea0146109825761021c565b8063403f1ffa146106995780635a4528c2146106dd57806362ad1b831461072757806370a082311461083f5761021c565b80631220e2ff116101ef5780631220e2ff1461054157806318160ddd1461054b5780631b7d83e51461056957806323b872dd146105ad57806339509351146106335761021c565b806306e485381461022157806306fdde0314610280578063095ea7b314610303578063113cc85b14610369575b600080fd5b610229611378565b6040518080602001828103825283818151815260200191508051906020019060200280838360005b8381101561026c578082015181840152602081019050610251565b505050509050019250505060405180910390f35b610288611406565b6040518080602001828103825283818151815260200191508051906020019080838360005b838110156102c85780820151818401526020810190506102ad565b50505050905090810190601f1680156102f55780820380516001836020036101000a031916815260200191505b509250505060405180910390f35b61034f6004803603604081101561031957600080fd5b81019080803573ffffffffffffffffffffffffffffffffffffffff169060200190929190803590602001909291905050506114a8565b604051808215151515815260200191505060405180910390f35b61053f600480360360e081101561037f57600080fd5b81019080803573ffffffffffffffffffffffffffffffffffffffff169060200190929190803573ffffffffffffffffffffffffffffffffffffffff169060200190929190803590602001906401000000008111156103dc57600080fd5b8201836020820111156103ee57600080fd5b8035906020019184600183028401116401000000008311171561041057600080fd5b90919293919293908035906020019064010000000081111561043157600080fd5b82018360208201111561044357600080fd5b8035906020019184600183028401116401000000008311171561046557600080fd5b90919293919293908035906020019064010000000081111561048657600080fd5b82018360208201111561049857600080fd5b803590602001918460018302840111640100000000831117156104ba57600080fd5b9091929391929390803590602001906401000000008111156104db57600080fd5b8201836020820111156104ed57600080fd5b8035906020019184602083028401116401000000008311171561050f57600080fd5b9091929391929390803573ffffffffffffffffffffffffffffffffffffffff1690602001909291905050506114c6565b005b6105496118da565b005b6105536118f9565b6040518082815260200191505060405180910390f35b6105ab6004803603602081101561057f57600080fd5b81019080803573ffffffffffffffffffffffffffffffffffffffff169060200190929190505050611903565b005b610619600480360360608110156105c357600080fd5b81019080803573ffffffffffffffffffffffffffffffffffffffff169060200190929190803573ffffffffffffffffffffffffffffffffffffffff16906020019092919080359060200190929190505050611baa565b604051808215151515815260200191505060405180910390f35b61067f6004803603604081101561064957600080fd5b81019080803573ffffffffffffffffffffffffffffffffffffffff16906020019092919080359060200190929190505050611c83565b604051808215151515815260200191505060405180910390f35b6106db600480360360208110156106af57600080fd5b81019080803573ffffffffffffffffffffffffffffffffffffffff169060200190929190505050611d36565b005b6106e5611e7a565b604051808273ffffffffffffffffffffffffffffffffffffffff1673ffffffffffffffffffffffffffffffffffffffff16815260200191505060405180910390f35b61083d600480360360a081101561073d57600080fd5b81019080803573ffffffffffffffffffffffffffffffffffffffff169060200190929190803573ffffffffffffffffffffffffffffffffffffffff16906020019092919080359060200190929190803590602001906401000000008111156107a457600080fd5b8201836020820111156107b657600080fd5b803590602001918460018302840111640100000000831117156107d857600080fd5b9091929391929390803590602001906401000000008111156107f957600080fd5b82018360208201111561080b57600080fd5b8035906020019184600183028401116401000000008311171561082d57600080fd5b9091929391929390505050611ea4565b005b6108816004803603602081101561085557600080fd5b81019080803573ffffffffffffffffffffffffffffffffffffffff169060200190929190505050612008565b6040518082815260200191505060405180910390f35b61089f612051565b005b6108a961218c565b604051808273ffffffffffffffffffffffffffffffffffffffff1673ffffffffffffffffffffffffffffffffffffffff16815260200191505060405180910390f35b6109626004803603602081101561090157600080fd5b810190808035906020019064010000000081111561091e57600080fd5b82018360208201111561093057600080fd5b8035906020019184600183028401116401000000008311171561095257600080fd5b90919293919293905050506121b6565b6040518082815260200191505060405180910390f35b610980612298565b005b610ac1600480360361012081101561099957600080fd5b81019080803573ffffffffffffffffffffffffffffffffffffffff169060200190929190803573ffffffffffffffffffffffffffffffffffffffff169060200190929190803590602001906401000000008111156109f657600080fd5b820183602082011115610a0857600080fd5b80359060200191846001830284011164010000000083111715610a2a57600080fd5b90919293919293908035906020019092919080359060200190929190803590602001909291908035906020019092919080359060200190640100000000811115610a7357600080fd5b820183602082011115610a8557600080fd5b80359060200191846001830284011164010000000083111715610aa757600080fd5b9091929391929390803590602001909291905050506123f7565b6040518083815260200180602001828103825283818151815260200191508051906020019080838360005b83811015610b07578082015181840152602081019050610aec565b50505050905090810190601f168015610b345780820380516001836020036101000a031916815260200191505b50935050505060405180910390f35b610b4b61262c565b604051808273ffffffffffffffffffffffffffffffffffffffff1673ffffffffffffffffffffffffffffffffffffffff16815260200191505060405180910390f35b610b95612656565b604051808215151515815260200191505060405180910390f35b610bf160048036036020811015610bc557600080fd5b81019080803573ffffffffffffffffffffffffffffffffffffffff1690602001909291905050506126b5565b005b610bfb6129b2565b6040518080602001828103825283818151815260200191508051906020019080838360005b83811015610c3b578082015181840152602081019050610c20565b50505050905090810190601f168015610c685780820380516001836020036101000a031916815260200191505b509250505060405180910390f35b610cc260048036036040811015610c8c57600080fd5b81019080803573ffffffffffffffffffffffffffffffffffffffff16906020019092919080359060200190929190505050612a54565b604051808215151515815260200191505060405180910390f35b610d2860048036036040811015610cf257600080fd5b81019080803573ffffffffffffffffffffffffffffffffffffffff16906020019092919080359060200190929190505050612b21565b604051808215151515815260200191505060405180910390f35b610e58600480360360a0811015610d5857600080fd5b81019080803573ffffffffffffffffffffffffffffffffffffffff169060200190929190803573ffffffffffffffffffffffffffffffffffffffff1690602001909291908035906020019092919080359060200190640100000000811115610dbf57600080fd5b820183602082011115610dd157600080fd5b80359060200191846001830284011164010000000083111715610df357600080fd5b909192939192939080359060200190640100000000811115610e1457600080fd5b820183602082011115610e2657600080fd5b80359060200191846001830284011164010000000083111715610e4857600080fd5b9091929391929390505050612b3f565b005b610e62612ccc565b6040518080602001828103825283818151815260200191508051906020019080838360005b83811015610ea2578082015181840152602081019050610e87565b50505050905090810190601f168015610ecf5780820380516001836020036101000a031916815260200191505b509250505060405180910390f35b610ee5612d09565b6040518080602001828103825283818151815260200191508051906020019080838360005b83811015610f25578082015181840152602081019050610f0a565b50505050905090810190601f168015610f525780820380516001836020036101000a031916815260200191505b509250505060405180910390f35b610fa260048036036020811015610f7657600080fd5b81019080803573ffffffffffffffffffffffffffffffffffffffff169060200190929190505050612dab565b005b61100660048036036040811015610fba57600080fd5b81019080803573ffffffffffffffffffffffffffffffffffffffff169060200190929190803573ffffffffffffffffffffffffffffffffffffffff169060200190929190505050612ebc565b604051808215151515815260200191505060405180910390f35b6110826004803603604081101561103657600080fd5b81019080803573ffffffffffffffffffffffffffffffffffffffff169060200190929190803573ffffffffffffffffffffffffffffffffffffffff16906020019092919050505061306d565b6040518082815260200191505060405180910390f35b61112f600480360360808110156110ae57600080fd5b81019080803590602001906401000000008111156110cb57600080fd5b8201836020820111156110dd57600080fd5b803590602001918460018302840111640100000000831117156110ff57600080fd5b909192939192939080351515906020019092919080359060200190929190803590602001909291905050506130f4565b005b6111736004803603602081101561114757600080fd5b81019080803573ffffffffffffffffffffffffffffffffffffffff1690602001909291905050506131d6565b005b6111b76004803603602081101561118b57600080fd5b81019080803573ffffffffffffffffffffffffffffffffffffffff16906020019092919050505061355a565b005b6111fb600480360360208110156111cf57600080fd5b81019080803573ffffffffffffffffffffffffffffffffffffffff1690602001909291905050506135e0565b005b6112f36004803603608081101561121357600080fd5b81019080803573ffffffffffffffffffffffffffffffffffffffff169060200190929190803590602001909291908035906020019064010000000081111561125a57600080fd5b82018360208201111561126c57600080fd5b8035906020019184600183028401116401000000008311171561128e57600080fd5b9091929391929390803590602001906401000000008111156112af57600080fd5b8201836020820111156112c157600080fd5b803590602001918460018302840111640100000000831117156112e357600080fd5b90919293919293905050506138dd565b005b6113766004803603604081101561130b57600080fd5b81019080803590602001909291908035906020019064010000000081111561133257600080fd5b82018360208201111561134457600080fd5b8035906020019184600183028401116401000000008311171561136657600080fd5b90919293919293905050506139e6565b005b606060a38054806020026020016040519081016040528092919081815260200182805480156113fc57602002820191906000526020600020905b8160009054906101000a900473ffffffffffffffffffffffffffffffffffffffff1673ffffffffffffffffffffffffffffffffffffffff16815260200190600101908083116113b2575b5050505050905090565b6060609e8054600181600116156101000203166002900480601f01602080910402602001604051908101604052809291908181526020018280546001816001161561010002031660029004801561149e5780601f106114735761010080835404028352916020019161149e565b820191906000526020600020905b81548152906001019060200180831161148157829003601f168201915b5050505050905090565b60006114bc6114b5613a58565b8484613ac5565b6001905092915050565b600060019054906101000a900460ff16806114e557506114e4613cbc565b5b806114fc57506000809054906101000a900460ff16155b611551576040517f08c379a000000000000000000000000000000000000000000000000000000000815260040180806020018281038252602e81526020018061519b602e913960400191505060405180910390fd5b60008060019054906101000a900460ff1615905080156115a1576001600060016101000a81548160ff02191690831515021790555060016000806101000a81548160ff0219169083151502179055505b60008a8a905014156115fe576040517f08c379a000000000000000000000000000000000000000000000000000000000815260040180806020018281038252602981526020018061531a6029913960400191505060405180910390fd5b600088889050141561165b576040517f08c379a0000000000000000000000000000000000000000000000000000000008152600401808060200182810382526024815260200180614fcf6024913960400191505060405180910390fd5b60008686905014156116b8576040517f08c379a00000000000000000000000000000000000000000000000000000000081526004018080602001828103825260268152602001806152456026913960400191505060405180910390fd5b600073ffffffffffffffffffffffffffffffffffffffff168c73ffffffffffffffffffffffffffffffffffffffff16141561173e576040517f08c379a000000000000000000000000000000000000000000000000000000000815260040180806020018281038252602681526020018061538f6026913960400191505060405180910390fd5b6117478c613ccd565b61175082612dab565b6117598b611d36565b8989609d919061176a929190614df7565b508787609e919061177c929190614df7565b508585609f919061178e929190614df7565b50838360a391906117a0929190614e77565b5060008090505b848490508110156118aa57600160a060008787858181106117c457fe5b9050602002013573ffffffffffffffffffffffffffffffffffffffff1673ffffffffffffffffffffffffffffffffffffffff1673ffffffffffffffffffffffffffffffffffffffff16815260200190815260200160002060006101000a81548160ff02191690831515021790555084848281811061183e57fe5b9050602002013573ffffffffffffffffffffffffffffffffffffffff1673ffffffffffffffffffffffffffffffffffffffff167fb1c266c79163ba5da9a4deba2a5d1313547c94f50a5db49c1d04d9cc24a66c9d60405160405180910390a280806001019150506117a7565b5080156118cc5760008060016101000a81548160ff0219169083151502179055505b505050505050505050505050565b6118f773d216153c06e857cd7f72665e0af1d7d82172f494613e8b565b565b6000606a54905090565b61190b612656565b61197d576040517f08c379a00000000000000000000000000000000000000000000000000000000081526004018080602001828103825260208152602001807f4f776e61626c653a2063616c6c6572206973206e6f7420746865206f776e657281525060200191505060405180910390fd5b600073ffffffffffffffffffffffffffffffffffffffff168173ffffffffffffffffffffffffffffffffffffffff161415611a03576040517f08c379a00000000000000000000000000000000000000000000000000000000081526004018080602001828103825260308152602001806150ed6030913960400191505060405180910390fd5b60a060008273ffffffffffffffffffffffffffffffffffffffff1673ffffffffffffffffffffffffffffffffffffffff16815260200190815260200160002060009054906101000a900460ff1615611aa6576040517f08c379a00000000000000000000000000000000000000000000000000000000081526004018080602001828103825260288152602001806153676028913960400191505060405180910390fd5b60a38190806001815401808255809150509060018203906000526020600020016000909192909190916101000a81548173ffffffffffffffffffffffffffffffffffffffff021916908373ffffffffffffffffffffffffffffffffffffffff16021790555050600160a060008373ffffffffffffffffffffffffffffffffffffffff1673ffffffffffffffffffffffffffffffffffffffff16815260200190815260200160002060006101000a81548160ff0219169083151502179055508073ffffffffffffffffffffffffffffffffffffffff167fb1c266c79163ba5da9a4deba2a5d1313547c94f50a5db49c1d04d9cc24a66c9d60405160405180910390a250565b6000611bb784848461405c565b611c7884611bc3613a58565b611c738560405180606001604052806028815260200161517360289139606960008b73ffffffffffffffffffffffffffffffffffffffff1673ffffffffffffffffffffffffffffffffffffffff1681526020019081526020016000206000611c29613a58565b73ffffffffffffffffffffffffffffffffffffffff1673ffffffffffffffffffffffffffffffffffffffff168152602001908152602001600020546143169092919063ffffffff16565b613ac5565b600190509392505050565b6000611d2c611c90613a58565b84611d278560696000611ca1613a58565b73ffffffffffffffffffffffffffffffffffffffff1673ffffffffffffffffffffffffffffffffffffffff16815260200190815260200160002060008973ffffffffffffffffffffffffffffffffffffffff1673ffffffffffffffffffffffffffffffffffffffff168152602001908152602001600020546143d690919063ffffffff16565b613ac5565b6001905092915050565b611d3e612656565b611db0576040517f08c379a00000000000000000000000000000000000000000000000000000000081526004018080602001828103825260208152602001807f4f776e61626c653a2063616c6c6572206973206e6f7420746865206f776e657281525060200191505060405180910390fd5b600073ffffffffffffffffffffffffffffffffffffffff168173ffffffffffffffffffffffffffffffffffffffff161415611e36576040517f08c379a000000000000000000000000000000000000000000000000000000000815260040180806020018281038252603581526020018061504a6035913960400191505060405180910390fd5b8060a460006101000a81548173ffffffffffffffffffffffffffffffffffffffff021916908373ffffffffffffffffffffffffffffffffffffffff16021790555050565b600060a460009054906101000a900473ffffffffffffffffffffffffffffffffffffffff16905090565b6000611eae613a58565b9050611eba8189612ebc565b611f0f576040517f08c379a00000000000000000000000000000000000000000000000000000000081526004018080602001828103825260358152602001806150156035913960400191505060405180910390fd5b611f1a88888861405c565b8673ffffffffffffffffffffffffffffffffffffffff168873ffffffffffffffffffffffffffffffffffffffff168273ffffffffffffffffffffffffffffffffffffffff167f06b541ddaa720db2b10a4d0cdac39b8d360425fc073085fac19bc8261467798789898989896040518086815260200180602001806020018381038352878782818152602001925080828437600081840152601f19601f8201169050808301925050508381038252858582818152602001925080828437600081840152601f19601f82011690508083019250505097505050505050505060405180910390a45050505050505050565b6000606860008373ffffffffffffffffffffffffffffffffffffffff1673ffffffffffffffffffffffffffffffffffffffff168152602001908152602001600020549050919050565b612059612656565b6120cb576040517f08c379a00000000000000000000000000000000000000000000000000000000081526004018080602001828103825260208152602001807f4f776e61626c653a2063616c6c6572206973206e6f7420746865206f776e657281525060200191505060405180910390fd5b600073ffffffffffffffffffffffffffffffffffffffff16603360009054906101000a900473ffffffffffffffffffffffffffffffffffffffff1673ffffffffffffffffffffffffffffffffffffffff167f8be0079c531659141344cd1fd0a4f28419497f9722a3daafe3b4186f6b6457e060405160405180910390a36000603360006101000a81548173ffffffffffffffffffffffffffffffffffffffff021916908373ffffffffffffffffffffffffffffffffffffffff160217905550565b6000606660009054906101000a900473ffffffffffffffffffffffffffffffffffffffff16905090565b60006121c061218c565b73ffffffffffffffffffffffffffffffffffffffff163373ffffffffffffffffffffffffffffffffffffffff1614612243576040517f08c379a00000000000000000000000000000000000000000000000000000000081526004018080602001828103825260248152602001806152f66024913960400191505060405180910390fd5b61229083838080601f016020809104026020016040519081016040528093929190818152602001838380828437600081840152601f19601f8201169050808301925050505050505061445e565b905092915050565b600060019054906101000a900460ff16806122b757506122b6613cbc565b5b806122ce57506000809054906101000a900460ff16155b612323576040517f08c379a000000000000000000000000000000000000000000000000000000000815260040180806020018281038252602e81526020018061519b602e913960400191505060405180910390fd5b60008060019054906101000a900460ff161590508015612373576001600060016101000a81548160ff02191690831515021790555060016000806101000a81548160ff0219169083151502179055505b600073ffffffffffffffffffffffffffffffffffffffff16606660009054906101000a900473ffffffffffffffffffffffffffffffffffffffff1673ffffffffffffffffffffffffffffffffffffffff1614156123d3576123d26118da565b5b80156123f45760008060016101000a81548160ff0219169083151502179055505b50565b60006060808d8d8d8d8d8d8d8d61240c61218c565b30604051602001808b73ffffffffffffffffffffffffffffffffffffffff1673ffffffffffffffffffffffffffffffffffffffff1681526020018a73ffffffffffffffffffffffffffffffffffffffff1673ffffffffffffffffffffffffffffffffffffffff168152602001806020018881526020018781526020018681526020018581526020018473ffffffffffffffffffffffffffffffffffffffff1673ffffffffffffffffffffffffffffffffffffffff1681526020018373ffffffffffffffffffffffffffffffffffffffff1673ffffffffffffffffffffffffffffffffffffffff16815260200182810382528a8a82818152602001925080828437600081840152601f19601f8201169050808301925050509b5050505050505050505050506040516020818303038152906040529050606760009054906101000a900473ffffffffffffffffffffffffffffffffffffffff1673ffffffffffffffffffffffffffffffffffffffff166125e087878080601f016020809104026020016040519081016040528093929190818152602001838380828437600081840152601f19601f820116905080830192505050505050506125d28480519060200120614465565b6144bd90919063ffffffff16565b73ffffffffffffffffffffffffffffffffffffffff16141561260e576126046145c1565b925092505061261c565b6126166145c1565b92509250505b9b509b9950505050505050505050565b6000603360009054906101000a900473ffffffffffffffffffffffffffffffffffffffff16905090565b6000603360009054906101000a900473ffffffffffffffffffffffffffffffffffffffff1673ffffffffffffffffffffffffffffffffffffffff16612699613a58565b73ffffffffffffffffffffffffffffffffffffffff1614905090565b8073ffffffffffffffffffffffffffffffffffffffff166126d4613a58565b73ffffffffffffffffffffffffffffffffffffffff161415612741576040517f08c379a000000000000000000000000000000000000000000000000000000000815260040180806020018281038252602d8152602001806152a4602d913960400191505060405180910390fd5b8073ffffffffffffffffffffffffffffffffffffffff16600073ffffffffffffffffffffffffffffffffffffffff1614156127c7576040517f08c379a000000000000000000000000000000000000000000000000000000000815260040180806020018281038252602e8152602001806151c9602e913960400191505060405180910390fd5b60a060008273ffffffffffffffffffffffffffffffffffffffff1673ffffffffffffffffffffffffffffffffffffffff16815260200190815260200160002060009054906101000a900460ff16156128b15760a26000612825613a58565b73ffffffffffffffffffffffffffffffffffffffff1673ffffffffffffffffffffffffffffffffffffffff16815260200190815260200160002060008273ffffffffffffffffffffffffffffffffffffffff1673ffffffffffffffffffffffffffffffffffffffff16815260200190815260200160002060006101000a81549060ff021916905561294e565b600160a160006128bf613a58565b73ffffffffffffffffffffffffffffffffffffffff1673ffffffffffffffffffffffffffffffffffffffff16815260200190815260200160002060008373ffffffffffffffffffffffffffffffffffffffff1673ffffffffffffffffffffffffffffffffffffffff16815260200190815260200160002060006101000a81548160ff0219169083151502179055505b612956613a58565b73ffffffffffffffffffffffffffffffffffffffff168173ffffffffffffffffffffffffffffffffffffffff167ff4caeb2d6ca8932a215a353d0703c326ec2d81fc68170f320eb2ab49e9df61f960405160405180910390a350565b6060609f8054600181600116156101000203166002900480601f016020809104026020016040519081016040528092919081815260200182805460018160011615610100020316600290048015612a4a5780601f10612a1f57610100808354040283529160200191612a4a565b820191906000526020600020905b815481529060010190602001808311612a2d57829003601f168201915b5050505050905090565b6000612b17612a61613a58565b84612b128560405180606001604052806025815260200161541a6025913960696000612a8b613a58565b73ffffffffffffffffffffffffffffffffffffffff1673ffffffffffffffffffffffffffffffffffffffff16815260200190815260200160002060008a73ffffffffffffffffffffffffffffffffffffffff1673ffffffffffffffffffffffffffffffffffffffff168152602001908152602001600020546143169092919063ffffffff16565b613ac5565b6001905092915050565b6000612b35612b2e613a58565b848461405c565b6001905092915050565b60a460009054906101000a900473ffffffffffffffffffffffffffffffffffffffff1673ffffffffffffffffffffffffffffffffffffffff16612b80613a58565b73ffffffffffffffffffffffffffffffffffffffff1614612bec576040517f08c379a000000000000000000000000000000000000000000000000000000000815260040180806020018281038252603b8152602001806153df603b913960400191505060405180910390fd5b612bf686866145e5565b8573ffffffffffffffffffffffffffffffffffffffff168773ffffffffffffffffffffffffffffffffffffffff167f2fe5be0146f74c5bce36c0b80911af6c7d86ff27e89d5cfa61fc681327954e5d87878787876040518086815260200180602001806020018381038352878782818152602001925080828437600081840152601f19601f8201169050808301925050508381038252858582818152602001925080828437600081840152601f19601f82011690508083019250505097505050505050505060405180910390a350505050505050565b60606040518060400160405280600581526020017f312e302e30000000000000000000000000000000000000000000000000000000815250905090565b6060609d8054600181600116156101000203166002900480601f016020809104026020016040519081016040528092919081815260200182805460018160011615610100020316600290048015612da15780601f10612d7657610100808354040283529160200191612da1565b820191906000526020600020905b815481529060010190602001808311612d8457829003601f168201915b5050505050905090565b600060019054906101000a900460ff1680612dca5750612dc9613cbc565b5b80612de157506000809054906101000a900460ff16155b612e36576040517f08c379a000000000000000000000000000000000000000000000000000000000815260040180806020018281038252602e81526020018061519b602e913960400191505060405180910390fd5b60008060019054906101000a900460ff161590508015612e86576001600060016101000a81548160ff02191690831515021790555060016000806101000a81548160ff0219169083151502179055505b612e8f826147a2565b612e97612298565b8015612eb85760008060016101000a81548160ff0219169083151502179055505b5050565b60008173ffffffffffffffffffffffffffffffffffffffff168373ffffffffffffffffffffffffffffffffffffffff161480612fd4575060a060008473ffffffffffffffffffffffffffffffffffffffff1673ffffffffffffffffffffffffffffffffffffffff16815260200190815260200160002060009054906101000a900460ff168015612fd3575060a260008373ffffffffffffffffffffffffffffffffffffffff1673ffffffffffffffffffffffffffffffffffffffff16815260200190815260200160002060008473ffffffffffffffffffffffffffffffffffffffff1673ffffffffffffffffffffffffffffffffffffffff16815260200190815260200160002060009054906101000a900460ff16155b5b80613065575060a160008373ffffffffffffffffffffffffffffffffffffffff1673ffffffffffffffffffffffffffffffffffffffff16815260200190815260200160002060008473ffffffffffffffffffffffffffffffffffffffff1673ffffffffffffffffffffffffffffffffffffffff16815260200190815260200160002060009054906101000a900460ff165b905092915050565b6000606960008473ffffffffffffffffffffffffffffffffffffffff1673ffffffffffffffffffffffffffffffffffffffff16815260200190815260200160002060008373ffffffffffffffffffffffffffffffffffffffff1673ffffffffffffffffffffffffffffffffffffffff16815260200190815260200160002054905092915050565b6130fc61218c565b73ffffffffffffffffffffffffffffffffffffffff163373ffffffffffffffffffffffffffffffffffffffff161461317f576040517f08c379a00000000000000000000000000000000000000000000000000000000081526004018080602001828103825260248152602001806152f66024913960400191505060405180910390fd5b6131cf85858080601f016020809104026020016040519081016040528093929190818152602001838380828437600081840152601f19601f820116905080830192505050505050508484846148cf565b5050505050565b6131de612656565b613250576040517f08c379a00000000000000000000000000000000000000000000000000000000081526004018080602001828103825260208152602001807f4f776e61626c653a2063616c6c6572206973206e6f7420746865206f776e657281525060200191505060405180910390fd5b600073ffffffffffffffffffffffffffffffffffffffff168173ffffffffffffffffffffffffffffffffffffffff1614156132d6576040517f08c379a00000000000000000000000000000000000000000000000000000000081526004018080602001828103825260308152602001806150ed6030913960400191505060405180910390fd5b60a060008273ffffffffffffffffffffffffffffffffffffffff1673ffffffffffffffffffffffffffffffffffffffff16815260200190815260200160002060009054906101000a900460ff16613378576040517f08c379a000000000000000000000000000000000000000000000000000000000815260040180806020018281038252602881526020018061511d6028913960400191505060405180910390fd5b60008090505b60a3805490508110156134c4578173ffffffffffffffffffffffffffffffffffffffff1660a382815481106133af57fe5b9060005260206000200160009054906101000a900473ffffffffffffffffffffffffffffffffffffffff1673ffffffffffffffffffffffffffffffffffffffff1614156134b757600160a38054905003811461349b5760a3600160a380549050038154811061341a57fe5b9060005260206000200160009054906101000a900473ffffffffffffffffffffffffffffffffffffffff1660a3828154811061345257fe5b9060005260206000200160006101000a81548173ffffffffffffffffffffffffffffffffffffffff021916908373ffffffffffffffffffffffffffffffffffffffff1602179055505b600160a3805490500360a3816134b19190614f17565b506134c4565b808060010191505061337e565b5060a060008273ffffffffffffffffffffffffffffffffffffffff1673ffffffffffffffffffffffffffffffffffffffff16815260200190815260200160002060006101000a81549060ff02191690558073ffffffffffffffffffffffffffffffffffffffff167fec42077e4a379228eef9f58422079e786670be900ea3257e9d2e2227d0b56abd60405160405180910390a250565b613562612656565b6135d4576040517f08c379a00000000000000000000000000000000000000000000000000000000081526004018080602001828103825260208152602001807f4f776e61626c653a2063616c6c6572206973206e6f7420746865206f776e657281525060200191505060405180910390fd5b6135dd816148d5565b50565b6135e8613a58565b73ffffffffffffffffffffffffffffffffffffffff168173ffffffffffffffffffffffffffffffffffffffff16141561366c576040517f08c379a000000000000000000000000000000000000000000000000000000000815260040180806020018281038252602a8152602001806153b5602a913960400191505060405180910390fd5b8073ffffffffffffffffffffffffffffffffffffffff16600073ffffffffffffffffffffffffffffffffffffffff1614156136f2576040517f08c379a000000000000000000000000000000000000000000000000000000000815260040180806020018281038252602e8152602001806151c9602e913960400191505060405180910390fd5b60a060008273ffffffffffffffffffffffffffffffffffffffff1673ffffffffffffffffffffffffffffffffffffffff16815260200190815260200160002060009054906101000a900460ff16156137e557600160a26000613752613a58565b73ffffffffffffffffffffffffffffffffffffffff1673ffffffffffffffffffffffffffffffffffffffff16815260200190815260200160002060008373ffffffffffffffffffffffffffffffffffffffff1673ffffffffffffffffffffffffffffffffffffffff16815260200190815260200160002060006101000a81548160ff021916908315150217905550613879565b60a160006137f1613a58565b73ffffffffffffffffffffffffffffffffffffffff1673ffffffffffffffffffffffffffffffffffffffff16815260200190815260200160002060008273ffffffffffffffffffffffffffffffffffffffff1673ffffffffffffffffffffffffffffffffffffffff16815260200190815260200160002060006101000a81549060ff02191690555b613881613a58565b73ffffffffffffffffffffffffffffffffffffffff168173ffffffffffffffffffffffffffffffffffffffff167f50546e66e5f44d728365dc3908c63bc5cfeeab470722c1677e3073a6ac294aa160405160405180910390a350565b60006138e7613a58565b90506138f38188612ebc565b613948576040517f08c379a00000000000000000000000000000000000000000000000000000000081526004018080602001828103825260358152602001806150156035913960400191505060405180910390fd5b6139dd81888888888080601f016020809104026020016040519081016040528093929190818152602001838380828437600081840152601f19601f8201169050808301925050505050505087878080601f016020809104026020016040519081016040528093929190818152602001838380828437600081840152601f19601f82011690508083019250505050505050614a1b565b50505050505050565b60006139f0613a58565b9050613a5281828686868080601f016020809104026020016040519081016040528093929190818152602001838380828437600081840152601f19601f8201169050808301925050505050505060405180602001604052806000815250614a1b565b50505050565b6000606660009054906101000a900473ffffffffffffffffffffffffffffffffffffffff1673ffffffffffffffffffffffffffffffffffffffff163373ffffffffffffffffffffffffffffffffffffffff1614613ab757339050613ac2565b613abf614b6b565b90505b90565b600073ffffffffffffffffffffffffffffffffffffffff168373ffffffffffffffffffffffffffffffffffffffff161415613b4b576040517f08c379a00000000000000000000000000000000000000000000000000000000081526004018080602001828103825260248152602001806153436024913960400191505060405180910390fd5b600073ffffffffffffffffffffffffffffffffffffffff168273ffffffffffffffffffffffffffffffffffffffff161415613bd1576040517f08c379a00000000000000000000000000000000000000000000000000000000081526004018080602001828103825260228152602001806150a56022913960400191505060405180910390fd5b80606960008573ffffffffffffffffffffffffffffffffffffffff1673ffffffffffffffffffffffffffffffffffffffff16815260200190815260200160002060008473ffffffffffffffffffffffffffffffffffffffff1673ffffffffffffffffffffffffffffffffffffffff168152602001908152602001600020819055508173ffffffffffffffffffffffffffffffffffffffff168373ffffffffffffffffffffffffffffffffffffffff167f8c5be1e5ebec7d5bd14f71427d1e84f3dd0314c0f7b2291e5b200ac8c7c3b925836040518082815260200191505060405180910390a3505050565b600080303b90506000811491505090565b600060019054906101000a900460ff1680613cec5750613ceb613cbc565b5b80613d0357506000809054906101000a900460ff16155b613d58576040517f08c379a000000000000000000000000000000000000000000000000000000000815260040180806020018281038252602e81526020018061519b602e913960400191505060405180910390fd5b60008060019054906101000a900460ff161590508015613da8576001600060016101000a81548160ff02191690831515021790555060016000806101000a81548160ff0219169083151502179055505b81603360006101000a81548173ffffffffffffffffffffffffffffffffffffffff021916908373ffffffffffffffffffffffffffffffffffffffff160217905550603360009054906101000a900473ffffffffffffffffffffffffffffffffffffffff1673ffffffffffffffffffffffffffffffffffffffff16600073ffffffffffffffffffffffffffffffffffffffff167f8be0079c531659141344cd1fd0a4f28419497f9722a3daafe3b4186f6b6457e060405160405180910390a38015613e875760008060016101000a81548160ff0219169083151502179055505b5050565b6000606660009054906101000a900473ffffffffffffffffffffffffffffffffffffffff169050600073ffffffffffffffffffffffffffffffffffffffff168273ffffffffffffffffffffffffffffffffffffffff161415613f38576040517f08c379a000000000000000000000000000000000000000000000000000000000815260040180806020018281038252602e815260200180615145602e913960400191505060405180910390fd5b8073ffffffffffffffffffffffffffffffffffffffff168273ffffffffffffffffffffffffffffffffffffffff161415613fbd576040517f08c379a000000000000000000000000000000000000000000000000000000000815260040180806020018281038252602d8152602001806151f7602d913960400191505060405180910390fd5b8173ffffffffffffffffffffffffffffffffffffffff168173ffffffffffffffffffffffffffffffffffffffff167fb9f84b8e65164b14439ae3620df0a4d8786d896996c0282b683f9d8c08f046e860405160405180910390a381606660006101000a81548173ffffffffffffffffffffffffffffffffffffffff021916908373ffffffffffffffffffffffffffffffffffffffff1602179055505050565b600073ffffffffffffffffffffffffffffffffffffffff168373ffffffffffffffffffffffffffffffffffffffff1614156140e2576040517f08c379a00000000000000000000000000000000000000000000000000000000081526004018080602001828103825260258152602001806152d16025913960400191505060405180910390fd5b600073ffffffffffffffffffffffffffffffffffffffff168273ffffffffffffffffffffffffffffffffffffffff161415614168576040517f08c379a0000000000000000000000000000000000000000000000000000000008152600401808060200182810382526023815260200180614fac6023913960400191505060405180910390fd5b6141d4816040518060600160405280602681526020016150c760269139606860008773ffffffffffffffffffffffffffffffffffffffff1673ffffffffffffffffffffffffffffffffffffffff168152602001908152602001600020546143169092919063ffffffff16565b606860008573ffffffffffffffffffffffffffffffffffffffff1673ffffffffffffffffffffffffffffffffffffffff1681526020019081526020016000208190555061426981606860008573ffffffffffffffffffffffffffffffffffffffff1673ffffffffffffffffffffffffffffffffffffffff168152602001908152602001600020546143d690919063ffffffff16565b606860008473ffffffffffffffffffffffffffffffffffffffff1673ffffffffffffffffffffffffffffffffffffffff168152602001908152602001600020819055508173ffffffffffffffffffffffffffffffffffffffff168373ffffffffffffffffffffffffffffffffffffffff167fddf252ad1be2c89b69c2b068fc378daa952ba7f163c4a11628f55a4df523b3ef836040518082815260200191505060405180910390a3505050565b60008383111582906143c3576040517f08c379a00000000000000000000000000000000000000000000000000000000081526004018080602001828103825283818151815260200191508051906020019080838360005b8381101561438857808201518184015260208101905061436d565b50505050905090810190601f1680156143b55780820380516001836020036101000a031916815260200191505b509250505060405180910390fd5b5060008385039050809150509392505050565b600080828401905083811015614454576040517f08c379a000000000000000000000000000000000000000000000000000000000815260040180806020018281038252601b8152602001807f536166654d6174683a206164646974696f6e206f766572666c6f77000000000081525060200191505060405180910390fd5b8091505092915050565b6000919050565b60008160405160200180807f19457468657265756d205369676e6564204d6573736167653a0a333200000000815250601c01828152602001915050604051602081830303815290604052805190602001209050919050565b600060418251146144d157600090506145bb565b60008060006020850151925060408501519150606085015160001a90507f7fffffffffffffffffffffffffffffff5d576e7357a4501ddfe92f46681b20a08260001c111561452557600093505050506145bb565b601b8160ff161415801561453d5750601c8160ff1614155b1561454e57600093505050506145bb565b60018682858560405160008152602001604052604051808581526020018460ff1660ff1681526020018381526020018281526020019450505050506020604051602081039080840390855afa1580156145ab573d6000803e3d6000fd5b5050506020604051035193505050505b92915050565b600060606145dd60405180602001604052806000815250614be3565b915091509091565b600073ffffffffffffffffffffffffffffffffffffffff168273ffffffffffffffffffffffffffffffffffffffff161415614688576040517f08c379a000000000000000000000000000000000000000000000000000000000815260040180806020018281038252601f8152602001807f45524332303a206d696e7420746f20746865207a65726f20616464726573730081525060200191505060405180910390fd5b61469d81606a546143d690919063ffffffff16565b606a819055506146f581606860008573ffffffffffffffffffffffffffffffffffffffff1673ffffffffffffffffffffffffffffffffffffffff168152602001908152602001600020546143d690919063ffffffff16565b606860008473ffffffffffffffffffffffffffffffffffffffff1673ffffffffffffffffffffffffffffffffffffffff168152602001908152602001600020819055508173ffffffffffffffffffffffffffffffffffffffff16600073ffffffffffffffffffffffffffffffffffffffff167fddf252ad1be2c89b69c2b068fc378daa952ba7f163c4a11628f55a4df523b3ef836040518082815260200191505060405180910390a35050565b600073ffffffffffffffffffffffffffffffffffffffff168173ffffffffffffffffffffffffffffffffffffffff161415614828576040517f08c379a000000000000000000000000000000000000000000000000000000000815260040180806020018281038252603981526020018061526b6039913960400191505060405180910390fd5b80606760006101000a81548173ffffffffffffffffffffffffffffffffffffffff021916908373ffffffffffffffffffffffffffffffffffffffff1602179055507f5553331329228fbd4123164423717a4a7539f6dfa1c3279a923b98fd681a6c7381604051808273ffffffffffffffffffffffffffffffffffffffff1673ffffffffffffffffffffffffffffffffffffffff16815260200191505060405180910390a150565b50505050565b600073ffffffffffffffffffffffffffffffffffffffff168173ffffffffffffffffffffffffffffffffffffffff16141561495b576040517f08c379a000000000000000000000000000000000000000000000000000000000815260040180806020018281038252602681526020018061507f6026913960400191505060405180910390fd5b8073ffffffffffffffffffffffffffffffffffffffff16603360009054906101000a900473ffffffffffffffffffffffffffffffffffffffff1673ffffffffffffffffffffffffffffffffffffffff167f8be0079c531659141344cd1fd0a4f28419497f9722a3daafe3b4186f6b6457e060405160405180910390a380603360006101000a81548173ffffffffffffffffffffffffffffffffffffffff021916908373ffffffffffffffffffffffffffffffffffffffff16021790555050565b614a258484614bf3565b8373ffffffffffffffffffffffffffffffffffffffff168573ffffffffffffffffffffffffffffffffffffffff167fa78a9be3a7b862d26933ad85fb11d80ef66b8f972d7cbba06621d583943a4098858585604051808481526020018060200180602001838103835285818151815260200191508051906020019080838360005b83811015614ac1578082015181840152602081019050614aa6565b50505050905090810190601f168015614aee5780820380516001836020036101000a031916815260200191505b50838103825284818151815260200191508051906020019080838360005b83811015614b27578082015181840152602081019050614b0c565b50505050905090810190601f168015614b545780820380516001836020036101000a031916815260200191505b509550505050505060405180910390a35050505050565b600060606000368080601f016020809104026020016040519081016040528093929190818152602001838380828437600081840152601f19601f820116905080830192505050505050509050600080369050905073ffffffffffffffffffffffffffffffffffffffff81830151169250829250505090565b6000606060008391509150915091565b600073ffffffffffffffffffffffffffffffffffffffff168273ffffffffffffffffffffffffffffffffffffffff161415614c79576040517f08c379a00000000000000000000000000000000000000000000000000000000081526004018080602001828103825260218152602001806152246021913960400191505060405180910390fd5b614ce581604051806060016040528060228152602001614ff360229139606860008673ffffffffffffffffffffffffffffffffffffffff1673ffffffffffffffffffffffffffffffffffffffff168152602001908152602001600020546143169092919063ffffffff16565b606860008473ffffffffffffffffffffffffffffffffffffffff1673ffffffffffffffffffffffffffffffffffffffff16815260200190815260200160002081905550614d3d81606a54614dad90919063ffffffff16565b606a81905550600073ffffffffffffffffffffffffffffffffffffffff168273ffffffffffffffffffffffffffffffffffffffff167fddf252ad1be2c89b69c2b068fc378daa952ba7f163c4a11628f55a4df523b3ef836040518082815260200191505060405180910390a35050565b6000614def83836040518060400160405280601e81526020017f536166654d6174683a207375627472616374696f6e206f766572666c6f770000815250614316565b905092915050565b828054600181600116156101000203166002900490600052602060002090601f016020900481019282601f10614e3857803560ff1916838001178555614e66565b82800160010185558215614e66579182015b82811115614e65578235825591602001919060010190614e4a565b5b509050614e739190614f43565b5090565b828054828255906000526020600020908101928215614f06579160200282015b82811115614f0557823573ffffffffffffffffffffffffffffffffffffffff168260006101000a81548173ffffffffffffffffffffffffffffffffffffffff021916908373ffffffffffffffffffffffffffffffffffffffff16021790555091602001919060010190614e97565b5b509050614f139190614f68565b5090565b815481835581811115614f3e57818360005260206000209182019101614f3d9190614f43565b5b505050565b614f6591905b80821115614f61576000816000905550600101614f49565b5090565b90565b614fa891905b80821115614fa457600081816101000a81549073ffffffffffffffffffffffffffffffffffffffff021916905550600101614f6e565b5090565b9056fe45524332303a207472616e7366657220746f20746865207a65726f2061646472657373537562726564646974506f696e74733a206e616d652063616e277420626520656d70747945524332303a206275726e20616d6f756e7420657863656564732062616c616e6365537562726564646974506f696e74733a2063616c6c6572206973206e6f7420616e206f70657261746f7220666f7220686f6c646572537562726564646974506f696e74733a20646973747269627574696f6e436f6e74726163742073686f756c64206e6f7420626520304f776e61626c653a206e6577206f776e657220697320746865207a65726f206164647265737345524332303a20617070726f766520746f20746865207a65726f206164647265737345524332303a207472616e7366657220616d6f756e7420657863656564732062616c616e6365537562726564646974506f696e74733a206f70657261746f7220616464726573732073686f756c646e27742062652030537562726564646974506f696e74733a206f70657261746f7220646f65736e27742065786973747347534e526563697069656e743a206e65772052656c617948756220697320746865207a65726f206164647265737345524332303a207472616e7366657220616d6f756e74206578636565647320616c6c6f77616e6365436f6e747261637420696e7374616e63652068617320616c7265616479206265656e20696e697469616c697a6564537562726564646974506f696e74733a206f70657261746f722063616e277420686176652030206164647265737347534e526563697069656e743a206e65772052656c6179487562206973207468652063757272656e74206f6e6545524332303a206275726e2066726f6d20746865207a65726f2061646472657373537562726564646974506f696e74733a2073796d626f6c2063616e277420626520656d70747947534e526563697069656e745369676e61747572653a2074727573746564207369676e657220697320746865207a65726f2061646472657373537562726564646974506f696e74733a20617574686f72697a696e672073656c66206173206f70657261746f7245524332303a207472616e736665722066726f6d20746865207a65726f206164647265737347534e526563697069656e743a2063616c6c6572206973206e6f742052656c6179487562537562726564646974506f696e74733a207375627265646469742063616e277420626520656d70747945524332303a20617070726f76652066726f6d20746865207a65726f2061646472657373537562726564646974506f696e74733a206f70657261746f7220616c726561647920657869737473537562726564646974506f696e74733a206f776e65722073686f756c64206e6f742062652030537562726564646974506f696e74733a207265766f6b696e672073656c66206173206f70657261746f72537562726564646974506f696e74733a206f6e6c7920646973747269627574696f6e20636f6e74726163742063616e206d696e7420706f696e747345524332303a2064656372656173656420616c6c6f77616e63652062656c6f77207a65726fa265627a7a7231582003aad456f7c176e7e38ec177182906f28e9b146a17ad92014828a4f932494dac64736f6c63430005110032",
  "compiler": {
    "name": "solc",
    "version": "0.5.17+commit.d19bba13.Emscripten.clang",
    "optimizer": {
      "enabled": false,
      "runs": 200
    },
    "evmVersion": "petersburg"
  }
}