{
  "fileName": "Subscriptions_v0.sol",
  "contractName": "Subscriptions_v0",
  "source": "pragma solidity >=0.5.0 < 0.6.0;\n\nimport \"./contracts-package/Initializable.sol\";\nimport \"./contracts-package/Ownable.sol\";\nimport \"./contracts-package/ERC20.sol\";\nimport \"./ISubredditPoints.sol\";\nimport \"./libraries/Address.sol\";\n\nimport \"./GSN/UpdatableGSNRecipientSignature.sol\";\n\ncontract Subscriptions_v0 is Initializable, Ownable, UpdatableGSNRecipientSignature {\n    using SafeMath for uint256;\n    using Address for address;\n\n    event Subscribed(address indexed recipient, address indexed payer, uint256 burnedPoints, uint256 expiresAt, bool renewable);\n    event Canceled(address indexed recipient, uint256 expiresAt);\n    event DurationUpdated(uint256 duration);\n    event PriceUpdated(uint256 price);\n    event RenewBeforeUpdated(uint256 renewBefore);\n\n    uint256 public _renewBefore;\n    uint256 public _duration;\n    uint256 public _price;\n\n    // maps address to expiration time\n    mapping(address => uint256) public _subscriptions;\n    // maps address of recipient to address of payer\n    mapping(address => address) public _payers;\n    address public _subredditPoints;\n\n    function initialize(\n        address owner_,\n        address subredditPoints,\n        uint256 price_,\n        uint256 duration_,\n        uint256 renewBefore_,\n        address gsnApprover_\n    ) external initializer {\n        require(owner_ != address(0), \"Subscriptions: owner should not be 0\");\n\n        Ownable.initialize(owner_);\n        _subredditPoints = subredditPoints;\n\n        UpdatableGSNRecipientSignature.initialize(gsnApprover_);\n\n        updatePrice(price_);\n        updateDuration(duration_);\n        updateRenewBefore(renewBefore_);\n    }\n\n    function cancel(address recipient) external {\n        address payer = _payers[recipient];\n        require(_msgSender() == payer || _msgSender() == recipient, \"Subscriptions: subscription can be cancelled by payer or recipient only\");\n        delete _payers[recipient];\n        emit Canceled(recipient, _subscriptions[recipient]);\n    }\n\n    function renew(address recipient) external {\n        address payer = _payers[recipient];\n        require(payer != address(0), \"Subscriptions: subscription is canceled\");\n        // solium-disable-next-line security/no-block-members\n        require(expiration(recipient) < block.timestamp.add(_renewBefore), \"Subscriptions: too early to renew\");\n        _subscribe(payer, recipient, true);\n    }\n\n    function subscribe(address recipient, bool renewable) external {\n        address payer = _msgSender();\n        if (renewable) {\n            _payers[recipient] = payer;\n        }\n        _subscribe(payer, recipient, renewable);\n    }\n\n    function _subscribe(address payer, address recipient, bool renewable) internal {\n        require(recipient != address(0), \"Subscriptions: recipient should not be 0\");\n        uint256 expirationAt = _subscriptions[recipient];\n        // solium-disable-next-line security/no-block-members\n        if (expirationAt < block.timestamp) {\n            // solium-disable-next-line security/no-block-members\n            expirationAt = block.timestamp;\n        }\n        uint256 newExpiration = expirationAt.add(_duration);\n        _subscriptions[recipient] = newExpiration;\n        emit Subscribed(recipient, payer, _price, newExpiration, renewable);\n        ISubredditPoints(_subredditPoints).operatorBurn(payer, _price, \"\", \"\");\n    }\n\n    function updateDuration(uint256 duration_) public onlyOwner {\n        require(duration_ > 0, \"Subscriptions: duration should be > 0\");\n        _duration = duration_;\n        emit DurationUpdated(duration_);\n    }\n\n    function updatePrice(uint256 price_) public onlyOwner {\n        require(price_ > 0, \"Subscriptions: price should be > 0\");\n        _price = price_;\n        emit PriceUpdated(price_);\n    }\n\n    function updateRenewBefore(uint256 renewBefore_) public onlyOwner {\n        require(renewBefore_ > 0, \"Subscriptions: renewBefore should be > 0\");\n        _renewBefore = renewBefore_;\n        emit RenewBeforeUpdated(renewBefore_);\n    }\n\n    function duration() external view returns (uint256) {\n        return _duration;\n    }\n\n    function price() external view returns (uint256) {\n        return _price;\n    }\n\n    function renewBefore() external view returns (uint256) {\n        return _renewBefore;\n    }\n\n    function expiration(address account) public view returns (uint256) {\n        return _subscriptions[account];\n    }\n}",
  "sourcePath": "contracts/Subscriptions_v0.sol",
  "abi": [
    {
      "anonymous": false,
      "inputs": [
        {
          "indexed": true,
          "internalType": "address",
          "name": "recipient",
          "type": "address"
        },
        {
          "indexed": false,
          "internalType": "uint256",
          "name": "expiresAt",
          "type": "uint256"
        }
      ],
      "name": "Canceled",
      "type": "event"
    },
    {
      "anonymous": false,
      "inputs": [
        {
          "indexed": false,
          "internalType": "uint256",
          "name": "duration",
          "type": "uint256"
        }
      ],
      "name": "DurationUpdated",
      "type": "event"
    },
    {
      "anonymous": false,
      "inputs": [
        {
          "indexed": true,
          "internalType": "address",
          "name": "previousOwner",
          "type": "address"
        },
        {
          "indexed": true,
          "internalType": "address",
          "name": "newOwner",
          "type": "address"
        }
      ],
      "name": "OwnershipTransferred",
      "type": "event"
    },
    {
      "anonymous": false,
      "inputs": [
        {
          "indexed": false,
          "internalType": "uint256",
          "name": "price",
          "type": "uint256"
        }
      ],
      "name": "PriceUpdated",
      "type": "event"
    },
    {
      "anonymous": false,
      "inputs": [
        {
          "indexed": true,
          "internalType": "address",
          "name": "oldRelayHub",
          "type": "address"
        },
        {
          "indexed": true,
          "internalType": "address",
          "name": "newRelayHub",
          "type": "address"
        }
      ],
      "name": "RelayHubChanged",
      "type": "event"
    },
    {
      "anonymous": false,
      "inputs": [
        {
          "indexed": false,
          "internalType": "uint256",
          "name": "renewBefore",
          "type": "uint256"
        }
      ],
      "name": "RenewBeforeUpdated",
      "type": "event"
    },
    {
      "anonymous": false,
      "inputs": [
        {
          "indexed": false,
          "internalType": "address",
          "name": "signer",
          "type": "address"
        }
      ],
      "name": "SignerUpdated",
      "type": "event"
    },
    {
      "anonymous": false,
      "inputs": [
        {
          "indexed": true,
          "internalType": "address",
          "name": "recipient",
          "type": "address"
        },
        {
          "indexed": true,
          "internalType": "address",
          "name": "payer",
          "type": "address"
        },
        {
          "indexed": false,
          "internalType": "uint256",
          "name": "burnedPoints",
          "type": "uint256"
        },
        {
          "indexed": false,
          "internalType": "uint256",
          "name": "expiresAt",
          "type": "uint256"
        },
        {
          "indexed": false,
          "internalType": "bool",
          "name": "renewable",
          "type": "bool"
        }
      ],
      "name": "Subscribed",
      "type": "event"
    },
    {
      "constant": true,
      "inputs": [],
      "name": "_duration",
      "outputs": [
        {
          "internalType": "uint256",
          "name": "",
          "type": "uint256"
        }
      ],
      "payable": false,
      "stateMutability": "view",
      "type": "function"
    },
    {
      "constant": true,
      "inputs": [
        {
          "internalType": "address",
          "name": "",
          "type": "address"
        }
      ],
      "name": "_payers",
      "outputs": [
        {
          "internalType": "address",
          "name": "",
          "type": "address"
        }
      ],
      "payable": false,
      "stateMutability": "view",
      "type": "function"
    },
    {
      "constant": true,
      "inputs": [],
      "name": "_price",
      "outputs": [
        {
          "internalType": "uint256",
          "name": "",
          "type": "uint256"
        }
      ],
      "payable": false,
      "stateMutability": "view",
      "type": "function"
    },
    {
      "constant": true,
      "inputs": [],
      "name": "_renewBefore",
      "outputs": [
        {
          "internalType": "uint256",
          "name": "",
          "type": "uint256"
        }
      ],
      "payable": false,
      "stateMutability": "view",
      "type": "function"
    },
    {
      "constant": true,
      "inputs": [],
      "name": "_subredditPoints",
      "outputs": [
        {
          "internalType": "address",
          "name": "",
          "type": "address"
        }
      ],
      "payable": false,
      "stateMutability": "view",
      "type": "function"
    },
    {
      "constant": true,
      "inputs": [
        {
          "internalType": "address",
          "name": "",
          "type": "address"
        }
      ],
      "name": "_subscriptions",
      "outputs": [
        {
          "internalType": "uint256",
          "name": "",
          "type": "uint256"
        }
      ],
      "payable": false,
      "stateMutability": "view",
      "type": "function"
    },
    {
      "constant": true,
      "inputs": [
        {
          "internalType": "address",
          "name": "relay",
          "type": "address"
        },
        {
          "internalType": "address",
          "name": "from",
          "type": "address"
        },
        {
          "internalType": "bytes",
          "name": "encodedFunction",
          "type": "bytes"
        },
        {
          "internalType": "uint256",
          "name": "transactionFee",
          "type": "uint256"
        },
        {
          "internalType": "uint256",
          "name": "gasPrice",
          "type": "uint256"
        },
        {
          "internalType": "uint256",
          "name": "gasLimit",
          "type": "uint256"
        },
        {
          "internalType": "uint256",
          "name": "nonce",
          "type": "uint256"
        },
        {
          "internalType": "bytes",
          "name": "approvalData",
          "type": "bytes"
        },
        {
          "internalType": "uint256",
          "name": "",
          "type": "uint256"
        }
      ],
      "name": "acceptRelayedCall",
      "outputs": [
        {
          "internalType": "uint256",
          "name": "",
          "type": "uint256"
        },
        {
          "internalType": "bytes",
          "name": "",
          "type": "bytes"
        }
      ],
      "payable": false,
      "stateMutability": "view",
      "type": "function"
    },
    {
      "constant": false,
      "inputs": [
        {
          "internalType": "address",
          "name": "recipient",
          "type": "address"
        }
      ],
      "name": "cancel",
      "outputs": [],
      "payable": false,
      "stateMutability": "nonpayable",
      "type": "function"
    },
    {
      "constant": true,
      "inputs": [],
      "name": "duration",
      "outputs": [
        {
          "internalType": "uint256",
          "name": "",
          "type": "uint256"
        }
      ],
      "payable": false,
      "stateMutability": "view",
      "type": "function"
    },
    {
      "constant": true,
      "inputs": [
        {
          "internalType": "address",
          "name": "account",
          "type": "address"
        }
      ],
      "name": "expiration",
      "outputs": [
        {
          "internalType": "uint256",
          "name": "",
          "type": "uint256"
        }
      ],
      "payable": false,
      "stateMutability": "view",
      "type": "function"
    },
    {
      "constant": true,
      "inputs": [],
      "name": "getHubAddr",
      "outputs": [
        {
          "internalType": "address",
          "name": "",
          "type": "address"
        }
      ],
      "payable": false,
      "stateMutability": "view",
      "type": "function"
    },
    {
      "constant": false,
      "inputs": [],
      "name": "initialize",
      "outputs": [],
      "payable": false,
      "stateMutability": "nonpayable",
      "type": "function"
    },
    {
      "constant": false,
      "inputs": [
        {
          "internalType": "address",
          "name": "owner_",
          "type": "address"
        },
        {
          "internalType": "address",
          "name": "subredditPoints",
          "type": "address"
        },
        {
          "internalType": "uint256",
          "name": "price_",
          "type": "uint256"
        },
        {
          "internalType": "uint256",
          "name": "duration_",
          "type": "uint256"
        },
        {
          "internalType": "uint256",
          "name": "renewBefore_",
          "type": "uint256"
        },
        {
          "internalType": "address",
          "name": "gsnApprover_",
          "type": "address"
        }
      ],
      "name": "initialize",
      "outputs": [],
      "payable": false,
      "stateMutability": "nonpayable",
      "type": "function"
    },
    {
      "constant": false,
      "inputs": [
        {
          "internalType": "address",
          "name": "trustedSigner",
          "type": "address"
        }
      ],
      "name": "initialize",
      "outputs": [],
      "payable": false,
      "stateMutability": "nonpayable",
      "type": "function"
    },
    {
      "constant": true,
      "inputs": [],
      "name": "isOwner",
      "outputs": [
        {
          "internalType": "bool",
          "name": "",
          "type": "bool"
        }
      ],
      "payable": false,
      "stateMutability": "view",
      "type": "function"
    },
    {
      "constant": true,
      "inputs": [],
      "name": "owner",
      "outputs": [
        {
          "internalType": "address",
          "name": "",
          "type": "address"
        }
      ],
      "payable": false,
      "stateMutability": "view",
      "type": "function"
    },
    {
      "constant": false,
      "inputs": [
        {
          "internalType": "bytes",
          "name": "context",
          "type": "bytes"
        },
        {
          "internalType": "bool",
          "name": "success",
          "type": "bool"
        },
        {
          "internalType": "uint256",
          "name": "actualCharge",
          "type": "uint256"
        },
        {
          "internalType": "bytes32",
          "name": "preRetVal",
          "type": "bytes32"
        }
      ],
      "name": "postRelayedCall",
      "outputs": [],
      "payable": false,
      "stateMutability": "nonpayable",
      "type": "function"
    },
    {
      "constant": false,
      "inputs": [
        {
          "internalType": "bytes",
          "name": "context",
          "type": "bytes"
        }
      ],
      "name": "preRelayedCall",
      "outputs": [
        {
          "internalType": "bytes32",
          "name": "",
          "type": "bytes32"
        }
      ],
      "payable": false,
      "stateMutability": "nonpayable",
      "type": "function"
    },
    {
      "constant": true,
      "inputs": [],
      "name": "price",
      "outputs": [
        {
          "internalType": "uint256",
          "name": "",
          "type": "uint256"
        }
      ],
      "payable": false,
      "stateMutability": "view",
      "type": "function"
    },
    {
      "constant": true,
      "inputs": [],
      "name": "relayHubVersion",
      "outputs": [
        {
          "internalType": "string",
          "name": "",
          "type": "string"
        }
      ],
      "payable": false,
      "stateMutability": "view",
      "type": "function"
    },
    {
      "constant": false,
      "inputs": [
        {
          "internalType": "address",
          "name": "recipient",
          "type": "address"
        }
      ],
      "name": "renew",
      "outputs": [],
      "payable": false,
      "stateMutability": "nonpayable",
      "type": "function"
    },
    {
      "constant": true,
      "inputs": [],
      "name": "renewBefore",
      "outputs": [
        {
          "internalType": "uint256",
          "name": "",
          "type": "uint256"
        }
      ],
      "payable": false,
      "stateMutability": "view",
      "type": "function"
    },
    {
      "constant": false,
      "inputs": [],
      "name": "renounceOwnership",
      "outputs": [],
      "payable": false,
      "stateMutability": "nonpayable",
      "type": "function"
    },
    {
      "constant": false,
      "inputs": [],
      "name": "setDefaultRelayHub",
      "outputs": [],
      "payable": false,
      "stateMutability": "nonpayable",
      "type": "function"
    },
    {
      "constant": false,
      "inputs": [
        {
          "internalType": "address",
          "name": "recipient",
          "type": "address"
        },
        {
          "internalType": "bool",
          "name": "renewable",
          "type": "bool"
        }
      ],
      "name": "subscribe",
      "outputs": [],
      "payable": false,
      "stateMutability": "nonpayable",
      "type": "function"
    },
    {
      "constant": false,
      "inputs": [
        {
          "internalType": "address",
          "name": "newOwner",
          "type": "address"
        }
      ],
      "name": "transferOwnership",
      "outputs": [],
      "payable": false,
      "stateMutability": "nonpayable",
      "type": "function"
    },
    {
      "constant": false,
      "inputs": [
        {
          "internalType": "uint256",
          "name": "duration_",
          "type": "uint256"
        }
      ],
      "name": "updateDuration",
      "outputs": [],
      "payable": false,
      "stateMutability": "nonpayable",
      "type": "function"
    },
    {
      "constant": false,
      "inputs": [
        {
          "internalType": "uint256",
          "name": "price_",
          "type": "uint256"
        }
      ],
      "name": "updatePrice",
      "outputs": [],
      "payable": false,
      "stateMutability": "nonpayable",
      "type": "function"
    },
    {
      "constant": false,
      "inputs": [
        {
          "internalType": "uint256",
          "name": "renewBefore_",
          "type": "uint256"
        }
      ],
      "name": "updateRenewBefore",
      "outputs": [],
      "payable": false,
      "stateMutability": "nonpayable",
      "type": "function"
    }
  ],
  "bytecode": "0x6080604052612c9d806100136000396000f3fe608060405234801561001057600080fd5b50600436106101ce5760003560e01c8063715018a6116101045780638f32d59b116100a2578063c4d66de811610071578063c4d66de81461096a578063e06e0e22146109ae578063f2fde38b14610a47578063fdc28c8c14610a8b576101ce565b80638f32d59b14610805578063a035b1fe14610827578063ad61ccd514610845578063b1a5d12d146108c8576101ce565b80638129fc1c116100de5780638129fc1c146105c257806383947ea0146105cc5780638d6cc56d1461078d5780638da5cb5b146107bb576101ce565b8063715018a6146104e157806374e861d6146104eb57806380274db714610535576101ce565b80631b50ad0911610171578063474738b71161014b578063474738b7146104075780634c33fe94146104355780634e47e1ec146104795780635120d8d114610497576101ce565b80631b50ad091461039d578063235b6ea1146103cb578063245c7c60146103e9576101ce565b80630fb5a6b4116101ad5780630fb5a6b4146103075780631085c9ba146103255780631220e2ff1461034357806319bc469e1461034d576101ce565b806240de43146101d357806304dbe3fe146102575780630dda029e146102af575b600080fd5b610215600480360360208110156101e957600080fd5b81019080803573ffffffffffffffffffffffffffffffffffffffff169060200190929190505050610acf565b604051808273ffffffffffffffffffffffffffffffffffffffff1673ffffffffffffffffffffffffffffffffffffffff16815260200191505060405180910390f35b6102996004803603602081101561026d57600080fd5b81019080803573ffffffffffffffffffffffffffffffffffffffff169060200190929190505050610b02565b6040518082815260200191505060405180910390f35b6102f1600480360360208110156102c557600080fd5b81019080803573ffffffffffffffffffffffffffffffffffffffff169060200190929190505050610b4b565b6040518082815260200191505060405180910390f35b61030f610b63565b6040518082815260200191505060405180910390f35b61032d610b6d565b6040518082815260200191505060405180910390f35b61034b610b77565b005b61039b6004803603604081101561036357600080fd5b81019080803573ffffffffffffffffffffffffffffffffffffffff169060200190929190803515159060200190929190505050610b96565b005b6103c9600480360360208110156103b357600080fd5b8101908080359060200190929190505050610c37565b005b6103d3610d4b565b6040518082815260200191505060405180910390f35b6103f1610d51565b6040518082815260200191505060405180910390f35b6104336004803603602081101561041d57600080fd5b8101908080359060200190929190505050610d57565b005b6104776004803603602081101561044b57600080fd5b81019080803573ffffffffffffffffffffffffffffffffffffffff169060200190929190505050610e6b565b005b61048161108a565b6040518082815260200191505060405180910390f35b61049f611090565b604051808273ffffffffffffffffffffffffffffffffffffffff1673ffffffffffffffffffffffffffffffffffffffff16815260200191505060405180910390f35b6104e96110b6565b005b6104f36111f1565b604051808273ffffffffffffffffffffffffffffffffffffffff1673ffffffffffffffffffffffffffffffffffffffff16815260200191505060405180910390f35b6105ac6004803603602081101561054b57600080fd5b810190808035906020019064010000000081111561056857600080fd5b82018360208201111561057a57600080fd5b8035906020019184600183028401116401000000008311171561059c57600080fd5b909192939192939050505061121b565b6040518082815260200191505060405180910390f35b6105ca6112fd565b005b61070b60048036036101208110156105e357600080fd5b81019080803573ffffffffffffffffffffffffffffffffffffffff169060200190929190803573ffffffffffffffffffffffffffffffffffffffff1690602001909291908035906020019064010000000081111561064057600080fd5b82018360208201111561065257600080fd5b8035906020019184600183028401116401000000008311171561067457600080fd5b909192939192939080359060200190929190803590602001909291908035906020019092919080359060200190929190803590602001906401000000008111156106bd57600080fd5b8201836020820111156106cf57600080fd5b803590602001918460018302840111640100000000831117156106f157600080fd5b90919293919293908035906020019092919050505061145c565b6040518083815260200180602001828103825283818151815260200191508051906020019080838360005b83811015610751578082015181840152602081019050610736565b50505050905090810190601f16801561077e5780820380516001836020036101000a031916815260200191505b50935050505060405180910390f35b6107b9600480360360208110156107a357600080fd5b8101908080359060200190929190505050611691565b005b6107c36117a5565b604051808273ffffffffffffffffffffffffffffffffffffffff1673ffffffffffffffffffffffffffffffffffffffff16815260200191505060405180910390f35b61080d6117cf565b604051808215151515815260200191505060405180910390f35b61082f61182e565b6040518082815260200191505060405180910390f35b61084d611838565b6040518080602001828103825283818151815260200191508051906020019080838360005b8381101561088d578082015181840152602081019050610872565b50505050905090810190601f1680156108ba5780820380516001836020036101000a031916815260200191505b509250505060405180910390f35b610968600480360360c08110156108de57600080fd5b81019080803573ffffffffffffffffffffffffffffffffffffffff169060200190929190803573ffffffffffffffffffffffffffffffffffffffff169060200190929190803590602001909291908035906020019092919080359060200190929190803573ffffffffffffffffffffffffffffffffffffffff169060200190929190505050611875565b005b6109ac6004803603602081101561098057600080fd5b81019080803573ffffffffffffffffffffffffffffffffffffffff169060200190929190505050611a6e565b005b610a45600480360360808110156109c457600080fd5b81019080803590602001906401000000008111156109e157600080fd5b8201836020820111156109f357600080fd5b80359060200191846001830284011164010000000083111715610a1557600080fd5b90919293919293908035151590602001909291908035906020019092919080359060200190929190505050611b7f565b005b610a8960048036036020811015610a5d57600080fd5b81019080803573ffffffffffffffffffffffffffffffffffffffff169060200190929190505050611c61565b005b610acd60048036036020811015610aa157600080fd5b81019080803573ffffffffffffffffffffffffffffffffffffffff169060200190929190505050611ce7565b005b606c6020528060005260406000206000915054906101000a900473ffffffffffffffffffffffffffffffffffffffff1681565b6000606b60008373ffffffffffffffffffffffffffffffffffffffff1673ffffffffffffffffffffffffffffffffffffffff168152602001908152602001600020549050919050565b606b6020528060005260406000206000915090505481565b6000606954905090565b6000606854905090565b610b9473d216153c06e857cd7f72665e0af1d7d82172f494611e55565b565b6000610ba0612026565b90508115610c275780606c60008573ffffffffffffffffffffffffffffffffffffffff1673ffffffffffffffffffffffffffffffffffffffff16815260200190815260200160002060006101000a81548173ffffffffffffffffffffffffffffffffffffffff021916908373ffffffffffffffffffffffffffffffffffffffff1602179055505b610c32818484612093565b505050565b610c3f6117cf565b610cb1576040517f08c379a00000000000000000000000000000000000000000000000000000000081526004018080602001828103825260208152602001807f4f776e61626c653a2063616c6c6572206973206e6f7420746865206f776e657281525060200191505060405180910390fd5b60008111610d0a576040517f08c379a0000000000000000000000000000000000000000000000000000000008152600401808060200182810382526025815260200180612a356025913960400191505060405180910390fd5b806069819055507f91abcc2d6823e3a3f11d31b208dd3065d2c6a791f1c7c9fe96a42ce12897eac5816040518082815260200191505060405180910390a150565b606a5481565b60695481565b610d5f6117cf565b610dd1576040517f08c379a00000000000000000000000000000000000000000000000000000000081526004018080602001828103825260208152602001807f4f776e61626c653a2063616c6c6572206973206e6f7420746865206f776e657281525060200191505060405180910390fd5b60008111610e2a576040517f08c379a0000000000000000000000000000000000000000000000000000000008152600401808060200182810382526028815260200180612b896028913960400191505060405180910390fd5b806068819055507f910b02595d6b5ce3e26daa3fa59d878d520b015b80981aaf497e918a841b4e51816040518082815260200191505060405180910390a150565b6000606c60008373ffffffffffffffffffffffffffffffffffffffff1673ffffffffffffffffffffffffffffffffffffffff16815260200190815260200160002060009054906101000a900473ffffffffffffffffffffffffffffffffffffffff1690508073ffffffffffffffffffffffffffffffffffffffff16610eee612026565b73ffffffffffffffffffffffffffffffffffffffff161480610f4257508173ffffffffffffffffffffffffffffffffffffffff16610f2a612026565b73ffffffffffffffffffffffffffffffffffffffff16145b610f97576040517f08c379a0000000000000000000000000000000000000000000000000000000008152600401808060200182810382526047815260200180612a5a6047913960600191505060405180910390fd5b606c60008373ffffffffffffffffffffffffffffffffffffffff1673ffffffffffffffffffffffffffffffffffffffff16815260200190815260200160002060006101000a81549073ffffffffffffffffffffffffffffffffffffffff02191690558173ffffffffffffffffffffffffffffffffffffffff167ff3a6ef5718c05d9183af076f5753197b68b04552a763c34796637d6134bdd0f2606b60008573ffffffffffffffffffffffffffffffffffffffff1673ffffffffffffffffffffffffffffffffffffffff168152602001908152602001600020546040518082815260200191505060405180910390a25050565b60685481565b606d60009054906101000a900473ffffffffffffffffffffffffffffffffffffffff1681565b6110be6117cf565b611130576040517f08c379a00000000000000000000000000000000000000000000000000000000081526004018080602001828103825260208152602001807f4f776e61626c653a2063616c6c6572206973206e6f7420746865206f776e657281525060200191505060405180910390fd5b600073ffffffffffffffffffffffffffffffffffffffff16603360009054906101000a900473ffffffffffffffffffffffffffffffffffffffff1673ffffffffffffffffffffffffffffffffffffffff167f8be0079c531659141344cd1fd0a4f28419497f9722a3daafe3b4186f6b6457e060405160405180910390a36000603360006101000a81548173ffffffffffffffffffffffffffffffffffffffff021916908373ffffffffffffffffffffffffffffffffffffffff160217905550565b6000606660009054906101000a900473ffffffffffffffffffffffffffffffffffffffff16905090565b60006112256111f1565b73ffffffffffffffffffffffffffffffffffffffff163373ffffffffffffffffffffffffffffffffffffffff16146112a8576040517f08c379a0000000000000000000000000000000000000000000000000000000008152600401808060200182810382526024815260200180612c456024913960400191505060405180910390fd5b6112f583838080601f016020809104026020016040519081016040528093929190818152602001838380828437600081840152601f19601f82011690508083019250505050505050612333565b905092915050565b600060019054906101000a900460ff168061131c575061131b61233a565b5b8061133357506000809054906101000a900460ff16155b611388576040517f08c379a000000000000000000000000000000000000000000000000000000000815260040180806020018281038252602e815260200180612bb1602e913960400191505060405180910390fd5b60008060019054906101000a900460ff1615905080156113d8576001600060016101000a81548160ff02191690831515021790555060016000806101000a81548160ff0219169083151502179055505b600073ffffffffffffffffffffffffffffffffffffffff16606660009054906101000a900473ffffffffffffffffffffffffffffffffffffffff1673ffffffffffffffffffffffffffffffffffffffff16141561143857611437610b77565b5b80156114595760008060016101000a81548160ff0219169083151502179055505b50565b60006060808d8d8d8d8d8d8d8d6114716111f1565b30604051602001808b73ffffffffffffffffffffffffffffffffffffffff1673ffffffffffffffffffffffffffffffffffffffff1681526020018a73ffffffffffffffffffffffffffffffffffffffff1673ffffffffffffffffffffffffffffffffffffffff168152602001806020018881526020018781526020018681526020018581526020018473ffffffffffffffffffffffffffffffffffffffff1673ffffffffffffffffffffffffffffffffffffffff1681526020018373ffffffffffffffffffffffffffffffffffffffff1673ffffffffffffffffffffffffffffffffffffffff16815260200182810382528a8a82818152602001925080828437600081840152601f19601f8201169050808301925050509b5050505050505050505050506040516020818303038152906040529050606760009054906101000a900473ffffffffffffffffffffffffffffffffffffffff1673ffffffffffffffffffffffffffffffffffffffff1661164587878080601f016020809104026020016040519081016040528093929190818152602001838380828437600081840152601f19601f82011690508083019250505050505050611637848051906020012061234b565b6123a390919063ffffffff16565b73ffffffffffffffffffffffffffffffffffffffff161415611673576116696124a7565b9250925050611681565b61167b6124a7565b92509250505b9b509b9950505050505050505050565b6116996117cf565b61170b576040517f08c379a00000000000000000000000000000000000000000000000000000000081526004018080602001828103825260208152602001807f4f776e61626c653a2063616c6c6572206973206e6f7420746865206f776e657281525060200191505060405180910390fd5b60008111611764576040517f08c379a0000000000000000000000000000000000000000000000000000000008152600401808060200182810382526022815260200180612a136022913960400191505060405180910390fd5b80606a819055507f66cbca4f3c64fecf1dcb9ce094abcf7f68c3450a1d4e3a8e917dd621edb4ebe0816040518082815260200191505060405180910390a150565b6000603360009054906101000a900473ffffffffffffffffffffffffffffffffffffffff16905090565b6000603360009054906101000a900473ffffffffffffffffffffffffffffffffffffffff1673ffffffffffffffffffffffffffffffffffffffff16611812612026565b73ffffffffffffffffffffffffffffffffffffffff1614905090565b6000606a54905090565b60606040518060400160405280600581526020017f312e302e30000000000000000000000000000000000000000000000000000000815250905090565b600060019054906101000a900460ff1680611894575061189361233a565b5b806118ab57506000809054906101000a900460ff16155b611900576040517f08c379a000000000000000000000000000000000000000000000000000000000815260040180806020018281038252602e815260200180612bb1602e913960400191505060405180910390fd5b60008060019054906101000a900460ff161590508015611950576001600060016101000a81548160ff02191690831515021790555060016000806101000a81548160ff0219169083151502179055505b600073ffffffffffffffffffffffffffffffffffffffff168773ffffffffffffffffffffffffffffffffffffffff1614156119d6576040517f08c379a0000000000000000000000000000000000000000000000000000000008152600401808060200182810382526024815260200180612ac76024913960400191505060405180910390fd5b6119df876124cb565b85606d60006101000a81548173ffffffffffffffffffffffffffffffffffffffff021916908373ffffffffffffffffffffffffffffffffffffffff160217905550611a2982611a6e565b611a3285611691565b611a3b84610c37565b611a4483610d57565b8015611a655760008060016101000a81548160ff0219169083151502179055505b50505050505050565b600060019054906101000a900460ff1680611a8d5750611a8c61233a565b5b80611aa457506000809054906101000a900460ff16155b611af9576040517f08c379a000000000000000000000000000000000000000000000000000000000815260040180806020018281038252602e815260200180612bb1602e913960400191505060405180910390fd5b60008060019054906101000a900460ff161590508015611b49576001600060016101000a81548160ff02191690831515021790555060016000806101000a81548160ff0219169083151502179055505b611b5282612689565b611b5a6112fd565b8015611b7b5760008060016101000a81548160ff0219169083151502179055505b5050565b611b876111f1565b73ffffffffffffffffffffffffffffffffffffffff163373ffffffffffffffffffffffffffffffffffffffff1614611c0a576040517f08c379a0000000000000000000000000000000000000000000000000000000008152600401808060200182810382526024815260200180612c456024913960400191505060405180910390fd5b611c5a85858080601f016020809104026020016040519081016040528093929190818152602001838380828437600081840152601f19601f820116905080830192505050505050508484846127b6565b5050505050565b611c696117cf565b611cdb576040517f08c379a00000000000000000000000000000000000000000000000000000000081526004018080602001828103825260208152602001807f4f776e61626c653a2063616c6c6572206973206e6f7420746865206f776e657281525060200191505060405180910390fd5b611ce4816127bc565b50565b6000606c60008373ffffffffffffffffffffffffffffffffffffffff1673ffffffffffffffffffffffffffffffffffffffff16815260200190815260200160002060009054906101000a900473ffffffffffffffffffffffffffffffffffffffff169050600073ffffffffffffffffffffffffffffffffffffffff168173ffffffffffffffffffffffffffffffffffffffff161415611dd1576040517f08c379a0000000000000000000000000000000000000000000000000000000008152600401808060200182810382526027815260200180612b626027913960400191505060405180910390fd5b611de66068544261290290919063ffffffff16565b611def83610b02565b10611e45576040517f08c379a0000000000000000000000000000000000000000000000000000000008152600401808060200182810382526021815260200180612b136021913960400191505060405180910390fd5b611e5181836001612093565b5050565b6000606660009054906101000a900473ffffffffffffffffffffffffffffffffffffffff169050600073ffffffffffffffffffffffffffffffffffffffff168273ffffffffffffffffffffffffffffffffffffffff161415611f02576040517f08c379a000000000000000000000000000000000000000000000000000000000815260040180806020018281038252602e815260200180612b34602e913960400191505060405180910390fd5b8073ffffffffffffffffffffffffffffffffffffffff168273ffffffffffffffffffffffffffffffffffffffff161415611f87576040517f08c379a000000000000000000000000000000000000000000000000000000000815260040180806020018281038252602d815260200180612bdf602d913960400191505060405180910390fd5b8173ffffffffffffffffffffffffffffffffffffffff168173ffffffffffffffffffffffffffffffffffffffff167fb9f84b8e65164b14439ae3620df0a4d8786d896996c0282b683f9d8c08f046e860405160405180910390a381606660006101000a81548173ffffffffffffffffffffffffffffffffffffffff021916908373ffffffffffffffffffffffffffffffffffffffff1602179055505050565b6000606660009054906101000a900473ffffffffffffffffffffffffffffffffffffffff1673ffffffffffffffffffffffffffffffffffffffff163373ffffffffffffffffffffffffffffffffffffffff161461208557339050612090565b61208d61298a565b90505b90565b600073ffffffffffffffffffffffffffffffffffffffff168273ffffffffffffffffffffffffffffffffffffffff161415612119576040517f08c379a0000000000000000000000000000000000000000000000000000000008152600401808060200182810382526028815260200180612aeb6028913960400191505060405180910390fd5b6000606b60008473ffffffffffffffffffffffffffffffffffffffff1673ffffffffffffffffffffffffffffffffffffffff16815260200190815260200160002054905042811015612169574290505b60006121806069548361290290919063ffffffff16565b905080606b60008673ffffffffffffffffffffffffffffffffffffffff1673ffffffffffffffffffffffffffffffffffffffff168152602001908152602001600020819055508473ffffffffffffffffffffffffffffffffffffffff168473ffffffffffffffffffffffffffffffffffffffff167fd38b19993495aaecd8b724dae5aba66885a681f4cbe90b11feb232ef36ed4e35606a5484876040518084815260200183815260200182151515158152602001935050505060405180910390a3606d60009054906101000a900473ffffffffffffffffffffffffffffffffffffffff1673ffffffffffffffffffffffffffffffffffffffff1663fc673c4f86606a546040518363ffffffff1660e01b8152600401808373ffffffffffffffffffffffffffffffffffffffff1673ffffffffffffffffffffffffffffffffffffffff1681526020018281526020018060200180602001838103835260008152602001602001838103825260008152602001602001945050505050600060405180830381600087803b15801561231457600080fd5b505af1158015612328573d6000803e3d6000fd5b505050505050505050565b6000919050565b600080303b90506000811491505090565b60008160405160200180807f19457468657265756d205369676e6564204d6573736167653a0a333200000000815250601c01828152602001915050604051602081830303815290604052805190602001209050919050565b600060418251146123b757600090506124a1565b60008060006020850151925060408501519150606085015160001a90507f7fffffffffffffffffffffffffffffff5d576e7357a4501ddfe92f46681b20a08260001c111561240b57600093505050506124a1565b601b8160ff16141580156124235750601c8160ff1614155b1561243457600093505050506124a1565b60018682858560405160008152602001604052604051808581526020018460ff1660ff1681526020018381526020018281526020019450505050506020604051602081039080840390855afa158015612491573d6000803e3d6000fd5b5050506020604051035193505050505b92915050565b600060606124c360405180602001604052806000815250612a02565b915091509091565b600060019054906101000a900460ff16806124ea57506124e961233a565b5b8061250157506000809054906101000a900460ff16155b612556576040517f08c379a000000000000000000000000000000000000000000000000000000000815260040180806020018281038252602e815260200180612bb1602e913960400191505060405180910390fd5b60008060019054906101000a900460ff1615905080156125a6576001600060016101000a81548160ff02191690831515021790555060016000806101000a81548160ff0219169083151502179055505b81603360006101000a81548173ffffffffffffffffffffffffffffffffffffffff021916908373ffffffffffffffffffffffffffffffffffffffff160217905550603360009054906101000a900473ffffffffffffffffffffffffffffffffffffffff1673ffffffffffffffffffffffffffffffffffffffff16600073ffffffffffffffffffffffffffffffffffffffff167f8be0079c531659141344cd1fd0a4f28419497f9722a3daafe3b4186f6b6457e060405160405180910390a380156126855760008060016101000a81548160ff0219169083151502179055505b5050565b600073ffffffffffffffffffffffffffffffffffffffff168173ffffffffffffffffffffffffffffffffffffffff16141561270f576040517f08c379a0000000000000000000000000000000000000000000000000000000008152600401808060200182810382526039815260200180612c0c6039913960400191505060405180910390fd5b80606760006101000a81548173ffffffffffffffffffffffffffffffffffffffff021916908373ffffffffffffffffffffffffffffffffffffffff1602179055507f5553331329228fbd4123164423717a4a7539f6dfa1c3279a923b98fd681a6c7381604051808273ffffffffffffffffffffffffffffffffffffffff1673ffffffffffffffffffffffffffffffffffffffff16815260200191505060405180910390a150565b50505050565b600073ffffffffffffffffffffffffffffffffffffffff168173ffffffffffffffffffffffffffffffffffffffff161415612842576040517f08c379a0000000000000000000000000000000000000000000000000000000008152600401808060200182810382526026815260200180612aa16026913960400191505060405180910390fd5b8073ffffffffffffffffffffffffffffffffffffffff16603360009054906101000a900473ffffffffffffffffffffffffffffffffffffffff1673ffffffffffffffffffffffffffffffffffffffff167f8be0079c531659141344cd1fd0a4f28419497f9722a3daafe3b4186f6b6457e060405160405180910390a380603360006101000a81548173ffffffffffffffffffffffffffffffffffffffff021916908373ffffffffffffffffffffffffffffffffffffffff16021790555050565b600080828401905083811015612980576040517f08c379a000000000000000000000000000000000000000000000000000000000815260040180806020018281038252601b8152602001807f536166654d6174683a206164646974696f6e206f766572666c6f77000000000081525060200191505060405180910390fd5b8091505092915050565b600060606000368080601f016020809104026020016040519081016040528093929190818152602001838380828437600081840152601f19601f820116905080830192505050505050509050600080369050905073ffffffffffffffffffffffffffffffffffffffff81830151169250829250505090565b600060606000839150915091509156fe537562736372697074696f6e733a2070726963652073686f756c64206265203e2030537562736372697074696f6e733a206475726174696f6e2073686f756c64206265203e2030537562736372697074696f6e733a20737562736372697074696f6e2063616e2062652063616e63656c6c6564206279207061796572206f7220726563697069656e74206f6e6c794f776e61626c653a206e6577206f776e657220697320746865207a65726f2061646472657373537562736372697074696f6e733a206f776e65722073686f756c64206e6f742062652030537562736372697074696f6e733a20726563697069656e742073686f756c64206e6f742062652030537562736372697074696f6e733a20746f6f206561726c7920746f2072656e657747534e526563697069656e743a206e65772052656c617948756220697320746865207a65726f2061646472657373537562736372697074696f6e733a20737562736372697074696f6e2069732063616e63656c6564537562736372697074696f6e733a2072656e65774265666f72652073686f756c64206265203e2030436f6e747261637420696e7374616e63652068617320616c7265616479206265656e20696e697469616c697a656447534e526563697069656e743a206e65772052656c6179487562206973207468652063757272656e74206f6e6547534e526563697069656e745369676e61747572653a2074727573746564207369676e657220697320746865207a65726f206164647265737347534e526563697069656e743a2063616c6c6572206973206e6f742052656c6179487562a265627a7a72315820a80158e88f1f5bb61b593bb84b95d9932257779d6b83948e9238b9dce188844964736f6c63430005110032",
  "compiler": {
    "name": "solc",
    "version": "0.5.17+commit.d19bba13.Emscripten.clang",
    "optimizer": {
      "enabled": false,
      "runs": 200
    },
    "evmVersion": "petersburg"
  }
}