{
  "fileName": "Subscriptions_v0.sol",
  "contractName": "Subscriptions_v0",
  "source": "pragma solidity >=0.5.0 < 0.6.0;\n\nimport \"../contracts-package/Initializable.sol\";\nimport \"../contracts-package/Ownable.sol\";\nimport \"../contracts-package/ERC20.sol\";\nimport \"./ISubredditPoints.sol\";\nimport \"../libraries/Address.sol\";\n\n\ncontract Subscriptions_v0 is Initializable, Ownable {\n    using SafeMath for uint256;\n    using Address for address;\n\n    event Subscribed(address indexed recipient, address indexed payer, uint256 burnedPoints, uint256 expiresAt, bool renewable);\n    event Canceled(address indexed recipient, uint256 expiresAt);\n    event DurationUpdated(uint256 duration);\n    event PriceUpdated(uint256 price);\n    event RenewBeforeUpdated(uint256 renewBefore);\n\n    uint256 public renewBeforeVal;\n    uint256 public durationVal;\n    uint256 public priceVal;\n\n    // maps address to expiration time\n    mapping(address => uint256) public _subscriptions;\n    // maps address of recipient to address of payer\n    mapping(address => address) public _payers;\n    address public _subredditPoints;\n\n    function initializecontract(\n        address owner_,\n        address subredditPoints,\n        uint256 price_,\n        uint256 duration_,\n        uint256 renewBefore\n    ) external initializer {\n        require(owner_ != address(0), \"Subscriptions: owner should not be 0\");\n\n        Ownable.initialize(owner_);\n        _subredditPoints = subredditPoints;\n\n        updatePrice(price_);\n        updateDuration(duration_);\n        updateRenewBefore(renewBefore);\n    }\n\n    function cancel(address recipient) external {\n        address payer = _payers[recipient];\n        require(msg.sender == payer || msg.sender == recipient, \"Subscriptions: subscription can be cancelled by payer or recipient only\");\n        delete _payers[recipient];\n        emit Canceled(recipient, _subscriptions[recipient]);\n    }\n\n    function renew(address recipient) external {\n        address payer = _payers[recipient];\n        require(payer != address(0), \"Subscriptions: subscription is canceled\");\n        // solium-disable-next-line security/no-block-members\n        require(expiration(recipient) < block.timestamp.add(renewBeforeVal), \"Subscriptions: too early to renew\");\n        _subscribe(payer, recipient, true);\n    }\n\n    function subscribe(address recipient, bool renewable) external {\n        address payer = msg.sender;\n        if (renewable) {\n            _payers[recipient] = payer;\n        }\n        _subscribe(payer, recipient, renewable);\n    }\n\n    function _subscribe(address payer, address recipient, bool renewable) internal {\n        require(recipient != address(0), \"Subscriptions: recipient should not be 0\");\n        uint256 expirationAt = _subscriptions[recipient];\n        // solium-disable-next-line security/no-block-members\n        if (expirationAt < block.timestamp) {\n            // solium-disable-next-line security/no-block-members\n            expirationAt = block.timestamp;\n        }\n        uint256 newExpiration = expirationAt.add(durationVal);\n        _subscriptions[recipient] = newExpiration;\n        emit Subscribed(recipient, payer, priceVal, newExpiration, renewable);\n        ISubredditPoints(_subredditPoints).operatorBurn(payer, priceVal, \"\", \"\");\n    }\n\n    function updateDuration(uint256 duration_) public onlyOwner {\n        require(duration_ > 0, \"Subscriptions: duration should be > 0\");\n        durationVal = duration_;\n        emit DurationUpdated(duration_);\n    }\n\n    function updatePrice(uint256 price_) public onlyOwner {\n        require(price_ > 0, \"Subscriptions: price should be > 0\");\n        priceVal = price_;\n        emit PriceUpdated(price_);\n    }\n\n    function updateRenewBefore(uint256 renewBefore) public onlyOwner {\n        require(renewBefore > 0, \"Subscriptions: renewBefore should be > 0\");\n        renewBeforeVal = renewBefore;\n        emit RenewBeforeUpdated(renewBefore);\n    }\n\n    function duration() external view returns (uint256) {\n        return durationVal;\n    }\n\n    function price() external view returns (uint256) {\n        return priceVal;\n    }\n\n    function renewBefore() external view returns (uint256) {\n        return renewBeforeVal;\n    }\n\n    function expiration(address account) public view returns (uint256) {\n        return _subscriptions[account];\n    }\n}",
  "sourcePath": "contracts/child/Subscriptions_v0.sol",
  "abi": [
    {
      "anonymous": false,
      "inputs": [
        {
          "indexed": true,
          "internalType": "address",
          "name": "recipient",
          "type": "address"
        },
        {
          "indexed": false,
          "internalType": "uint256",
          "name": "expiresAt",
          "type": "uint256"
        }
      ],
      "name": "Canceled",
      "type": "event"
    },
    {
      "anonymous": false,
      "inputs": [
        {
          "indexed": false,
          "internalType": "uint256",
          "name": "duration",
          "type": "uint256"
        }
      ],
      "name": "DurationUpdated",
      "type": "event"
    },
    {
      "anonymous": false,
      "inputs": [
        {
          "indexed": true,
          "internalType": "address",
          "name": "previousOwner",
          "type": "address"
        },
        {
          "indexed": true,
          "internalType": "address",
          "name": "newOwner",
          "type": "address"
        }
      ],
      "name": "OwnershipTransferred",
      "type": "event"
    },
    {
      "anonymous": false,
      "inputs": [
        {
          "indexed": false,
          "internalType": "uint256",
          "name": "price",
          "type": "uint256"
        }
      ],
      "name": "PriceUpdated",
      "type": "event"
    },
    {
      "anonymous": false,
      "inputs": [
        {
          "indexed": false,
          "internalType": "uint256",
          "name": "renewBefore",
          "type": "uint256"
        }
      ],
      "name": "RenewBeforeUpdated",
      "type": "event"
    },
    {
      "anonymous": false,
      "inputs": [
        {
          "indexed": true,
          "internalType": "address",
          "name": "recipient",
          "type": "address"
        },
        {
          "indexed": true,
          "internalType": "address",
          "name": "payer",
          "type": "address"
        },
        {
          "indexed": false,
          "internalType": "uint256",
          "name": "burnedPoints",
          "type": "uint256"
        },
        {
          "indexed": false,
          "internalType": "uint256",
          "name": "expiresAt",
          "type": "uint256"
        },
        {
          "indexed": false,
          "internalType": "bool",
          "name": "renewable",
          "type": "bool"
        }
      ],
      "name": "Subscribed",
      "type": "event"
    },
    {
      "constant": true,
      "inputs": [
        {
          "internalType": "address",
          "name": "",
          "type": "address"
        }
      ],
      "name": "_payers",
      "outputs": [
        {
          "internalType": "address",
          "name": "",
          "type": "address"
        }
      ],
      "payable": false,
      "stateMutability": "view",
      "type": "function"
    },
    {
      "constant": true,
      "inputs": [],
      "name": "_subredditPoints",
      "outputs": [
        {
          "internalType": "address",
          "name": "",
          "type": "address"
        }
      ],
      "payable": false,
      "stateMutability": "view",
      "type": "function"
    },
    {
      "constant": true,
      "inputs": [
        {
          "internalType": "address",
          "name": "",
          "type": "address"
        }
      ],
      "name": "_subscriptions",
      "outputs": [
        {
          "internalType": "uint256",
          "name": "",
          "type": "uint256"
        }
      ],
      "payable": false,
      "stateMutability": "view",
      "type": "function"
    },
    {
      "constant": false,
      "inputs": [
        {
          "internalType": "address",
          "name": "recipient",
          "type": "address"
        }
      ],
      "name": "cancel",
      "outputs": [],
      "payable": false,
      "stateMutability": "nonpayable",
      "type": "function"
    },
    {
      "constant": true,
      "inputs": [],
      "name": "duration",
      "outputs": [
        {
          "internalType": "uint256",
          "name": "",
          "type": "uint256"
        }
      ],
      "payable": false,
      "stateMutability": "view",
      "type": "function"
    },
    {
      "constant": true,
      "inputs": [],
      "name": "durationVal",
      "outputs": [
        {
          "internalType": "uint256",
          "name": "",
          "type": "uint256"
        }
      ],
      "payable": false,
      "stateMutability": "view",
      "type": "function"
    },
    {
      "constant": true,
      "inputs": [
        {
          "internalType": "address",
          "name": "account",
          "type": "address"
        }
      ],
      "name": "expiration",
      "outputs": [
        {
          "internalType": "uint256",
          "name": "",
          "type": "uint256"
        }
      ],
      "payable": false,
      "stateMutability": "view",
      "type": "function"
    },
    {
      "constant": false,
      "inputs": [
        {
          "internalType": "address",
          "name": "sender",
          "type": "address"
        }
      ],
      "name": "initialize",
      "outputs": [],
      "payable": false,
      "stateMutability": "nonpayable",
      "type": "function"
    },
    {
      "constant": false,
      "inputs": [
        {
          "internalType": "address",
          "name": "owner_",
          "type": "address"
        },
        {
          "internalType": "address",
          "name": "subredditPoints",
          "type": "address"
        },
        {
          "internalType": "uint256",
          "name": "price_",
          "type": "uint256"
        },
        {
          "internalType": "uint256",
          "name": "duration_",
          "type": "uint256"
        },
        {
          "internalType": "uint256",
          "name": "renewBefore",
          "type": "uint256"
        }
      ],
      "name": "initializecontract",
      "outputs": [],
      "payable": false,
      "stateMutability": "nonpayable",
      "type": "function"
    },
    {
      "constant": true,
      "inputs": [],
      "name": "isOwner",
      "outputs": [
        {
          "internalType": "bool",
          "name": "",
          "type": "bool"
        }
      ],
      "payable": false,
      "stateMutability": "view",
      "type": "function"
    },
    {
      "constant": true,
      "inputs": [],
      "name": "owner",
      "outputs": [
        {
          "internalType": "address",
          "name": "",
          "type": "address"
        }
      ],
      "payable": false,
      "stateMutability": "view",
      "type": "function"
    },
    {
      "constant": true,
      "inputs": [],
      "name": "price",
      "outputs": [
        {
          "internalType": "uint256",
          "name": "",
          "type": "uint256"
        }
      ],
      "payable": false,
      "stateMutability": "view",
      "type": "function"
    },
    {
      "constant": true,
      "inputs": [],
      "name": "priceVal",
      "outputs": [
        {
          "internalType": "uint256",
          "name": "",
          "type": "uint256"
        }
      ],
      "payable": false,
      "stateMutability": "view",
      "type": "function"
    },
    {
      "constant": false,
      "inputs": [
        {
          "internalType": "address",
          "name": "recipient",
          "type": "address"
        }
      ],
      "name": "renew",
      "outputs": [],
      "payable": false,
      "stateMutability": "nonpayable",
      "type": "function"
    },
    {
      "constant": true,
      "inputs": [],
      "name": "renewBefore",
      "outputs": [
        {
          "internalType": "uint256",
          "name": "",
          "type": "uint256"
        }
      ],
      "payable": false,
      "stateMutability": "view",
      "type": "function"
    },
    {
      "constant": true,
      "inputs": [],
      "name": "renewBeforeVal",
      "outputs": [
        {
          "internalType": "uint256",
          "name": "",
          "type": "uint256"
        }
      ],
      "payable": false,
      "stateMutability": "view",
      "type": "function"
    },
    {
      "constant": false,
      "inputs": [],
      "name": "renounceOwnership",
      "outputs": [],
      "payable": false,
      "stateMutability": "nonpayable",
      "type": "function"
    },
    {
      "constant": false,
      "inputs": [
        {
          "internalType": "address",
          "name": "recipient",
          "type": "address"
        },
        {
          "internalType": "bool",
          "name": "renewable",
          "type": "bool"
        }
      ],
      "name": "subscribe",
      "outputs": [],
      "payable": false,
      "stateMutability": "nonpayable",
      "type": "function"
    },
    {
      "constant": false,
      "inputs": [
        {
          "internalType": "address",
          "name": "newOwner",
          "type": "address"
        }
      ],
      "name": "transferOwnership",
      "outputs": [],
      "payable": false,
      "stateMutability": "nonpayable",
      "type": "function"
    },
    {
      "constant": false,
      "inputs": [
        {
          "internalType": "uint256",
          "name": "duration_",
          "type": "uint256"
        }
      ],
      "name": "updateDuration",
      "outputs": [],
      "payable": false,
      "stateMutability": "nonpayable",
      "type": "function"
    },
    {
      "constant": false,
      "inputs": [
        {
          "internalType": "uint256",
          "name": "price_",
          "type": "uint256"
        }
      ],
      "name": "updatePrice",
      "outputs": [],
      "payable": false,
      "stateMutability": "nonpayable",
      "type": "function"
    },
    {
      "constant": false,
      "inputs": [
        {
          "internalType": "uint256",
          "name": "renewBefore",
          "type": "uint256"
        }
      ],
      "name": "updateRenewBefore",
      "outputs": [],
      "payable": false,
      "stateMutability": "nonpayable",
      "type": "function"
    }
  ],
  "bytecode": "0x6080604052611aea806100136000396000f3fe608060405234801561001057600080fd5b50600436106101415760003560e01c80635120d8d1116100b85780638f32d59b1161007c5780638f32d59b14610530578063a035b1fe14610552578063c4d66de814610570578063f2fde38b146105b4578063fc961994146105f8578063fdc28c8c1461061657610141565b80635120d8d1146104465780636130e66b14610490578063715018a6146104ae5780638d6cc56d146104b85780638da5cb5b146104e657610141565b806319bc469e1161010a57806319bc469e146102b65780631b50ad091461030657806337d7839e14610334578063474738b7146103525780634c33fe94146103805780634c7dbef1146103c457610141565b806240de431461014657806304dbe3fe146101ca5780630dda029e146102225780630fb5a6b41461027a5780631085c9ba14610298575b600080fd5b6101886004803603602081101561015c57600080fd5b81019080803573ffffffffffffffffffffffffffffffffffffffff16906020019092919050505061065a565b604051808273ffffffffffffffffffffffffffffffffffffffff1673ffffffffffffffffffffffffffffffffffffffff16815260200191505060405180910390f35b61020c600480360360208110156101e057600080fd5b81019080803573ffffffffffffffffffffffffffffffffffffffff16906020019092919050505061068d565b6040518082815260200191505060405180910390f35b6102646004803603602081101561023857600080fd5b81019080803573ffffffffffffffffffffffffffffffffffffffff1690602001909291905050506106d6565b6040518082815260200191505060405180910390f35b6102826106ee565b6040518082815260200191505060405180910390f35b6102a06106f8565b6040518082815260200191505060405180910390f35b610304600480360360408110156102cc57600080fd5b81019080803573ffffffffffffffffffffffffffffffffffffffff169060200190929190803515159060200190929190505050610702565b005b6103326004803603602081101561031c57600080fd5b810190808035906020019092919050505061079c565b005b61033c6108b0565b6040518082815260200191505060405180910390f35b61037e6004803603602081101561036857600080fd5b81019080803590602001909291905050506108b6565b005b6103c26004803603602081101561039657600080fd5b81019080803573ffffffffffffffffffffffffffffffffffffffff1690602001909291905050506109ca565b005b610444600480360360a08110156103da57600080fd5b81019080803573ffffffffffffffffffffffffffffffffffffffff169060200190929190803573ffffffffffffffffffffffffffffffffffffffff169060200190929190803590602001909291908035906020019092919080359060200190929190505050610bdb565b005b61044e610dca565b604051808273ffffffffffffffffffffffffffffffffffffffff1673ffffffffffffffffffffffffffffffffffffffff16815260200191505060405180910390f35b610498610df0565b6040518082815260200191505060405180910390f35b6104b6610df6565b005b6104e4600480360360208110156104ce57600080fd5b8101908080359060200190929190505050610f31565b005b6104ee611045565b604051808273ffffffffffffffffffffffffffffffffffffffff1673ffffffffffffffffffffffffffffffffffffffff16815260200191505060405180910390f35b61053861106f565b604051808215151515815260200191505060405180910390f35b61055a6110ce565b6040518082815260200191505060405180910390f35b6105b26004803603602081101561058657600080fd5b81019080803573ffffffffffffffffffffffffffffffffffffffff1690602001909291905050506110d8565b005b6105f6600480360360208110156105ca57600080fd5b81019080803573ffffffffffffffffffffffffffffffffffffffff169060200190929190505050611296565b005b61060061131c565b6040518082815260200191505060405180910390f35b6106586004803603602081101561062c57600080fd5b81019080803573ffffffffffffffffffffffffffffffffffffffff169060200190929190505050611322565b005b606a6020528060005260406000206000915054906101000a900473ffffffffffffffffffffffffffffffffffffffff1681565b6000606960008373ffffffffffffffffffffffffffffffffffffffff1673ffffffffffffffffffffffffffffffffffffffff168152602001908152602001600020549050919050565b60696020528060005260406000206000915090505481565b6000606754905090565b6000606654905090565b6000339050811561078c5780606a60008573ffffffffffffffffffffffffffffffffffffffff1673ffffffffffffffffffffffffffffffffffffffff16815260200190815260200160002060006101000a81548173ffffffffffffffffffffffffffffffffffffffff021916908373ffffffffffffffffffffffffffffffffffffffff1602179055505b610797818484611490565b505050565b6107a461106f565b610816576040517f08c379a00000000000000000000000000000000000000000000000000000000081526004018080602001828103825260208152602001807f4f776e61626c653a2063616c6c6572206973206e6f7420746865206f776e657281525060200191505060405180910390fd5b6000811161086f576040517f08c379a000000000000000000000000000000000000000000000000000000000815260040180806020018281038252602581526020018061193a6025913960400191505060405180910390fd5b806067819055507f91abcc2d6823e3a3f11d31b208dd3065d2c6a791f1c7c9fe96a42ce12897eac5816040518082815260200191505060405180910390a150565b60685481565b6108be61106f565b610930576040517f08c379a00000000000000000000000000000000000000000000000000000000081526004018080602001828103825260208152602001807f4f776e61626c653a2063616c6c6572206973206e6f7420746865206f776e657281525060200191505060405180910390fd5b60008111610989576040517f08c379a0000000000000000000000000000000000000000000000000000000008152600401808060200182810382526028815260200180611a606028913960400191505060405180910390fd5b806066819055507f910b02595d6b5ce3e26daa3fa59d878d520b015b80981aaf497e918a841b4e51816040518082815260200191505060405180910390a150565b6000606a60008373ffffffffffffffffffffffffffffffffffffffff1673ffffffffffffffffffffffffffffffffffffffff16815260200190815260200160002060009054906101000a900473ffffffffffffffffffffffffffffffffffffffff1690508073ffffffffffffffffffffffffffffffffffffffff163373ffffffffffffffffffffffffffffffffffffffff161480610a9357508173ffffffffffffffffffffffffffffffffffffffff163373ffffffffffffffffffffffffffffffffffffffff16145b610ae8576040517f08c379a000000000000000000000000000000000000000000000000000000000815260040180806020018281038252604781526020018061195f6047913960600191505060405180910390fd5b606a60008373ffffffffffffffffffffffffffffffffffffffff1673ffffffffffffffffffffffffffffffffffffffff16815260200190815260200160002060006101000a81549073ffffffffffffffffffffffffffffffffffffffff02191690558173ffffffffffffffffffffffffffffffffffffffff167ff3a6ef5718c05d9183af076f5753197b68b04552a763c34796637d6134bdd0f2606960008573ffffffffffffffffffffffffffffffffffffffff1673ffffffffffffffffffffffffffffffffffffffff168152602001908152602001600020546040518082815260200191505060405180910390a25050565b600060019054906101000a900460ff1680610bfa5750610bf9611730565b5b80610c1157506000809054906101000a900460ff16155b610c66576040517f08c379a000000000000000000000000000000000000000000000000000000000815260040180806020018281038252602e815260200180611a88602e913960400191505060405180910390fd5b60008060019054906101000a900460ff161590508015610cb6576001600060016101000a81548160ff02191690831515021790555060016000806101000a81548160ff0219169083151502179055505b600073ffffffffffffffffffffffffffffffffffffffff168673ffffffffffffffffffffffffffffffffffffffff161415610d3c576040517f08c379a00000000000000000000000000000000000000000000000000000000081526004018080602001828103825260248152602001806119cc6024913960400191505060405180910390fd5b610d45866110d8565b84606b60006101000a81548173ffffffffffffffffffffffffffffffffffffffff021916908373ffffffffffffffffffffffffffffffffffffffff160217905550610d8f84610f31565b610d988361079c565b610da1826108b6565b8015610dc25760008060016101000a81548160ff0219169083151502179055505b505050505050565b606b60009054906101000a900473ffffffffffffffffffffffffffffffffffffffff1681565b60665481565b610dfe61106f565b610e70576040517f08c379a00000000000000000000000000000000000000000000000000000000081526004018080602001828103825260208152602001807f4f776e61626c653a2063616c6c6572206973206e6f7420746865206f776e657281525060200191505060405180910390fd5b600073ffffffffffffffffffffffffffffffffffffffff16603360009054906101000a900473ffffffffffffffffffffffffffffffffffffffff1673ffffffffffffffffffffffffffffffffffffffff167f8be0079c531659141344cd1fd0a4f28419497f9722a3daafe3b4186f6b6457e060405160405180910390a36000603360006101000a81548173ffffffffffffffffffffffffffffffffffffffff021916908373ffffffffffffffffffffffffffffffffffffffff160217905550565b610f3961106f565b610fab576040517f08c379a00000000000000000000000000000000000000000000000000000000081526004018080602001828103825260208152602001807f4f776e61626c653a2063616c6c6572206973206e6f7420746865206f776e657281525060200191505060405180910390fd5b60008111611004576040517f08c379a00000000000000000000000000000000000000000000000000000000081526004018080602001828103825260228152602001806119186022913960400191505060405180910390fd5b806068819055507f66cbca4f3c64fecf1dcb9ce094abcf7f68c3450a1d4e3a8e917dd621edb4ebe0816040518082815260200191505060405180910390a150565b6000603360009054906101000a900473ffffffffffffffffffffffffffffffffffffffff16905090565b6000603360009054906101000a900473ffffffffffffffffffffffffffffffffffffffff1673ffffffffffffffffffffffffffffffffffffffff166110b2611741565b73ffffffffffffffffffffffffffffffffffffffff1614905090565b6000606854905090565b600060019054906101000a900460ff16806110f757506110f6611730565b5b8061110e57506000809054906101000a900460ff16155b611163576040517f08c379a000000000000000000000000000000000000000000000000000000000815260040180806020018281038252602e815260200180611a88602e913960400191505060405180910390fd5b60008060019054906101000a900460ff1615905080156111b3576001600060016101000a81548160ff02191690831515021790555060016000806101000a81548160ff0219169083151502179055505b81603360006101000a81548173ffffffffffffffffffffffffffffffffffffffff021916908373ffffffffffffffffffffffffffffffffffffffff160217905550603360009054906101000a900473ffffffffffffffffffffffffffffffffffffffff1673ffffffffffffffffffffffffffffffffffffffff16600073ffffffffffffffffffffffffffffffffffffffff167f8be0079c531659141344cd1fd0a4f28419497f9722a3daafe3b4186f6b6457e060405160405180910390a380156112925760008060016101000a81548160ff0219169083151502179055505b5050565b61129e61106f565b611310576040517f08c379a00000000000000000000000000000000000000000000000000000000081526004018080602001828103825260208152602001807f4f776e61626c653a2063616c6c6572206973206e6f7420746865206f776e657281525060200191505060405180910390fd5b61131981611749565b50565b60675481565b6000606a60008373ffffffffffffffffffffffffffffffffffffffff1673ffffffffffffffffffffffffffffffffffffffff16815260200190815260200160002060009054906101000a900473ffffffffffffffffffffffffffffffffffffffff169050600073ffffffffffffffffffffffffffffffffffffffff168173ffffffffffffffffffffffffffffffffffffffff16141561140c576040517f08c379a0000000000000000000000000000000000000000000000000000000008152600401808060200182810382526027815260200180611a396027913960400191505060405180910390fd5b6114216066544261188f90919063ffffffff16565b61142a8361068d565b10611480576040517f08c379a0000000000000000000000000000000000000000000000000000000008152600401808060200182810382526021815260200180611a186021913960400191505060405180910390fd5b61148c81836001611490565b5050565b600073ffffffffffffffffffffffffffffffffffffffff168273ffffffffffffffffffffffffffffffffffffffff161415611516576040517f08c379a00000000000000000000000000000000000000000000000000000000081526004018080602001828103825260288152602001806119f06028913960400191505060405180910390fd5b6000606960008473ffffffffffffffffffffffffffffffffffffffff1673ffffffffffffffffffffffffffffffffffffffff16815260200190815260200160002054905042811015611566574290505b600061157d6067548361188f90919063ffffffff16565b905080606960008673ffffffffffffffffffffffffffffffffffffffff1673ffffffffffffffffffffffffffffffffffffffff168152602001908152602001600020819055508473ffffffffffffffffffffffffffffffffffffffff168473ffffffffffffffffffffffffffffffffffffffff167fd38b19993495aaecd8b724dae5aba66885a681f4cbe90b11feb232ef36ed4e3560685484876040518084815260200183815260200182151515158152602001935050505060405180910390a3606b60009054906101000a900473ffffffffffffffffffffffffffffffffffffffff1673ffffffffffffffffffffffffffffffffffffffff1663fc673c4f866068546040518363ffffffff1660e01b8152600401808373ffffffffffffffffffffffffffffffffffffffff1673ffffffffffffffffffffffffffffffffffffffff1681526020018281526020018060200180602001838103835260008152602001602001838103825260008152602001602001945050505050600060405180830381600087803b15801561171157600080fd5b505af1158015611725573d6000803e3d6000fd5b505050505050505050565b600080303b90506000811491505090565b600033905090565b600073ffffffffffffffffffffffffffffffffffffffff168173ffffffffffffffffffffffffffffffffffffffff1614156117cf576040517f08c379a00000000000000000000000000000000000000000000000000000000081526004018080602001828103825260268152602001806119a66026913960400191505060405180910390fd5b8073ffffffffffffffffffffffffffffffffffffffff16603360009054906101000a900473ffffffffffffffffffffffffffffffffffffffff1673ffffffffffffffffffffffffffffffffffffffff167f8be0079c531659141344cd1fd0a4f28419497f9722a3daafe3b4186f6b6457e060405160405180910390a380603360006101000a81548173ffffffffffffffffffffffffffffffffffffffff021916908373ffffffffffffffffffffffffffffffffffffffff16021790555050565b60008082840190508381101561190d576040517f08c379a000000000000000000000000000000000000000000000000000000000815260040180806020018281038252601b8152602001807f536166654d6174683a206164646974696f6e206f766572666c6f77000000000081525060200191505060405180910390fd5b809150509291505056fe537562736372697074696f6e733a2070726963652073686f756c64206265203e2030537562736372697074696f6e733a206475726174696f6e2073686f756c64206265203e2030537562736372697074696f6e733a20737562736372697074696f6e2063616e2062652063616e63656c6c6564206279207061796572206f7220726563697069656e74206f6e6c794f776e61626c653a206e6577206f776e657220697320746865207a65726f2061646472657373537562736372697074696f6e733a206f776e65722073686f756c64206e6f742062652030537562736372697074696f6e733a20726563697069656e742073686f756c64206e6f742062652030537562736372697074696f6e733a20746f6f206561726c7920746f2072656e6577537562736372697074696f6e733a20737562736372697074696f6e2069732063616e63656c6564537562736372697074696f6e733a2072656e65774265666f72652073686f756c64206265203e2030436f6e747261637420696e7374616e63652068617320616c7265616479206265656e20696e697469616c697a6564a265627a7a7231582003805708512c4fd90ba2962cdfdc84e3b52348205c78c3a3cfc0114ddc4182d764736f6c63430005110032",
  "compiler": {
    "name": "solc",
    "version": "0.5.17+commit.d19bba13.Emscripten.clang",
    "optimizer": {
      "enabled": false,
      "runs": 200
    },
    "evmVersion": "petersburg"
  }
}